:020000040000FA
:060000000A128A110E280D
:10000800FE00030EF3000408F4000A08F5000A12C3
:100018008A11512A0A128A111128F701F80183124C
:100028000313A70183010A128A119B298312031360
:10003800A2006E281F119F111F129F12A8281F15BA
:100048009F111F129F12A8281F119F151F129F1280
:10005800A8281F159F151F129F12A8281F119F114E
:100068001F169F12A8281F159F111F169F12A82838
:100078001F119F151F169F12A8281F159F151F16C1
:100088009F12A8281F119F111F129F16A8281F151D
:100098009F111F129F16A8281F119F151F129F1628
:1000A800A8281F159F151F129F16A8281F119F11FA
:1000B8001F169F16A8281F159F111F169F16A828E0
:1000C8001F119F151F169F16A8281F159F151F166D
:1000D8009F16A8282208A000A1012108003A0319A8
:1000E8007628A8282008003A03191E28013A03197F
:1000F8002328033A03192828013A03192D28073A17
:1001080003193228013A03193728033A03193C28FE
:10011800013A031941280F3A03194628013A0319ED
:100128004B28033A03195028013A03195528073A6E
:1001380003195A28013A03195F28033A0319642856
:10014800013A03196928A828843083120313A000F0
:10015800A00BAC280000831203139F14080083121D
:100168000313A5001F14843083120313A300A30BE9
:10017800BB280000CB281F139F13E3281F179F13CA
:10018800E3281F139F17E3281F179F17E3288312DD
:1001980003132508A300A4012408003A0319D5284D
:1001A800E3282308013A0319BF28033A0319C22890
:1001B800013A0319C528073A0319C828E328200378
:1001C800031DE728E828F0288B170B17831603135D
:1001D8000C17831203130C132208031DF428F528A7
:1001E800F928831603139F131129831603139F17E6
:1001F8001129831603131F129F122929831603132B
:100208001F169F122929831603131F129F162929C7
:10021800831603131F169F16292983120313210817
:10022800A300A4012408003A03191B29292923083B
:10023800003A0319FD28013A03190229033A031960
:100248000729013A03190C292929080083120313E5
:10025800A20066298316031708149A298316031720
:1002680088149A298316031708159A2983160317E1
:1002780088159A298316031708169A2983160317CF
:1002880088169A298316031708179A2983160317BD
:1002980088179A298316031709149A2983160317AE
:1002A80089149A298316031709159A29831603179F
:1002B80089159A298316031709169A29831603178D
:1002C80089169A292208A000A1012108003A0319D9
:1002D8006E299A292008003A03192E29013A031990
:1002E8003229033A03193629013A03193A29073AF8
:1002F80003193E29013A03194229033A03194629E9
:10030800013A03194A290F3A03194E29013A0319E8
:100318005229033A03195629013A03195A29073A67
:1003280003195E29013A031962299A2908000A1259
:100338008A1190220A128A1183120313A001A101C3
:10034800A20103300A128A11B3200A128A1100305E
:100358000A128A112A210A128A1101300A128A11F4
:100368002A210A128A1100300A128A111A200A1246
:100378008A11831203130C1FC229C329BD299F1890
:10038800C629C729BD292708031DCB29CC29DD2962
:100398001E08A6002608F80000300A128A111A2042
:1003A8000A128A11013083120313A6002608A70730
:1003B800EB291E08A6002608F70001300A128A1148
:1003C8001A200A128A11013083120313A7028430FB
:1003D80083120313A600A60BEF2900008312031350
:1003E8009F140C13BD290A128A110E2883120313B5
:1003F800A200302A8F30831603138F054F2A8316E5
:1004080003130F088F3910388F004F2A8F30831647
:1004180003138F054F2A831603130F088F391038DB
:100428008F004F2A831603130F088F3940388F0027
:100438004F2A831603130F088F3950388F004F2A1D
:100448007030831603138F044F2A831603130F0883
:100458008F3960388F004F2A2208A000A101210897
:10046800003A0319382A292A2008003A0319FE29D4
:10047800013A0319032A033A03190A2A013A03190C
:100488000F2A073A0319162A013A03191D2A023AB4
:100498000319242A292A0F140800831203138C1D18
:1004A800562A572A872A0A128A11D5220A128A112D
:1004B800F1007108F6000130F1007108831203138E
:1004C8008607742A78080A128A11E5220A128A1104
:1004D800842A77080A128A11E5220A128A11842AC4
:1004E8007608F100F2017208003A03197C2A842A7E
:1004F8007108013A0319662A033A03196D2A842AF6
:10050800831203138C1175088A0074088400730E13
:100518008300FE0E7E0E0900033083160317880041
:10052800890183160313851603308500860183121B
:10053800031385018601A001A101A20124300A123A
:100548008A11B7220A128A1107300A128A11FA216F
:100558000A128A118B170B17831203138C11831637
:1005680003138C15080083120313A30083160313C7
:10057800871283120313231DC22AC32AC92A2208F9
:100588008316031394008715CF2A200822048316A4
:100598000313940087118312031323082104940082
:1005A80008000A128A11DE220A128A118312031322
:1005B8001308080083160313141CE32AE42ADE2A0E
:0E05C8000800F000700883120313930008006F
:04400E00C420FF3F8C
:00000001FF
