:020000040000FA
:060000000A128A110E280D
:10000800FE00030EF3000408F4000A08F5000A16BF
:100018008A11532C0A128A11112883120313EE0134
:10002800EF018313C0308400DD300A128A150120E5
:100038000A128A1183010A168A11822E8312031367
:100048005C088039E100610883160313A00083125D
:1000580003135C08E1006107E200620883160313DA
:10006800A60083120313DB1F3A283B283E28831679
:100078000313261483160313260803194428452856
:100088005728260A031D49284A2854280030831275
:100098000313DC000030DB000030DA000030D90048
:1000A8008312DB176128003083120313DC00003051
:1000B800DB000030DA000030D90060088039E10048
:1000C800610883160313A006831203136008E10076
:1000D8006107E200620883160313A5008312031365
:1000E800DF1F772878287B288316031325148316A7
:1000F800031325080319812882289428250A031D3B
:10010800862887289128003083120313E0000030E6
:10011800DF000030DE000030DD008312DF179E288C
:10012800003083120313E0000030DF000030DE00EF
:100138000030DD008316031325080319A428A52819
:10014800AA282608031DA928AA28B5280030831242
:100158000313DC000030DB000030DA000030D90087
:10016800802D831203135908E1006108A0005F087D
:100178000A168A11F4230A128A118312031321081A
:1001880083160313AC00831203132008831603138A
:10019800AB002B0883120313E100E201E301E40141
:1001A800640883160313A4008312031363088316D9
:1001B8000313A30083120313620883160313A20018
:1001C80083120313610883160313A1002C088312FA
:1001D8000313E100E201E301E40164088316031359
:1001E800AA0083120313630883160313A90083125A
:1001F8000313620883160313A8008312031361080C
:1002080083160313A700831203135A08E100610839
:10021800A0005E080A168A11F4230A128A118312B2
:100228000313210883160313AC0083120313200859
:1002380083160313AB002B0883120313E100E201BA
:10024800E301E401610883160313A1078312031372
:10025800620803110318013E031935298316031395
:10026800A20783120313630803110318013E03193D
:10027800402983160313A307831203136408031189
:100288000318013E03194B2983160313A40783128D
:100298000313831603132C0883120313E100E201EE
:1002A800E301E401610883160313A707831203130C
:1002B800620803110318013E031965298316031305
:1002C800A80783120313630803110318013E0319D7
:1002D800702983160313A9078312031364080311F3
:1002E8000318013E03197B2983160313AA078312F7
:1002F800031383160313831203135B08E1006108D9
:10030800A0005D080A168A11F4230A128A118312C2
:100318000313210883160313AC0083120313200868
:1003280083160313AB002B0883120313E100E201C9
:10033800E301E401610883160313A1078312031381
:10034800620803110318013E0319AD29831603132C
:10035800A20783120313630803110318013E03194C
:10036800B82983160313A307831203136408031120
:100378000318013E0319C32983160313A407831224
:100388000313831603132C0883120313E100E201FD
:10039800E301E401610883160313A707831203131B
:1003A800620803110318013E0319DD29831603139C
:1003B800A80783120313630803110318013E0319E6
:1003C800E82983160313A90783120313640803118A
:1003D8000318013E0319F32983160313AA0783128E
:1003E800031383160313083083120313E100031069
:1003F80083160313A10DA20DA30DA40D83120313DD
:10040800E10BFB295A08E1006108A0005D080A1603
:100418008A11F4230A128A118312031321088316FE
:100428000313AC0083120313200883160313AB00D5
:100438002B0883120313E100831603132C0883127D
:100448000313E200E301E401610883160313A10723
:1004580083120313620803110318013E0319372A94
:1004680083160313A20783120313630803110318E7
:10047800013E0319422A83160313A30783120313A9
:10048800640803110318013E03194D2A8316031348
:10049800A407831203138316031383120313590843
:1004A800E1006108A0005E080A168A11F4230A1206
:1004B8008A1183120313210883160313AC008312D5
:1004C8000313200883160313AB002B0883120313AE
:1004D800E100831603132C0883120313E200E301DF
:1004E800E401610883160313A1078312031362084A
:1004F80003110318013E0319842A83160313A20764
:1005080083120313630803110318013E03198F2A8A
:1005180083160313A3078312031364080311031834
:10052800013E03199A2A83160313A407831203139F
:1005380083160313083083120313E1000310831694
:100548000313A10DA20DA30DA40D83120313E10B38
:10055800A22A5908E1006108A0005D080A168A115C
:10056800F4230A128A118312031321088316031332
:10057800AC0083120313200883160313AB002B0867
:1005880083120313E100831603132C088312031349
:10059800E200E301E401610883160313A107831253
:1005A8000313620803110318013E0319DE2A831698
:1005B8000313A20783120313630803110318013EF0
:1005C8000319E92A83160313A30783120313640884
:1005D80003110318013E0319F42A83160313A40711
:1005E8008312031383160313831203135A08E100BB
:1005F8006108A0005F080A168A11F4230A128A11FA
:1006080083120313210883160313AC008312031308
:10061800200883160313AB002B0883120313E10091
:10062800831603132C0883120313E200E301E40189
:10063800610883160313A7078312031362080311C3
:100648000318013E03192B2B83160313A8078312E3
:100658000313630803110318013E0319362B83168D
:100668000313A90783120313640803110318013E37
:100678000319412B83160313AA0783120313831646
:100688000313831203135B08E1006108A0005E08EE
:100698000A168A11F4230A128A11831203132108F5
:1006A80083160313AC008312031320088316031365
:1006B800AB002B0883120313E100831603132C08E5
:1006C80083120313E200E301E401610883160313B4
:1006D800A70783120313620803110318013E0319C5
:1006E800782B83160313A8078312031363080311D7
:1006F8000318013E0319832B83160313A9078312DA
:100708000313640803110318013E03198E2B831683
:100718000313AA0783120313831603138312031305
:100728005B08E1006108A0005F080A168A11F4233B
:100738000A128A1183120313210883160313AC00CB
:1007480083120313200883160313AB002B088312AC
:100758000313E100831603132C0883120313E2002A
:10076800E301E40108300310E10DE20DE30DE40DAF
:10077800FF3E031DB72B610883160313A7078312D7
:100788000313620803110318013E0319CE2B8316C5
:100798000313A80783120313630803110318013E08
:1007A8000319D92B83160313A907831203136408AB
:1007B80003110318013E0319E42B83160313AA0738
:1007C8008312031383160313210883120313E10012
:1007D80083160313220883120313E20083160313FC
:1007E800230883120313E3008316031324088312D8
:1007F8000313E40018300310E40CE30CE20CE10CE2
:10080800FF3E031DFF2B610883160313A7078312FE
:100818000313620803110318013E0319162C8316EB
:100828000313A80783120313630803110318013E77
:100838000319212C83160313A907831203136408D1
:1008480003110318013E03192C2C83160313AA075E
:100858008312031383160313083083120313E10072
:10086800031083160313A10DA20DA30DA40D83126B
:100878000313E10B342C8316031326082507831270
:100888000313E100E201E20D6108823E83160313BF
:10089800AB008312031362080318013EFF3E831660
:1008A8000313AC00842C013083120313E1000310FE
:1008B80083160313A70DA80DA90DAA0D8312031300
:1008C800E10B5B2C83160313A41F6B2C6C2C6D2C73
:1008D8002714013083120313E10003108316031356
:1008E800A10DA20DA30DA40D83120313E10B712C0E
:1008F800FF3083160313AB070318AC0AFF30AC07AD
:10090800A91F872C882C572CA501A41F8C2C8D2C53
:10091800BB2CFF30210583120313E100FF3083163F
:100928000313220583120313E200FF308316031317
:10093800230583120313E3007F3083160313240572
:1009480083120313E4006408630462046104031956
:10095800AE2CAF2CB42C83160313A501A50ABB2C0F
:1009680083160313271CB92CBA2CBB2CAF2C2508D3
:100978000319BF2CC02C0D2D0130A7070030031818
:100988000130A807003003180130A9070030031808
:100998000130AA072A1CD12CD22C0D2D270883122E
:1009A8000313E10083160313280883120313E200DC
:1009B80083160313290883120313E3008316031312
:1009C8002A0883120313E4000130E500640DE40CE7
:1009D800E30CE20CE10CE50BEA2C64088316031324
:1009E800AA0083120313630883160313A900831252
:1009F8000313620883160313A80083120313610804
:100A080083160313A7000130AB070318AC0A0030A4
:100A1800AC072C08803AFF0080307F02031D162D9A
:100A2800FF302B02031C192D1A2D252D7F3083161C
:100A38000313AA008030A9000030A8000030A700E6
:100A4800622D831603132C08803AFF0080307F0242
:100A5800031D302D01302B020318332D342D402D6A
:100A6800003083160313AA000030A9000030A80044
:100A78000030A700A001622D831603132B088312F0
:100A88000313E100610883160313A600FF30A705CE
:100A9800FF30A8057F30A9050030AA05261C552D72
:100AA800562D572DA917260883120313E1000310AA
:100AB800610CE200620883160313AA00200883125F
:100AC8000313E100610883160313AA042A0883129A
:100AD8000313DC0083160313290883120313DB00B6
:100AE80083160313280883120313DA0083160313EB
:100AF800270883120313D90008008312031346083A
:100B08008039C7004708D0004608C7004707C80013
:100B18004808D700C51F912D922D932D57145708BB
:100B28000319972D982DA82D570A031D9C2D9D2D2F
:100B3800A52D0030C6000030C5000030C4000030CC
:100B4800C300C517C601B02D0030C6000030C5006F
:100B58000030C4000030C30042088039C70047088D
:100B6800D0064208C7004707C8004808D800C11F78
:100B7800BE2DBF2DC02D581458080319C42DC52DDE
:100B8800D52D580A031DC92DCA2DD22D0030C200FB
:100B98000030C1000030C0000030BF00C117C201E2
:100BA800DD2D0030C2000030C1000030C000003030
:100BB800BF004208410440043F04031DE42DE52D15
:100BC800FE2D0030C6000030C5000030C4000030E3
:100BD800C3008030C5047F30C6045008C7004708EA
:100BE800C6044608C2004508C1004408C0004308BE
:100BF800BF005D2F5708031D022E032E0C2E003058
:100C0800C2000030C1000030C0000030BF005D2FBE
:100C18005708C700C8014808CA0058084702C90051
:100C2800031CCA0349087F3ED1004A080318013E45
:100C3800003ED2004608CF004508CE004408CD004B
:100C48004308CC000030C6000030C5000030C400A6
:100C58000030C3000030D6000030D5000030D4008A
:100C68000030D300D801822E580803193C2E3D2E9F
:100C78005D2E0130C7000310CC0DCD0DCE0DCF0D6C
:100C8800C70B3F2E0130C7000310C30DC40DC50D9F
:100C9800C60DC70B482ED61F522E532E542E431462
:100CA8000130C7000310D30DD40DD50DD60DC70BD9
:100CB800562E42084F02031D6B2E41084E02031D9B
:100CC8006B2E40084D02031D6B2E3F084C02031C7F
:100CD8006E2E6F2E7E2E56173F08CC024008031C3E
:100CE800400FCD024108031C410FCE024208031CED
:100CF800420FCF020130C7004708D8071A30580200
:100D0800031C872E882E382E4F084E044D044C04A1
:100D180003198F2E902EAF2E5314AF2E0130C7001B
:100D28000310C30DC40DC50DC60DC70B942ED61FD9
:100D38009E2E9F2EA02E43140130C7000310D30D02
:100D4800D40DD50DD60DC70BA22EFF30D107031831
:100D5800D20AFF30D207C51FB22EB32E922ED80169
:100D6800D61FB72EB82ED42EFF305305C700FF303C
:100D78005405C800FF305505C9007F305605CA0024
:100D88004A084904480447040319CB2ECC2ECF2E19
:100D9800D801D80AD42E431CD22ED32ED42ECC2E32
:100DA80058080319D82ED92E0A2F0130C30700304E
:100DB80003180130C407003003180130C50700309C
:100DC80003180130C607461CEA2EEB2E0A2F4308EB
:100DD800C7004408C8004508C9004608CA000130D1
:100DE800CB004A0DCA0CC90CC80CC70CCB0BF52E8E
:100DF8004A08C6004908C5004808C4004708C30097
:100E08000130D1070318D20A0030D2075208803ABD
:100E1800FF0080307F02031D132FFF305102031C97
:100E2800162F172F252FFF3083120313D100003000
:100E3800D2000030C6000030C5000030C4000030C9
:100E4800C300831203135208803AFF0080307F02E8
:100E5800031D302F013051020318332F342F412F37
:100E680083120313D101D2010030C6000030C5003F
:100E78000030C4000030C300D001831203135108AE
:100E8800C7004708D700571C4A2F4B2F4D2FC517AF
:100E9800512F7F30C7004708C5055708C700031002
:100EA800470CC8004808C6005008C7004708C604D1
:100EB800F52D080083120313A200AE2FC3309F053F
:100EC800E82F1F08C33904389F00E82F1F08C339CB
:100ED80020389F00E82F1F08C33924389F00E82FC7
:100EE800C3309F05E82F1F08C33904389F00E82F37
:100EF8001F08C33920389F00E82F1F08C33924383A
:100F08009F00E82F1F08C33920389F00E82F1F08CB
:100F1800C33924389F00E82F1F08C33908389F00B9
:100F2800E82F1F08C3390C389F00E82F1F08C33962
:100F380030389F00E82F1F08C33934389F00E82F46
:100F48001F08C33918389F00E82F1F08C3391C38F9
:100F58009F00E82F2208A000A1012108003A0319E8
:100F6800B62FE82F2008003A0319622F013A031917
:100F7800652F033A03196A2F013A03196F2F073AAD
:100F88000319742F013A0319772F033A03197C2F99
:100F9800013A0319812F0F3A0319862F013A0319D1
:100FA8008B2F033A0319902F013A0319952F073A0B
:100FB80003199A2F013A03199F2F033A0319A42FF3
:100FC800013A0319A92FE82F0C3083120313A0004C
:100FD800A00BEC2F0000831203139F1408000A16BD
:100FE8008A1184230A128A11831203131308080032
:1010020064008001840A04060319003404060228DD
:1010120083120313A20045288316031708147928A4
:10102200831603178814792883160317081579285D
:10103200831603178815792883160317081679284B
:101042008316031788167928831603170817792839
:10105200831603178817792883160317091479282A
:10106200831603178914792883160317091579281B
:101072008316031789157928831603170916792809
:1010820083160317891679282208A000A1012108D6
:10109200003A03194D2879282008003A03190D282F
:1010A200013A03191128033A03191528013A0319C1
:1010B2001928073A03191D28013A03192128033A6E
:1010C20003192528013A031929280F3A03192D2853
:1010D200013A03193128033A03193528013A031951
:1010E2003928073A03193D28013A0319412879287A
:1010F200080083120313B9003908031981288228D2
:101102009628B41F8528862896283109BB00320903
:10111200BC003309BD003409BE00BB0A0319BC0A76
:101122000319BD0A0319BE0A9E283408BE003308FB
:10113200BD003208BC003108BB003408330432045D
:101142003104031DA528A628AF280030B4000030C2
:10115200B3000030B2000030B10035299630B5003E
:101162003508BA00C1280130B5003508BA07013088
:101172000310BE0CBD0CBC0CBB0CFF3E031DB928FA
:10118200FE303E05031DC628C728B428E3280130D7
:10119200B5003508BA070130BB070030031801302B
:1011A200BC07003003180130BD07003003180130BE
:1011B200BE0701300310BE0CBD0CBC0CBB0CFF3EC5
:1011C200031DDB28FF303E05031DE828E928C82857
:1011D200F5280130BA020130B5000310BB0DBC0D79
:1011E200BD0DBE0DB50BEE28BD1BF828F928FF2852
:1011F20002303A020318FE28FF28EA283A18022988
:1012020003290B29FF30BB05FF30BC057F30BD052C
:10121200FF30BE050310BA0C3A08B500B601B7019B
:10122200B80118300310B50DB60DB70DB80DFF3E5D
:10123200031D13293508BB043608BC043708BD0456
:101242003808BE0439080319272928292D29B41F73
:101252002B292C292D29BE173E08B4003D08B300C6
:101262003C08B2003B08B1000800831203132308B4
:101272008039A8002808B0002308A8002807A90080
:101282002908B200A21F46294729482932143208E8
:1012920003194C294D295D29320A031D512952296E
:1012A2005A290030A3000030A2000030A100003013
:1012B200A000A217A30165290030A3000030A200FC
:1012C2000030A1000030A00027088039A8002808BB
:1012D200B1003108300603196F29702971293017BE
:1012E2002708A8002807A9002908B100A61F7A2903
:1012F2007B297C29311431080319802981299129FC
:10130200310A031D852986298E290030A700003065
:10131200A6000030A5000030A400A617A701992955
:101322000030A7000030A6000030A5000030A40065
:101332003208310203189E299F29E329301FA2296E
:10134200A329A7298030A8002808B0063208A800DF
:101352002808B3003108A8002808B2003308A80002
:101362002808B1002008A8002808B3002408A80013
:101372002808A0003308A8002808A4002108A80013
:101382002808B3002508A8002808A1003308A800EF
:101392002808A5002208A8002808B3002608A800EB
:1013A2002808A2003308A8002808A6002308A800DD
:1013B2002808B3002708A8002808A3003308A800BB
:1013C2002808A700B3013108A800A9012908AB0029
:1013D20032082802AA00031CAB032B08803AFF0044
:1013E20080307F02031DF7291A302A02031CFA29D2
:1013F200FB29382A83120313230822042104200420
:10140200031D042A062A0130072A0030A8002808F2
:10141200B3000030A3000030A2000030A100003071
:10142200A0003108A8002808B200402A331C1A2A5A
:101432001B2A242A3308A8000310280C0138A9000B
:101442002908B300262A0310B30C201C292A2A2AB1
:101452002B2AB3170130A800230DA30CA20CA10C58
:10146200A00CA80B2D2A0130A8002808B20783126D
:10147200031331083202031C3F2A402A172A301B69
:10148200432A442A8F2A3208031D482A492A522A0B
:101492000030A3000030A2000030A1000030A00004
:1014A200BD2B2408A007250803110318013E0319C8
:1014B2005B2AA107260803110318013E0319622AB9
:1014C200A207270803110318013E0319692AA3077B
:1014D200231C6C2A6D2A432B331C702A712A7A2A08
:1014E2003308A8000310280C0138A9002908B3000A
:1014F2007C2A0310B30C201C7F2A802A812AB3176E
:101502000130A800230DA30CA20CA10CA00CA80B67
:10151200832A0130A8002808B207432B2308803A07
:10152200FF002708803A7F02031DA12A2608220213
:10153200031DA12A25082102031DA12A2408200235
:101542000318A42AA52AFD2AFF30A800FF30A9000B
:10155200FF30AA00FF30AB002408AC002508AD0024
:101562002608AE002708AF002008AC022108031CA1
:10157200210FBC2ABD2AAD022208031C220FC22A57
:10158200C32AAE022308031C230FC82AC92AAF02AA
:101592002C08A8072D0803182D0FD02AD12AA90735
:1015A2002E0803182E0FD62AD72AAA072F080318A7
:1015B2002F0AAB072B08A3002A08A2002908A100C2
:1015C2002808A0008030A8002808B006B309B30A92
:1015D2003308031DED2AEE2A0B2B0130A007003041
:1015E20003180130A107003003180130A2070030B0
:1015F20003180130A3070B2B2408A0022508031CA3
:10160200250FA1022608031C260FA2022708031C8D
:10161200270FA3022308220421042004031D122BF6
:10162200132B3F2B3308031D172B182B3F2B003096
:10163200A3000030A2000030A1000030A000BD2BAA
:101642000130A8000310A00DA10DA20DA30DA80B3F
:10165200232BB31F2D2B2E2B2F2B2014331C322B7D
:10166200332B362B0314B30D382B0310B30D320872
:1016720003193C2B3D2B3F2B0130B202A21F422B00
:10168200432B212BB101B31F472B482B562B330879
:101692007F3903194D2B4E2B512BB101B10A562B19
:1016A200201C542B552B562B4E2B310803195A2B29
:1016B2005B2B8F2B0130A007003003180130A107EC
:1016C200003003180130A207003003180130A307CD
:1016D200231C6C2B6D2B8F2B2008A8002108A9003E
:1016E2002208AA002308AB000130AC002B0DAB0C82
:1016F200AA0CA90CA80CAC0B772B2B08A3002A0868
:10170200A2002908A1002808A000320A03198A2B86
:101712008B2B8F2B0130A8002808B207320A03193D
:10172200932B942B992B3208031D982B992BA72BC3
:101732000030A3000030A2000030A1000030A00061
:101742003208031DA52BA62BA72BB001321CAA2BF6
:10175200AB2BAD2BA217B12B7F30A8002808A20516
:101762003208A8000310280CA9002908A300B01F02
:10177200BB2BBC2BBD2BA317080083160313B10090
:10178200831203136908A3006808A2006708A10076
:101792006608A0000A168A1162250A128A158312A7
:1017A2000313210883160313AE00831203132008C8
:1017B20083160313AD00B801B901B601B7010130B8
:1017C200BA000030BB00831203136908A300680843
:1017D200A2006708A1006608A0000030A700003040
:1017E200A6000030A5000030A4000A168A11DE25EA
:1017F2000A128A150318FE2BFF2B5D2CBF308312B1
:101802000313DC008030DB000030DA000030D90046
:101812006908E0006808DF006708DE006608DD008E
:101822000A128A1122200A128A15831203135C08F3
:10183200E9005B08E8005A08E7005908E6002D3085
:10184200EC008316031331088400831203136C081F
:1018520083138000013083160313B6070318B70AF7
:101862000030B7075D2C0A3083120313A00000304A
:10187200A100831603132E0883120313A3008316F9
:1018820003132D0883120313A2000A168A118C2453
:101892000A128A1583120313210883160313AE005A
:1018A20083120313200883160313AD000130B80717
:1018B2000318B90A0030B907831603132D082E0442
:1018C200031D642C652C342C9D2D38033904031D13
:1018D2006B2C6C2C712C0130BA000030BB00B32C85
:1018E2000230AF000030B0009D2C831603133B087A
:1018F20083120313AC00831603133A0883120313F3
:10190200AB000A30AD000030AE000A168A11CD23BA
:101912000A128A15831203132C0883160313BB00C1
:10192200831203132B0883160313BA000130AF0787
:101932000318B00A0030B0073908803A8312031343
:10194200EC00831603133008803A831203136C02EF
:10195200031DAF2C831603132F0838020318B22C71
:10196200B32C762C831603133A0883120313B100A7
:10197200831603133B0883120313B2000030B21B19
:10198200FF30B300B40001300A128A157A200A121D
:101992008A15831203133408C2003308C1003208C7
:1019A200C0003108BF006908C6006808C5006708A2
:1019B200C4006608C3000A128A1181250A128A1518
:1019C20083120313420883160313B5008312031311
:1019D200410883160313B4008312031340088316CD
:1019E2000313B300831203133F0883160313B200D9
:1019F2003B0883120313AE00831603133A088312C3
:101A02000313AD0083160313350883120313A300D7
:101A120083160313340883120313A20083160313DD
:101A2200330883120313A1008316031332088312AF
:101A32000313A0000A168A1162250A128A1583125C
:101A420003132108AC002008AB000A168A11CD232B
:101A52000A128A15831203132B08B1002C08B20054
:101A62000030B21BFF30B300B40001300A128A15F5
:101A72007A200A128A15831203133408C20033082B
:101A8200C1003208C0003108BF006908C6006808FA
:101A9200C5006708C4006608C3000A168A11A92394
:101AA2000A128A15831203134208E9004108E8006A
:101AB2004008E7003F08E600831603133508831247
:101AC2000313A30083160313340883120313A20023
:101AD20083160313330883120313A100831603131F
:101AE200320883120313A0000A168A1162250A1211
:101AF2008A15831203132008303EEC008316031369
:101B02003608310783120313ED006D0884006C0858
:101B120083138000013083160313B6070318B70A34
:101B22000030B707FF30B8070318B90AFF30B9070A
:101B32000130BA000030BB0038083904031DA22D61
:101B4200A32D662C2E3083120313EC00831603138D
:101B52003608310783120313ED006D0884006C0808
:101B620083138000013083160313B6070318B70AE4
:101B72000030B7070130AF000030B000E72D831608
:101B820003133B0883120313AC00831603133A08B2
:101B920083120313AB000A30AD000030AE000A1608
:101BA2008A11CD230A128A15831203132C08831675
:101BB2000313BB00831203132B0883160313BA000B
:101BC2000130AF070318B00A0030B00783120313C5
:101BD2006B08803AEC00831603133008803A8312B4
:101BE20003136C02031DFB2D831603132F088312AC
:101BF20003136A020318FE2DFF2DC02D8316031353
:101C02003A0883120313B100831603133B088312AD
:101C12000313B2000030B21BFF30B300B400013036
:101C22000A128A157A200A128A15831203133408BB
:101C3200DC003308DB003208DA003108D900690819
:101C4200A3006808A2006708A1006608A0000A169F
:101C52008A1162250A128A15831203132008B10021
:101C62002108B2000030B21BFF30B300B4000130D3
:101C72000A128A157A200A128A158312031334086B
:101C8200C2003308C1003208C0003108BF00690831
:101C9200C6006808C5006708C4006608C3000A16C3
:101CA2008A11A9230A128A15831203134208E0003B
:101CB2004108DF004008DE003F08DD000A128A11F9
:101CC20022200A128A15831203135C088316031357
:101CD200B500831203135B0883160313B400831247
:101CE20003135A0883160313B3008312031359080C
:101CF20083160313B200350883120313E900831617
:101D02000313340883120313E80083160313330802
:101D120083120313E700831603133208831203139B
:101D2200E6006908A3006808A2006708A100660827
:101D3200A0000A168A1162250A128A15013083163A
:101D42000313BA000030BB00831203136B0883161F
:101D52000313B900831203136A0883160313B8002E
:101D6200E92F38033904031DB72EB82EBD2E0130DA
:101D7200BA000030BB00FF2E0230AF000030B000CE
:101D8200E92E831603133B0883120313AC00831658
:101D920003133A0883120313AB000A30AD0000307C
:101DA200AE000A168A11CD230A128A158312031372
:101DB2002C0883160313BB00831203132B0883160C
:101DC2000313BA000130AF070318B00A0030B0079E
:101DD2003908803A83120313EC0083160313300888
:101DE200803A831203136C02031DFB2E8316031326
:101DF2002F0838020318FE2EFF2EC22E831603135D
:101E02003A0883120313B100831603133B088312AB
:101E12000313B2000030B21BFF30B300B400013034
:101E22000A128A157A200A128A15831203133408B9
:101E3200C2003308C1003208C0003108BF0069087F
:101E4200C6006808C5006708C4006608C3000A1215
:101E52008A1181250A128A158312031342088316F6
:101E62000313B50083120313410883160313B4004E
:101E720083120313400883160313B3008312031360
:101E82003F0883160313B2003B0883120313AE000C
:101E9200831603133A0883120313AD008316031348
:101EA200350883120313A300831603133408831225
:101EB2000313A20083160313330883120313A10032
:101EC20083160313320883120313A0000A168A1121
:101ED20062250A128A15831203132108AC00200816
:101EE200AB000A168A11CD230A128A158312031334
:101EF2002B08B1002C08B2000030B21BFF30B30037
:101F0200B40001300A128A157A200A128A15831245
:101F120003133408C2003308C1003208C00031087C
:101F2200BF006908C6006808C5006708C4006608E3
:101F3200C3000A168A11A9230A128A1583120313EF
:101F42004208E9004108E8004008E7003F08E600CF
:101F520083160313350883120313A3008316031396
:101F6200340883120313A200831603133308831267
:101F72000313A10083160313320883120313A00074
:101F82000A168A1162250A128A158312031320087F
:101F9200303EEC0083160313360831078312031315
:101FA200ED006D0884006C088313800001308316F5
:101FB2000313B6070318B70A0030B707FF30B80794
:101FC2000318B90AFF30B9070130BA000030BB006C
:101FD20038083904031DEE2FEF2FB22E0A30831278
:101FE2000313EC008316031336083107831203131D
:0E1FF200ED006D0884006C0883138000080069
:1026FC00F000700883120313930008008316031371
:10270C00141C892B8A2B842B080083120313A3001F
:10271C0083160313871283120313231D962B972BF7
:10272C009D2B22088316031394008715A32B2008D6
:10273C0022048316031394008711831203132308B6
:10274C00210494000800803083120313C20646084B
:10275C00A3004508A2004408A1004308A0004208B9
:10276C00A7004108A6004008A5003F08A4000A12D3
:10277C008A1536210A168A11831203132308C20004
:10278C002208C1002108C0002008BF0008008312E5
:10279C000313AF01B0012B1CD42BD52BDB2B2D0835
:1027AC00AF070318B00A2E08B00701300310AD0DA7
:1027BC00AE0DFF3E031DDC2B01300310AC0CAB0C3B
:1027CC00FF3E031DE32B2B082C04031DEE2BEF2BDC
:1027DC00D12B3008AC002F08AB0008008312031378
:1027EC00A800A401A5012008A200A3012208A600AC
:1027FC002308A700281C032C042C0A2C2608A40749
:10280C000318A50A2708A50701300310A60DA70D6C
:10281C00FF3E031D0B2C0310A80C2808031D172CBE
:10282C00182C002C2508A1002408A0000800093051
:10283C00831603178800890109308316031385005A
:10284C008312031385018316031385168312031356
:10285C00A001A101A20124300A168A118B230A16A9
:10286C008A117030831603138F040F148312031311
:10287C00A0010330A6002608A100A20102300A160E
:10288C008A11F5240A168A118B170B17831603135A
:10289C008C15831203138C110800831203138C1DE7
:1028AC00582C592C832C0A128A11F3270A168A11D8
:1028BC00F1007108F600702CD3300A168A117E23B1
:1028CC000A168A11802CC9300A168A117E230A1620
:1028DC008A11802C7608F100F2017208003A031973
:1028EC00782C802C7108013A0319622C033A0319D5
:1028FC00692C802C831203138C1175088A007408C0
:10290C008400730E8300FE0E7E0E090083120313E7
:10291C00A601A11F922C932C9A2CA009A109A00A04
:10292C000319A10AA601A60AA31F9D2C9E2CA72C55
:10293C00A209A309A20A0319A30A0130A4002408BE
:10294C00A606A701A801200821040319AE2CAF2C60
:10295C00E62CA501A50ABD2C01300310A00DA10D7C
:10296C00FF3E031DB32C0130A4002408A507A11FB2
:10297C00C02CC12CB22C01300310A70DA80DFF3EAA
:10298C00031DC22C21082302031DCE2C2008220279
:10299C00031CD12CD22CD92C2008A2022108031CF8
:1029AC00A303A302271401300310A10CA00CFF3EBB
:1029BC00031DDA2C0130A502031DE52CE62CC12CDD
:1029CC0026080319EA2CEB2CF02CA709A809A70A56
:1029DC000319A80A2808A1002708A00008008312E0
:1029EC000313A5001F140A2D3F309F05202D1F082F
:1029FC003F3940389F00202D1F083F3980389F00F9
:102A0C00202DC0309F04202D2508A300A4012408EC
:102A1C00003A0319122D202D2308003A0319FA2C21
:102A2C00013A0319FD2C033A0319022D013A03193B
:102A3C00072D202D2208031D242D252D292D83162D
:102A4C0003139F132C2D831603139F178312031349
:102A5C002003031D322D332D4E2D831603130C171B
:102A6C00831203130C134E2D831603131F169F1280
:102A7C00612D831603131F129F16612D83160313EA
:102A8C001F169F16612D831603131F129F12612DA3
:102A9C002108A300A4012408003A0319562D492D3E
:102AAC002308003A03193A2D013A03193F2D033A32
:102ABC000319442D492D0800031083120313220D12
:102ACC00230DA4002408AA002A08031D6E2D6F2DC7
:102ADC00782D0030A3000030A2000030A10000309F
:102AEC00A000DD2D2008A4002108A5002208A600C6
:102AFC002308A7001F300310A70CA60CA50CA40CD0
:102B0C00FF3E031D812D2408A8002808A900A21748
:102B1C00FF30A005FF30A105FF30A2050030A30552
:102B2C009630AA02AA1F9B2D9C2DB62D2A08803AFE
:102B3C00973E0318A22DA32DA42D6F2D0130031049
:102B4C00A30CA20CA10CA00CFF3E031DA52D013063
:102B5C00A4002408AA07031DB42DB52DA42DCD2D3A
:102B6C0020302A02031CBB2DBC2DC82D6F2D01302B
:102B7C00A4000310A00DA10DA20DA30DA40BBF2D3D
:102B8C000130AA022A08031DCC2DCD2DBD2D2908FC
:102B9C000319D12DD22DDD2DA009A109A209A3095C
:102BAC00A00A0319A10A0319A20A0319A30A08000F
:102BBC000030831203132005A80000302105A90062
:102BCC0080302205AA007F302305AB002B082A0495
:102BDC0029042804031DF32DF42DFC2D0030A30033
:102BEC000030A2000030A1000030A000003024050D
:102BFC00A80000302505A90080302605AA007F30EA
:102C0C002705AB002B082A0429042804031D0F2ECA
:102C1C00102E182E0030A7000030A6000030A500A2
:102C2C000030A400A31F1B2E1C2E402E0030A80029
:102C3C000030A9000030AA008030AB002008A802A8
:102C4C002108031C210F2B2E2C2EA9022208031C59
:102C5C00220F312E322EAA022308031C230F372EEB
:102C6C00382EAB022B08A3002A08A2002908A100C9
:102C7C002808A000A71F432E442E682E0030A80061
:102C8C000030A9000030AA008030AB002408A80254
:102C9C002508031C250F532E542EA9022608031CAD
:102CAC00260F592E5A2EAA022708031C270F5F2E17
:102CBC00602EAB022B08A7002A08A6002908A50045
:102CCC002808A4008030A3068030A706270823021A
:102CDC00031D7A2E26082202031D7A2E25082102B6
:102CEC00031D7A2E2408200203187D2E7E2E802EA2
:102CFC000310812E031408000A168A111D240A16CB
:102D0C008A1100300A128A1509200A168A1103301A
:102D1C000A128A1509200A168A1100300A128A1121
:102D2C005E270A168A11831203130C1F9E2E9F2EE8
:102D3C00D42E831603134808031DA52EA62EBD2ED4
:102D4C00831203131E0883160313BC003C08831262
:102D5C000313EF0000300A128A115E270A168A113B
:102D6C00013083160313BC003C08C807D12E831214
:102D7C0003131E0883160313BC003C0883120313B1
:102D8C00EE0003300A128A115E270A168A110130EE
:102D9C0083160313C802831203130C13003083161B
:102DAC000313C7000030C6000030C5000030C4005B
:102DBC000030C3000030C2000030C1000030C00041
:102DCC00403083120313DC00A030DB000030DA004B
:102DDC000030D9004330C2007F30C1000030C00049
:102DEC000030BF006F0883160313BC00BD01BE0189
:102DFC00BF013F0883120313B400831603133E086C
:102E0C0083120313B300831603133D0883120313B9
:102E1C00B200831603133C0883120313B100013074
:102E2C000A128A157A200A168A118312031334089F
:102E3C00C6003308C5003208C4003108C3000A12AA
:102E4C008A1181250A168A11831203134208E000A5
:102E5C004108DF004008DE003F08DD000A128A113D
:102E6C0022200A168A11831203135C08831603139B
:102E7C00C700831203135B0883160313C600831267
:102E8C0003135A0883160313C5008312031359083E
:102E9C0083160313C400470883120313E900831637
:102EAC000313460883120313E80083160313450823
:102EBC0083120313E70083160313440883120313CE
:102ECC00E6000230EA000030EB00D3300A128A151B
:102EDC00BE230A168A11403083120313DC00A03083
:102EEC00DB000030DA000030D9004330C2007F3004
:102EFC00C1000030C0000030BF006E088316031301
:102F0C00BC00BD01BE01BF013F0883120313B40016
:102F1C00831603133E0883120313B30083160313A3
:102F2C003D0883120313B200831603133C0883126B
:102F3C000313B10001300A128A157A200A168A117D
:102F4C00831203133408C6003308C5003208C400CA
:102F5C003108C3000A128A1181250A168A118312BC
:102F6C0003134208E0004108DF004008DE003F0880
:102F7C00DD000A128A1122200A168A118312031309
:102F8C005C0883160313C300831203135B088316B8
:102F9C000313C200831203135A0883160313C100D0
:102FAC0083120313590883160313C00043088312BA
:102FBC000313E90083160313420883120313E8007A
:102FCC0083160313410883120313E70083160313BC
:102FDC00400883120313E6000230EA000030EB00D5
:102FEC00C9300A128A15BE230A168A11992E0A12A2
:042FFC008A110E2800
:04400E00D430FF3F6C
:00000001FF
