:020000040000FA
:060000000A128A110C280F
:10000800FE00030EF1000A08F2000A128A113929CB
:100018000A128A110F28F801F901FA0183010A125C
:100028008A11112AF5008828831203131F119F11C2
:100038001F129F12C228831203131F159F111F122C
:100048009F12C228831203131F119F151F129F129C
:10005800C228831203131F159F151F129F12C2284F
:10006800831203131F119F111F169F12C228831298
:1000780003131F159F111F169F12C2288312031303
:100088001F119F151F169F12C228831203131F15D5
:100098009F151F169F12C228831203131F119F1149
:1000A8001F129F16C228831203131F159F111F12B8
:1000B8009F16C228831203131F119F151F129F1624
:1000C800C228831203131F159F151F129F16C228DB
:1000D800831203131F119F111F169F16C228831224
:1000E80003131F159F111F169F16C228831203138F
:1000F8001F119F151F169F16C228831203131F1561
:100108009F151F169F16C2287508F300F40174087E
:10011800003A03199028C2287308003A03191828CE
:10012800013A03191F28033A03192628013A03192B
:100138002D28073A03193428013A03193B28033AB2
:1001480003194228013A031949280F3A031950287C
:10015800013A03195728033A03195E28013A03198B
:100168006528073A03196C28013A03197328033ADA
:1001780003197A28013A03198128C2288530F30027
:10018800F30BC428831203139F140800F5000429F5
:100198008316031708143829831603178814382977
:1001A8008316031708153829831603178815382965
:1001B8008316031708163829831603178816382953
:1001C8008316031708173829831603178817382941
:1001D8008316031709143829831603178914382935
:1001E8008316031709153829831603178915382923
:1001F8008316031709163829831603178916382911
:100208007508F300F4017408003A03190C29382919
:100218007308003A0319CC28013A0319D028033A85
:100228000319D428013A0319D828073A0319DC28F6
:10023800013A0319E028033A0319E428013A03199B
:10024800E8280F3A0319EC28013A0319F028033A71
:100258000319F428013A0319F828073A0319FC2866
:10026800013A0319002938290800831203138C1D49
:100278003E293F2997291412141B43294429482948
:10028800941F472948294F291308F0007008F900DE
:1002980014139413141683160313941A5429552906
:1002A8007329141958295929732983120313130818
:1002B800F0007008F9008C11141683160313141C2F
:1002C800662967296129831203131308F00070084F
:1002D800F800A630F000F00B6F2900009429941A5A
:1002E800762977299429141D7A297B299429831240
:1002F80003131308F0007008F90083160313141091
:100308007A088312031393001416A630F000F00B3A
:100318008B290000831603131418932994298E2916
:10032800831203138C110C1F9A299B29A0291E08DC
:10033800F0007008FA000C1372088A00710E83002E
:10034800FE0E7E0E090083120313A0001F148530D1
:10035800F600F60BAD29BC291F139F13D4291F17CC
:100368009F13D4291F139F17D4291F179F17D42908
:10037800831203132008F600F7017708003A0319DF
:10038800C629D4297608013A0319B029033A031972
:10039800B329013A0319B629073A0319B929D42907
:1003A8007303031DD829D929E1298B170B17831645
:1003B80003130C17831203130C137508031DE52987
:1003C800E629EA29831603139F13FA2983160313D0
:1003D8009F17FA291F129F12102A1F169F12102A00
:1003E8001F129F16102A1F169F16102A7408F6004F
:1003F800F7017708003A0319022A102A7608003A0A
:100408000319EE29013A0319F129033A0319F429CA
:10041800013A0319F729102A08000A128A116622DC
:100428000A128A1150300A128A114C220A128A11B1
:10043800F301F30AF401F50103300A128A11A72126
:100448000A128A1100300A128A11CA200A128A1165
:1004580000300A128A1116200A128A118312031315
:100468009F18372A382A322A00300A128A11162091
:100478000A128A11843083120313A100A10B422AA5
:100488000000831203139F14322A0A128A110C28BF
:10049800F300730883160313930036308312031393
:1004A800940080308316031394000130910087155F
:1004B80007168B170B17831203138C11831603135C
:1004C8008C15080001308316031788008901013054
:1004D80083160313850086018312031385018601A1
:0E04E800831603130F178F160F160F1408003C
:04400E00C420FF3F8C
:00000001FF
