:020000040000FA
:060000000A128A110C280F
:10000800FE00030EF1000A08F2000A128A11CA283B
:100018000A128A110F28F801F901FA0183010A125C
:100028008A11682AF5008828831203131F119F116B
:100038001F129F12C228831203131F159F111F122C
:100048009F12C228831203131F119F151F129F129C
:10005800C228831203131F159F151F129F12C2284F
:10006800831203131F119F111F169F12C228831298
:1000780003131F159F111F169F12C2288312031303
:100088001F119F151F169F12C228831203131F15D5
:100098009F151F169F12C228831203131F119F1149
:1000A8001F129F16C228831203131F159F111F12B8
:1000B8009F16C228831203131F119F151F129F1624
:1000C800C228831203131F159F151F129F16C228DB
:1000D800831203131F119F111F169F16C228831224
:1000E80003131F159F111F169F16C228831203138F
:1000F8001F119F151F169F16C228831203131F1561
:100108009F151F169F16C2287508F300F40174087E
:10011800003A03199028C2287308003A03191828CE
:10012800013A03191F28033A03192628013A03192B
:100138002D28073A03193428013A03193B28033AB2
:1001480003194228013A031949280F3A031950287C
:10015800013A03195728033A03195E28013A03198B
:100168006528073A03196C28013A03197328033ADA
:1001780003197A28013A03198128C2288530F30027
:10018800F30BC428831203139F140800831203136C
:100198008C1DCF28D02828291412141BD428D52820
:1001A800D928941FD828D928E0281308F000700807
:1001B800F90014139413141683160313941AE528DC
:1001C800E62804291419E928EA28042983120313C4
:1001D8001308F0007008F9008C1114168316031325
:1001E800141CF728F828F228831203131308F000C8
:1001F8007008F800A630F000F00B0029000025294F
:10020800941A072908292529141D0B290C292529A1
:10021800831203131308F0007008F9008316031300
:1002280014107A088312031393001416A630F000F2
:10023800F00B1C2900008316031314182429252900
:100248001F29831203138C110C1F2B292C293329E6
:100258001E08F0007008FA007A0886000C1372086D
:100268008A00710E8300FE0E7E0E0900F5007429C7
:10027800831603170814A829831603178814A829B6
:10028800831603170815A829831603178815A829A4
:10029800831603170816A829831603178816A82992
:1002A800831603170817A829831603178817A82980
:1002B800831603170914A829831603178914A82974
:1002C800831603170915A829831603178915A82962
:1002D800831603170916A829831603178916A82950
:1002E8007508F300F4017408003A03197C29A82959
:1002F8007308003A03193C29013A03194029033AC3
:1003080003194429013A03194829073A03194C29C2
:10031800013A03195029033A03195429013A0319D8
:1003280058290F3A03195C29013A03196029033A3D
:1003380003196429013A03196829073A03196C2932
:10034800013A03197029A829080083120313A00091
:100358001F148530F600F60BAF29BE291F139F1313
:10036800D6291F179F13D6291F139F17D6291F1782
:100378009F17D629831203132008F600F701770880
:10038800003A0319C829D6297608013A0319B2296F
:10039800033A0319B529013A0319B829073A031989
:1003A800BB29D6297303031DDA29DB29E3298B1717
:1003B8000B17831603130C17831203130C137508FA
:1003C800031DE729E829EC29831603139F13FC2949
:1003D800831603139F17FC291F129F12122A1F1638
:1003E8009F12122A1F129F16122A1F169F16122AD0
:1003F8007408F600F7017708003A0319042A122A4C
:100408007608003A0319F029013A0319F329033A47
:100418000319F629013A0319F929122A0800F500E7
:10042800472A8F30831603138F05662A8316031312
:100438000F088F3910388F00662A8F308316031300
:100448008F05662A831603130F088F3910388F001B
:10045800662A831603130F088F3940388F00662ADF
:10046800831603130F088F3950388F00662A7030AF
:10047800831603138F04662A831603130F088F3914
:1004880060388F00662A7508F300F4017408003A92
:1004980003194F2A402A7308003A0319152A013A0A
:1004A80003191A2A033A0319212A013A0319262A99
:1004B800073A03192D2A013A0319342A023A031973
:1004C8003B2A402A0F1408000A128A119D220A1298
:1004D8008A11F301F30AF401F50103300A128A11B3
:1004E800A9210A128A1100300A128A113A210A1225
:1004F8008A1100300A128A1116200A128A118312F0
:1005080003139F18882A892A832A00300A128A111D
:1005180016200A128A11843083120313A100A10B3A
:10052800932A0000831203139F14832A0A128A1144
:100538000C280130831603178800890101308316BF
:100548000313850086018312031385018601073092
:100558000A128A1113220A128A1110300A128A11F9
:10056800B8220A128A110800F300730883160313CD
:1005780093003630831203139400803083160313DC
:10058800940001309100871507168B170B178312FB
:0C05980003138C11831603138C1508004C
:04400E00C420FF3F8C
:00000001FF
