:020000040000FA
:060000000A128A110E280D
:10000800FE00030EF3000408F4000A08F5000A12C3
:100018008A114F2A0A128A111128F701F80183124E
:100028000313A70183010A128A1199298312031362
:10003800A2006E281F119F111F129F12A8281F15BA
:100048009F111F129F12A8281F119F151F129F1280
:10005800A8281F159F151F129F12A8281F119F114E
:100068001F169F12A8281F159F111F169F12A82838
:100078001F119F151F169F12A8281F159F151F16C1
:100088009F12A8281F119F111F129F16A8281F151D
:100098009F111F129F16A8281F119F151F129F1628
:1000A800A8281F159F151F129F16A8281F119F11FA
:1000B8001F169F16A8281F159F111F169F16A828E0
:1000C8001F119F151F169F16A8281F159F151F166D
:1000D8009F16A8282208A000A1012108003A0319A8
:1000E8007628A8282008003A03191E28013A03197F
:1000F8002328033A03192828013A03192D28073A17
:1001080003193228013A03193728033A03193C28FE
:10011800013A031941280F3A03194628013A0319ED
:100128004B28033A03195028013A03195528073A6E
:1001380003195A28013A03195F28033A0319642856
:10014800013A03196928A828843083120313A000F0
:10015800A00BAC280000831203139F14080083121D
:100168000313A5001F14843083120313A300A30BE9
:10017800BB280000CB281F139F13E3281F179F13CA
:10018800E3281F139F17E3281F179F17E3288312DD
:1001980003132508A300A4012408003A0319D5284D
:1001A800E3282308013A0319BF28033A0319C22890
:1001B800013A0319C528073A0319C828E328200378
:1001C800031DE728E828EE28831603130C1783126B
:1001D80003130C132208031DF228F328F7288316AB
:1001E80003139F130F29831603139F170F298316D1
:1001F80003131F129F122729831603131F169F121A
:100208002729831603131F129F1627298316031302
:100218001F169F162729831203132108A300A40180
:100228002408003A0319192927292308003A031931
:10023800FB28013A03190029033A03190529013A51
:1002480003190A292729080083120313A200642925
:1002580083160317081498298316031788149829F6
:1002680083160317081598298316031788159829E4
:1002780083160317081698298316031788169829D2
:1002880083160317081798298316031788179829C0
:1002980083160317091498298316031789149829B4
:1002A80083160317091598298316031789159829A2
:1002B8008316031709169829831603178916982990
:1002C8002208A000A1012108003A03196C299829E5
:1002D8002008003A03192C29013A03193029033A56
:1002E80003193429013A03193829073A03193C2913
:1002F800013A03194029033A03194429013A031919
:1003080048290F3A03194C29013A03195029033A8D
:1003180003195429013A03195829073A03195C2982
:10032800013A03196029982908000A128A118E22B5
:100338000A128A1183120313A001A101A20103303A
:100348000A128A11B3200A128A1100300A128A117D
:1003580028210A128A1101300A128A1128210A1248
:100368008A1100300A128A111A200A128A1183127D
:1003780003130C1FC029C129BB299F18C429C529EB
:10038800BB292708031DC929CA29DB291E08A6007D
:100398002608F80000300A128A111A200A128A1157
:1003A800013083120313A6002608A707E9291E08AF
:1003B800A6002608F70001300A128A111A200A122C
:1003C8008A11013083120313A702843083120313A6
:1003D800A600A60BED290000831203139F140C132B
:1003E800BB290A128A110E2883120313A2002E2A8F
:1003F8008F30831603138F054D2A831603130F08B6
:100408008F3910388F004D2A8F30831603138F05CC
:100418004D2A831603130F088F3910388F004D2A81
:10042800831603130F088F3940388F004D2A83161F
:1004380003130F088F3950388F004D2A70308316F8
:1004480003138F044D2A831603130F088F3960385E
:100458008F004D2A2208A000A1012108003A0319A3
:10046800362A272A2008003A0319FC29013A0319D9
:10047800012A033A0319082A013A03190D2A073AEF
:100488000319142A013A03191B2A023A0319222ACA
:10049800272A0F140800831203138C1D542A552A87
:1004A800852A0A128A11D3220A128A11F1007108C8
:1004B800F6000130F1007108831203138607722ACF
:1004C80078080A128A11E3220A128A11822A770806
:1004D8000A128A11E3220A128A11822A7608F10086
:1004E800F2017208003A03197A2A822A7108013A3D
:1004F8000319642A033A03196B2A822A8312031305
:100508008C1175088A0074088400730E8300FE0E2F
:100518007E0E0900033083160317880089018316AD
:1005280003138516033085008601831203138501A2
:100538008601A001A101A20124300A128A11B52264
:100548000A128A1107300A128A11F8210A128A112E
:100558008B170B17831203138C11831603138C1537
:10056800080083120313A300831603138712831250
:100578000313231DC02AC12AC72A2208831603137E
:1005880094008715CD2A20082204831603139400AB
:1005980087118312031323082104940008000A1208
:1005A8008A11DC220A128A11831203131308080025
:1005B80083160313141CE12AE22ADC2A0800F0003F
:0A05C800700883120313930008006B
:04400E00C420FF3F8C
:00000001FF
