:020000040000FA
:060000000A128A110E280D
:10000800FE00030EF3000408F4000A08F5000A12C3
:100018008A11DB290A128A111128F701F8018312C3
:100028000313A80183010A128A118D29831203136D
:10003800A2006A28C3309F05A4281F08C3390438C2
:100048009F00A4281F08C33920389F00A4281F0830
:10005800C33924389F00A428C3309F05A4281F084B
:10006800C33904389F00A4281F08C33920389F00CB
:10007800A4281F08C33924389F00A4281F08C3399F
:1000880020389F00A4281F08C33924389F00A428BB
:100098001F08C33908389F00A4281F08C3390C3823
:1000A8009F00A4281F08C33930389F00A4281F08C0
:1000B800C33934389F00A4281F08C33918389F0053
:1000C800A4281F08C3391C389F00A4282208A000B0
:1000D800A1012108003A03197228A4282008003A2F
:1000E80003191E28013A03192128033A031926285F
:1000F800013A03192B28073A03193028013A031942
:100108003328033A03193828013A03193D280F3ACE
:1001180003194228013A03194728033A03194C28BE
:10012800013A03195128073A03195628013A0319C5
:100138005B28033A03196028013A03196528A428A3
:10014800843083120313A000A00BA8280000831298
:1001580003139F14080083120313A200EB288316CD
:10016800031708141F298316031788141F298316D9
:10017800031708151F298316031788151F298316C7
:10018800031708161F298316031788161F298316B5
:10019800031708171F298316031788171F298316A3
:1001A800031709141F298316031789141F29831697
:1001B800031709151F298316031789151F29831685
:1001C800031709161F298316031789161F292208E2
:1001D800A000A1012108003A0319F3281F292008CB
:1001E800003A0319B328013A0319B728033A031947
:1001F800BB28013A0319BF28073A0319C328013A53
:100208000319C728033A0319CB28013A0319CF2841
:100218000F3A0319D328013A0319D728033A0319C7
:10022800DB28013A0319DF28073A0319E328013AC2
:100238000319E7281F29080083120313A5001F14B8
:1002480035293F309F054B291F083F3940389F000B
:100258004B291F083F3980389F004B29C0309F0425
:100268004B292508A300A4012408003A03193D29B5
:100278004B292308003A03192529013A031928298B
:10028800033A03192D29013A031932294B2920036E
:10029800031D4F2950296B29831603130C1783124A
:1002A80003130C136B29831603131F169F127E2941
:1002B800831603131F129F167E29831603131F1616
:1002C8009F167E29831603131F129F127E29210869
:1002D800A300A4012408003A0319732966292308F6
:1002E800003A03195729013A03195C29033A0319FB
:1002F80061296629831203132208031D842985298D
:100308008929831603139F138C29831603139F17B8
:1003180008000A128A111A220A128A1100300A12D7
:100328008A11AF200A128A1103300A128A11AF20EB
:100338000A128A1100300A128A111A200A128A1126
:10034800831203130C1FA929AA29D8292808031DD9
:10035800AE29AF29C0291E08A7002708F8000030D9
:100368000A128A111A200A128A1101308312031301
:10037800A7002708A807CE291E08A7002708F70006
:1003880003300A128A111A200A128A1101308312C4
:100398000313A802843083120313A700A70BD229E2
:1003A8000000831203130C130A128A110E288312F9
:1003B80003138C1DE029E129112A0A128A116C22E3
:1003C8000A128A11F1007108F6000130F100710873
:1003D800831203138607FE2978080A128A117C22E1
:1003E8000A128A110E2A77080A128A117C220A1226
:1003F8008A110E2A7608F100F2017208003A0319F0
:10040800062A0E2A7108013A0319F029033A03193A
:10041800F7290E2A831203138C1175088A007408B1
:100428008400730E8300FE0E7E0E090009308316C9
:100438000317880089018316031385160930850080
:1004480086018312031385018601A001A101A2017F
:1004580024300A128A114E220A128A117030831629
:1004680003138F040F1483120313A0010330A60093
:100478002608A100A20102300A128A1120210A12BC
:100488008A118B170B17831603138C15831203130A
:100498008C11080083120313A30083160313871219
:1004A80083120313231D592A5A2A602A2208831605
:1004B800031394008715662A200822048316031361
:1004C8009400871183120313230821049400080061
:1004D8000A128A1175220A128A1183120313130849
:1004E800080083160313141C7A2A7B2A752A08002D
:0C04F800F000700883120313930008004A
:04400E00D430FF3F6C
:00000001FF
