:020000040000FA
:060000000A128A11E42F30
:10000A003F3406345B344F3466346D347D34073400
:10001A007F34673477347C3439345E3479347134DC
:10002A000310720D730DF4007408FA007A08031DA8
:10003A001F28202829280030F3000030F200003061
:10004A00F1000030F0008E287008F4007108F50005
:10005A007208F6007308F7001F300310F70CF60C4D
:10006A00F50CF40CFF3E031D32287408F8007808DA
:10007A00F900F217FF30F005FF30F105FF30F20505
:10008A000030F3059630FA02FA1F4C284D286728EB
:10009A007A08803A973E031853285428552820286E
:1000AA0001300310F30CF20CF10CF00CFF3E031DAF
:1000BA0056280130F4007408FA07031D65286628DB
:1000CA0055287E2820307A02031C6C286D2879284E
:1000DA0020280130F4000310F00DF10DF20DF30D9C
:1000EA00F40B70280130FA027A08031D7D287E2855
:1000FA006E2879080319822883288E28F009F109C5
:10010A00F209F309F00A0319F10A0319F20A0319A9
:10011A00F30A0800831203134F088039D4005408E5
:10012A00D9004F08D4005407D5005508DF00CE1F68
:10013A009F28A028A1285F145F080319A528A628CC
:10014A00B5285F0A031DAA28AB28B3280030CF00C0
:10015A000030CE000030CD000030CC00CE17BD28D4
:10016A000030CF000030CE000030CD000030CC008F
:10017A0053088039D4005408D9065308D4005407C8
:10018A00D5005508DE00D21FCB28CC28CD285E1416
:10019A005E080319D128D228E1285E0A031DD62851
:1001AA00D728DF280030D3000030D2000030D10039
:1001BA000030D000D217E9280030D3000030D20036
:1001CA000030D1000030D0005E080319ED28EE2877
:1001DA00F3285F08031DF228F328FC280030CF001B
:1001EA000030CE000030CD000030CC00EF2B4C08A0
:1001FA00D4005408F00052080A168A1101250A127E
:10020A008A11710883120313E5007008E400640878
:10021A00D400D501D601D7015708DD005608DC0005
:10022A005508DB005408DA006508D400D501D60168
:10023A00D7015708E3005608E2005508E1005408C0
:10024A00E0004D08D4005408F00051080A168A113B
:10025A0001250A128A11710883120313E500700836
:10026A00E4006408D400D501D601D7015408DA079E
:10027A00550803110318013E03194429DB075608E0
:10028A0003110318013E03194B29DC075708031110
:10029A000318013E03195229DD076508D400D50168
:1002AA00D601D7015408E007550803110318013E87
:1002BA0003196029E107560803110318013E0319BF
:1002CA006729E207570803110318013E03196E292B
:1002DA00E3074E08D4005408F00050080A168A11A1
:1002EA0001250A128A11710883120313E5007008A6
:1002FA00E4006408D400D501D601D7015408DA070E
:10030A00550803110318013E03198C29DB07560807
:10031A0003110318013E03199329DC075708031137
:10032A000318013E03199A29DD076508D400D5018F
:10033A00D601D7015408E007550803110318013EF6
:10034A000319A829E107560803110318013E0319E6
:10035A00AF29E207570803110318013E0319B6290A
:10036A00E3070830D4000310DA0DDB0DDC0DDD0DD8
:10037A00D40BB8294D08D4005408F00050080A16C6
:10038A008A1101250A128A11710883120313E500E2
:10039A007008E4006408D4006508D500D601D701C6
:1003AA005408DA07550803110318013E0319DE2918
:1003BA00DB07560803110318013E0319E529DC0778
:1003CA00570803110318013E0319EC29DD074C08ED
:1003DA00D4005408F00051080A168A1101250A129D
:1003EA008A11710883120313E5007008E400640897
:1003FA00D4006508D500D601D7015408DA07550894
:10040A0003110318013E03190B2ADB0756080311CF
:10041A000318013E0319122ADC07570803110318AF
:10042A00013E0319192ADD070830D4000310DA0D3A
:10043A00DB0DDC0DDD0DD40B1B2A4C08D40054084F
:10044A00F00050080A168A1101250A128A11710849
:10045A0083120313E5007008E4006408D4006508F9
:10046A00D500D601D7015408DA0755080311031835
:10047A00013E0319412ADB07560803110318013EFE
:10048A000319482ADC07570803110318013E031908
:10049A004F2ADD074D08D4005408F00052080A1606
:1004AA008A1101250A128A11710883120313E500C1
:1004BA007008E4006408D4006508D500D601D701A5
:1004CA005408E007550803110318013E03196E2A60
:1004DA00E107560803110318013E0319752AE207BA
:1004EA00570803110318013E03197C2AE3074E0833
:1004FA00D4005408F00051080A168A1101250A127C
:10050A008A11710883120313E5007008E400640875
:10051A00D4006508D500D601D7015408E00755086C
:10052A0003110318013E03199B2AE1075608031118
:10053A000318013E0319A22AE207570803110318F8
:10054A00013E0319A92AE3074E08D4005408F00013
:10055A0052080A168A1101250A128A117108831291
:10056A000313E5007008E4006408D4006508D500A8
:10057A00D601D70108300310D40DD50DD60DD70DED
:10058A00FF3E031DC02A5408E0075508031103184B
:10059A00013E0319D12AE107560803110318013E47
:1005AA000319D82AE207570803110318013E031951
:1005BA00DF2AE3075A08D4005B08D5005C08D60096
:1005CA005D08D70018300310D70CD60CD50CD40C04
:1005DA00FF3E031DE82A5408E007550803110318D3
:1005EA00013E0319F92AE107560803110318013ECF
:1005FA000319002BE207570803110318013E0319D8
:10060A00072BE3070830D4000310DA0DDB0DDC0DED
:10061A00DD0DD40B092B5F085E07D400D501D50D7B
:10062A005408823EE40055080318013EFF3EE500E7
:10063A003B2B0130D4000310E00DE10DE20DE30D78
:10064A00D40B202BDD1F2A2B2B2B2C2B60140130D3
:10065A00D4000310DA0DDB0DDC0DDD0DD40B2E2BCF
:10066A00FF30E4070318E50AFF30E507E21F3E2BD7
:10067A003F2B1E2BDE01DD1F432B442B602BFF304B
:10068A005A05D400FF305B05D500FF305C05D60063
:10069A007F305D05D70057085604550454040319E2
:1006AA00572B582B5B2BDE01DE0A602B601C5E2B5E
:1006BA005F2B602B582B5E080319642B652B962B36
:1006CA000130E007003003180130E1070030031859
:1006DA000130E207003003180130E307631C762B70
:1006EA00772B962B6008D4006108D5006208D600E3
:1006FA006308D7000130D800570DD70CD60CD50C9B
:10070A00D40CD80B812B5708E3005608E200550891
:10071A00E1005408E0000130E4070318E50A00305C
:10072A00E5076508803AFF0080307F02031D9F2B92
:10073A00FF306402031CA22BA32BAE2B7F30831243
:10074A000313E3008030E2000030E1000030E000F3
:10075A00E32B831203136508803AFF0080307F027F
:10076A00031DB92B013064020318BC2BBD2BC92B06
:10077A00003083120313E3000030E2000030E1008E
:10078A000030E000D901E32B831203136408D4007C
:10079A005408DF00FF30E005FF30E1057F30E20555
:1007AA000030E3055F1CDA2BDB2BDC2BE2175F083A
:1007BA00D4000310540CD5005508E3005908D4009E
:1007CA005408E3046308CF006208CE006108CD0034
:1007DA006008CC00080083160313DD00831203139C
:1007EA006908F3006808F2006708F1006608F0007B
:1007FA000A128A1115200A128A1171088316031324
:10080A00D4007008D300DE01DF01DB01DC01013016
:10081A00E0000030E100831203136908F30068085E
:10082A00F2006708F1006608F0000030F7000030B7
:10083A00F6000030F5000030F4000A168A115E272F
:10084A000A128A1103182A2C2B2C792CBF308312F6
:10085A000313CF008030CE000030CD000030CC0032
:10086A006908D3006808D2006708D1006608D0007A
:10087A000A128A118F200A128A11831203134F084F
:10088A00E9004E08E8004D08E7004C08E6002D3064
:10089A00EC00831603135D088400831203136C08AB
:1008AA0083138000013083160313DB070318DC0A65
:1008BA000030DC07792C0A30F0000030F1005408CF
:1008CA00F3005308F2000A168A11F7260A128A114F
:1008DA00710883160313D4007008D3000130DE07B1
:1008EA000318DF0A0030DF07831603135308540482
:1008FA00031D802C812C602C9D2D5E035F04031D3B
:10090A00872C882C8D2C0130E0000030E100CF2CA0
:10091A000230D5000030D600B92C831603136108C3
:10092A0083120313A10083160313600883120313AF
:10093A00A0000A30A2000030A3000A168A11282556
:10094A000A128A1183120313210883160313E10082
:10095A0083120313200883160313E0000130D5071E
:10096A000318D60A0030D6075F08803A83120313A9
:10097A00EC00831603135608803A831203136C02A1
:10098A00031DCB2C8316031355085E020318CE2CC5
:10099A00CF2C922C83160313600883120313A4002E
:1009AA0083160313610883120313A5000030A51BE5
:1009BA00FF30A600A70001300A128A151A200A126F
:1009CA008A11831203132708B5002608B4002508E4
:1009DA00B3002408B2006908B9006808B8006708BB
:1009EA00B7006608B6000A128A15D6200A128A11BA
:1009FA0083120313350883160313DA0083120313D1
:100A0A00340883160313D900831203133308831699
:100A1A000313D80083120313320883160313D70073
:100A2A00610883120313A300831603136008831259
:100A3A000313A200831603135A08F3005908F2009D
:100A4A005808F1005708F0000A128A1115200A12F4
:100A5A008A11710883120313A1007008A0000A16F4
:100A6A008A1128250A128A11831203132008A40066
:100A7A002108A5000030A51BFF30A600A700013001
:100A8A000A128A151A200A128A11831203132708D6
:100A9A00B5002608B4002508B3002408B200690886
:100AAA00B9006808B8006708B7006608B6000A16F1
:100ABA008A11B9240A128A11831203133508E9002C
:100ACA003408E8003308E7003208E6008316031307
:100ADA005A08F3005908F2005808F1005708F000C4
:100AEA000A128A1115200A128A117008303E8312DE
:100AFA000313EC00831603135B085D0783120313C9
:100B0A00ED006D0884006C088313800001308316A1
:100B1A000313DB070318DC0A0030DC07FF30DE07AB
:100B2A000318DF0AFF30DF070130E0000030E10080
:100B3A005E085F04031DA22DA32D822C2E30831282
:100B4A000313EC00831603135B085D078312031378
:100B5A00ED006D0884006C08831380000130831651
:100B6A000313DB070318DC0A0030DC070130D50069
:100B7A000030D600E72D831603136108831203138E
:100B8A00A10083160313600883120313A0000A301E
:100B9A00A2000030A3000A168A1128250A128A1117
:100BAA0083120313210883160313E100831203132C
:100BBA00200883160313E0000130D5070318D60A6C
:100BCA000030D607831203136B08803AEC008316B1
:100BDA0003135608803A831203136C02031DFB2D7C
:100BEA00831603135508831203136A020318FE2D92
:100BFA00FF2DC02D83160313600883120313A4006C
:100C0A0083160313610883120313A5000030A51B82
:100C1A00FF30A600A70001300A128A151A200A120C
:100C2A008A11831203132708CF002608CE0025084D
:100C3A00CD002408CC006908F3006808F2006708B0
:100C4A00F1006608F0000A128A1115200A128A11A8
:100C5A00700883120313A4007108A5000030A51BB5
:100C6A00FF30A600A70001300A128A151A200A12BC
:100C7A008A11831203132708B5002608B400250831
:100C8A00B3002408B2006908B9006808B800670808
:100C9A00B7006608B6000A168A11B9240A128A1120
:100CAA00831203133508D3003408D2003308D10065
:100CBA003208D0000A128A118F200A128A1183126E
:100CCA0003134F0883160313DA00831203134E0823
:100CDA0083160313D900831203134D0883160313D3
:100CEA00D800831203134C0883160313D7005A083B
:100CFA0083120313E900831603135908831203139B
:100D0A00E80083160313580883120313E7008316B7
:100D1A000313570883120313E6006908F3006808EF
:100D2A00F2006708F1006608F0000A128A1115201D
:100D3A000A128A11013083160313E0000030E10021
:100D4A00831203136B0883160313DF008312031342
:100D5A006A0883160313DE00CD2F5E035F04031DAA
:100D6A00B72EB82EBD2E0130E0000030E100FF2E74
:100D7A000230D5000030D600E92E8316031361082D
:100D8A0083120313A100831603136008831203134B
:100D9A00A0000A30A2000030A3000A168A112825F2
:100DAA000A128A1183120313210883160313E1001E
:100DBA0083120313200883160313E0000130D507BA
:100DCA000318D60A0030D6075F08803A8312031345
:100DDA00EC00831603135608803A831203136C023D
:100DEA00031DFB2E8316031355085E020318FE2EFD
:100DFA00FF2EC22E83160313600883120313A40066
:100E0A0083160313610883120313A5000030A51B80
:100E1A00FF30A600A70001300A128A151A200A120A
:100E2A008A11831203132708B5002608B40025087F
:100E3A00B3002408B2006908B9006808B800670856
:100E4A00B7006608B6000A128A15D6200A128A1155
:100E5A0083120313350883160313DA00831203136C
:100E6A00340883160313D900831203133308831635
:100E7A000313D80083120313320883160313D7000F
:100E8A00610883120313A3008316031360088312F5
:100E9A000313A200831603135A08F3005908F20039
:100EAA005808F1005708F0000A128A1115200A1290
:100EBA008A11710883120313A1007008A0000A1690
:100ECA008A1128250A128A11831203132008A40002
:100EDA002108A5000030A51BFF30A600A70001309D
:100EEA000A128A151A200A128A1183120313270872
:100EFA00B5002608B4002508B3002408B200690822
:100F0A00B9006808B8006708B7006608B6000A168C
:100F1A008A11B9240A128A11831203133508E900C7
:100F2A003408E8003308E7003208E60083160313A2
:100F3A005A08F3005908F2005808F1005708F0005F
:100F4A000A128A1115200A128A117008303E831279
:100F5A000313EC00831603135B085D078312031364
:100F6A00ED006D0884006C0883138000013083163D
:100F7A000313DB070318DC0A0030DC07FF30DE0747
:100F8A000318DF0AFF30DF070130E0000030E1001C
:100F9A005E085F04031DD22FD32FB22E0A308312AC
:100FAA000313EC00831603135B085D078312031314
:100FBA00ED006D0884006C08831380000800831715
:100FCA00A030FD000030FE000530FF0090308400A4
:100FDA000A168A1172240A128A118313A030840015
:100FEA00D3300A168A1130240A128A11EE018301BB
:100FFA000A128A154B2DF300831203130910730882
:10100A000A168A112A240A128A1583120313091549
:10101A000B30F2006230F100F10B1128F20B1128AB
:10102A000000831203130911080083120313AC0092
:10103A002C080319212822283628A71F2528262804
:10104A0036282409AE002509AF002609B000270971
:10105A00B100AE0A0319AF0A0319B00A0319B10A9B
:10106A003E282708B1002608B0002508AF0024084A
:10107A00AE002708260425042404031D4528462813
:10108A004F280030A7000030A6000030A50000302D
:10109A00A400D5289630A8002808AD0061280130A0
:1010AA00A8002808AD0701300310B10CB00CAF0C32
:1010BA00AE0CFF3E031D5928FE303105031D66287C
:1010CA006728542883280130A8002808AD07013072
:1010DA00AE07003003180130AF07003003180130A3
:1010EA00B007003003180130B10701300310B10C0A
:1010FA00B00CAF0CAE0CFF3E031D7B28FF30310550
:10110A00031D88288928682895280130AD020130F6
:10111A00A8000310AE0DAF0DB00DB10DA80B8E28AF
:10112A00B01B982899289F2802302D0203189E2860
:10113A009F288A282D18A228A328AB28FF30AE059D
:10114A00FF30AF057F30B005FF30B1050310AD0C9D
:10115A002D08A800A901AA01AB0118300310A80D97
:10116A00A90DAA0DAB0DFF3E031DB3282808AE0436
:10117A002908AF042A08B0042B08B1042C08031963
:10118A00C728C828CD28A71FCB28CC28CD28B11717
:10119A003108A7003008A6002F08A5002E08A400D1
:1011AA0008008312031339088039BA003A08C300C9
:1011BA003908BA003A07BB003B08CA00B81FE6283C
:1011CA00E728E8284A144A080319EC28ED28FD28DC
:1011DA004A0A031DF128F228FA280030B900003023
:1011EA00B8000030B7000030B600B817B9010529B9
:1011FA000030B9000030B8000030B7000030B60047
:10120A0035088039BA003A08C3063508BA003A07E1
:10121A00BB003B08CB00B41F1329142915294B1412
:10122A004B08031919291A292A294B0A031D1E29B1
:10123A001F2927290030B5000030B4000030B30060
:10124A000030B200B417B50132290030B5000030C1
:10125A00B4000030B3000030B2003508340433045F
:10126A003204031D39293A2953290030B9000030C4
:10127A00B8000030B7000030B6008030B8047F30C4
:10128A00B9044308BA003A08B9043908B50038085D
:10129A00B4003708B3003608B200B22A4A08031D60
:1012AA005729582961290030B5000030B4000030B0
:1012BA00B3000030B200B22A4A08BA00BB013B08A8
:1012CA00BD004B083A02BC00031CBD033C087F3E2C
:1012DA00C4003D080318013E003EC5003908C2009B
:1012EA003808C1003708C0003608BF000030B9000E
:1012FA000030B8000030B7000030B6000030C90036
:10130A000030C8000030C7000030C600CB01D72922
:10131A004B08031991299229B2290130BA00031006
:10132A00BF0DC00DC10DC20DBA0B94290130BA0010
:10133A000310B60DB70DB80DB90DBA0B9D29C91F0B
:10134A00A729A829A92936140130BA000310C60D05
:10135A00C70DC80DC90DBA0BAB2935084202031DCA
:10136A00C02934084102031DC02933084002031D65
:10137A00C02932083F02031CC329C429D3294917AB
:10138A003208BF023308031C330FC0023408031C9F
:10139A00340FC1023508031C350FC2020130BA00EE
:1013AA003A08CB071A304B02031CDC29DD298D29A8
:1013BA004208410440043F040319E429E529042AA8
:1013CA004614042A0130BA000310B60DB70DB80D41
:1013DA00B90DBA0BE929C91FF329F429F5293614DD
:1013EA000130BA000310C60DC70DC80DC90DBA0BDE
:1013FA00F729FF30C4070318C50AFF30C507B81F0D
:10140A00072A082AE729CB01C91F0C2A0D2A292AEB
:10141A00FF304605BA00FF304705BB00FF304805DC
:10142A00BC007F304905BD003D083C043B043A043A
:10143A000319202A212A242ACB01CB0A292A361C5D
:10144A00272A282A292A212A4B0803192D2A2E2A33
:10145A005F2A0130B607003003180130B7070030A1
:10146A0003180130B807003003180130B907391CD6
:10147A003F2A402A5F2A3608BA003708BB003808D4
:10148A00BC003908BD000130BE003D0DBD0CBC0CCE
:10149A00BB0CBA0CBE0B4A2A3D08B9003C08B8007E
:1014AA003B08B7003A08B6000130C4070318C50A5A
:1014BA000030C5074508803AFF0080307F02031DCF
:1014CA00682AFF304402031C6B2A6C2A7A2AFF30EE
:1014DA0083120313C4000030C5000030B900003085
:1014EA00B8000030B7000030B60083120313450875
:1014FA00803AFF0080307F02031D852A01304402B2
:10150A000318882A892A962A83120313C401C5015B
:10151A000030B9000030B8000030B7000030B60023
:10152A00C301831203134408BA003A08CA004A1CCA
:10153A009F2AA02AA22AB817A62A7F30BA003A08F8
:10154A00B8054A08BA0003103A0CBB003B08B900B8
:10155A004308BA003A08B9044A29080073088039CE
:10156A0083120313A0002008F8007308A0002007C4
:10157A00A1002108FA00F21FC32AC42AC52A7A1434
:10158A007A080319C92ACA2ADA2A7A0A031DCE2A2C
:10159A00CF2AD72A0030F3000030F2000030F100E1
:1015AA000030F000F217F301E22A0030F3000030B5
:1015BA00F2000030F1000030F00077088039A00016
:1015CA002008F900790878060319EC2AED2AEE2A90
:1015DA0078177708A0002007A1002108F900F61F54
:1015EA00F72AF82AF92A791479080319FD2AFE2A12
:1015FA000E2B790A031D022B032B0B2B0030F7004D
:10160A000030F6000030F5000030F400F617F7015C
:10161A00162B0030F7000030F6000030F5000030DD
:10162A00F4007A08790203181B2B1C2B602B781FF5
:10163A001F2B202B242B8030A0002008F8067A08C4
:10164A00A0002008FB007908A0002008FA007B0807
:10165A00A0002008F9007008A0002008FB00740808
:10166A00A0002008F0007B08A0002008F400710800
:10167A00A0002008FB007508A0002008F1007B08E4
:10168A00A0002008F5007208A0002008FB007608D8
:10169A00A0002008F2007B08A0002008F6007308CA
:1016AA00A0002008FB007708A0002008F3007B08B0
:1016BA00A0002008F700FB017908A000A101210879
:1016CA00A3007A082002A200031CA3032308803A7D
:1016DA00FF0080307F02031D742B1A302202031C84
:1016EA00772B782BB92B7308720471047004031DCD
:1016FA007F2B812B0130822B003083120313A00031
:10170A002008FB000030F3000030F2000030F10046
:10171A000030F0007908A0002008FA00BF2B7B1CDB
:10172A00972B982BA32B7B0883120313A00003107B
:10173A00200C0138A1002108FB00A52B0310FB0C8B
:10174A00701CA82BA92BAA2BFB1701308312031399
:10175A00A000730DF30CF20CF10CF00CA00BAE2BE5
:10176A000130A0002008FA0779087A02031CBE2B70
:10177A00BF2B942B781BC22BC32B122C7A08031D68
:10178A00C72BC82BD12B0030F3000030F2000030F9
:10179A00F1000030F0004A2D7408F00775080311B3
:1017AA000318013E0319DA2BF1077608031103180F
:1017BA00013E0319E12BF207770803110318013ED2
:1017CA000319E82BF307731CEB2BEC2BCA2C7B1C9D
:1017DA00EF2BF02BFB2B7B0883120313A0000310C3
:1017EA00200C0138A1002108FB00FD2B0310FB0C83
:1017FA00701C002C012C022CFB17013083120313DE
:10180A00A000730DF30CF20CF10CF00CA00B062CDB
:10181A000130A0002008FA07CA2C7308803AFF009A
:10182A007708803A7F02031D242C76087202031D72
:10183A00242C75087102031D242C740870020318E5
:10184A00272C282C822CFF3083120313A000FF3090
:10185A00A100FF30A200FF30A3007408A40075089D
:10186A00A5007608A6007708A7007008A4027108E8
:10187A00031C710F412C422CA5027208031C720F23
:10188A00472C482CA6027308031C730F4D2C4E2CB0
:10189A00A7022408A00725080318250F552C562C43
:1018AA00A10726080318260F5B2C5C2CA207270821
:1018BA000318270AA3072308F3002208F2002108C5
:1018CA00F1002008F0008030A0002008F806FB098B
:1018DA00FB0A7B08031D722C732C902C0130F00735
:1018EA00003003180130F107003003180130F20705
:1018FA00003003180130F307902C7408F0027508C1
:10190A00031C750FF1027608031C760FF2027708A2
:10191A00031C770FF3027308720471047004031D29
:10192A00972C982CC62C7B08031D9C2C9D2CC62C0E
:10193A000030F3000030F2000030F1000030F00017
:10194A004A2D013083120313A0000310F00DF10D8C
:10195A00F20DF30DA00BAA2CFB1FB42CB52CB62C40
:10196A0070147B1CB92CBA2CBD2C0314FB0DBF2C94
:10197A000310FB0D7A080319C32CC42CC62C0130A2
:10198A00FA02F21FC92CCA2CA62CF901FB1FCE2C75
:10199A00CF2CDD2C7B087F390319D42CD52CD82CDD
:1019AA00F901F90ADD2C701CDB2CDC2CDD2CD52C82
:1019BA0079080319E12CE22C182D0130F0070030C8
:1019CA0003180130F107003003180130F207003024
:1019DA0003180130F307731CF32CF42C182D70082C
:1019EA0083120313A0007108A1007208A2007308F1
:1019FA00A3000130A400230DA30CA20CA10CA00C7F
:101A0A00A40B002D2308F3002208F2002108F1009C
:101A1A002008F0007A0A0319132D142D182D01300D
:101A2A00A0002008FA077A0A03191C2D1D2D222D61
:101A3A007A08031D212D222D302D0030F3000030AD
:101A4A00F2000030F1000030F0007A08031D2E2D5C
:101A5A002F2D302DF8017A1C332D342D362DF21707
:101A6A003C2D7F3083120313A0002008F2057A0868
:101A7A0083120313A0000310200CA1002108F30015
:101A8A00F81F482D492D4A2DF31708000A168A1106
:101A9A0097240A128A150A168A11F7250A128A1534
:101AAA000A168A1161240A128A15F401F40A01300D
:101ABA000A168A11DD240A128A150130F3008030D1
:101ACA00F4000A168A11B5250A128A1508308316F7
:101ADA000313E2006208F40001300A168A11DD24B9
:101AEA000A128A150530F3008030F4000A168A11AA
:101AFA00B5250A128A150F3083160313E20062080D
:101B0A00F40001300A168A11DD240A128A150930F6
:101B1A00F3008030F4000A168A11B5250A128A15D4
:101B2A000A168A1138240A128A151130F000003078
:101B3A00F1000A168A114A240A128A150030F000A6
:101B4A00F1000A168A114F250A128A15700883169F
:101B5A000313E2006208B4000A168A1141240A1229
:101B6A008A15843083160313E200E20BBA2D0000B3
:101B7A000A168A1138240A128A152130F000003018
:101B8A00F1000A168A114A240A128A150030F00056
:101B9A00F1000A168A114F250A128A15700883164F
:101BAA000313E2006208B3000A168A1141240A12DA
:101BBA008A15843083160313E200E20BE22D00003B
:101BCA000A168A1138240A128A159A30F00000304F
:101BDA00F1000A168A114A240A128A150030F00006
:101BEA00F1000A168A114A240A128A15023083164B
:101BFA000313E4000430E300B930E200E20B032EE1
:101C0A00E30B032EE40B032E0A2E0A168A11412433
:101C1A000A128A15033083160313E4000830E3001E
:101C2A007630E200E20B172EE30B172EE40B172E89
:101C3A0000000A168A1138240A128A1503308316FC
:101C4A000313E4000830E3007630E200E20B2B2EA7
:101C5A00E30B2B2EE40B2B2E00009B30F000003000
:101C6A00F1000A168A114A240A128A150030F00075
:101C7A00F1000A168A114F250A128A15700883166E
:101C8A000313E2006208B2000A168A1141240A12FA
:101C9A008A15033083160313E4000830E300763014
:101CAA00E200E20B562EE30B562EE40B562E0000F2
:101CBA00F401F40A02300A168A11DD240A128A157E
:101CCA00C930F3000030F4000A168A11B5250A1249
:101CDA008A15053083160313E2006208F400023005
:101CEA000A168A11DD240A128A150F30F300803091
:101CFA00F4000A168A11B5250A128A1507308316C6
:101D0A000313E2006208F40002300A168A11DD2485
:101D1A000A128A15BF30F3000030F4000A168A113D
:101D2A00B5250A128A150B3083160313E2006208DE
:101D3A00F40002300A168A11DD240A128A150D30BF
:101D4A00F3008030F4000A168A11B5250A128A15A2
:101D5A000E3083160313E2006208F40002300A16FA
:101D6A008A11DD240A128A15B530F3000030F40016
:101D7A000A168A11B5250A128A150030831603132A
:101D8A00AD000030AC000030AB000030AA0040309B
:101D9A0083120313CF00A030CE000030CD000030F4
:101DAA00CC004330B5007F30B4000030B3000030BF
:101DBA00B200831603133408E200E301E401E501EB
:101DCA00650883120313A70083160313640883129A
:101DDA000313A60083160313630883120313A500D3
:101DEA0083160313620883120313A40001300A1234
:101DFA008A151A200A128A15831203132708B900B2
:101E0A002608B8002508B7002408B6000A128A1561
:101E1A00D6200A128A15831203133508D300340810
:101E2A00D2003308D1003208D0000A128A118F205A
:101E3A000A128A15831203134F0883160313AD007F
:101E4A00831203134E0883160313AC008312031381
:101E5A004D0883160313AB00831203134C08831631
:101E6A000313AA002D0883120313E9008316031330
:101E7A002C0883120313E800831603132B0883121A
:101E8A000313E700831603132A0883120313E600D9
:101E9A000230EA000030EB00C9300A128A11F0233E
:101EAA000A128A15831603133308E200E301E401D8
:101EBA00E501650883120313A70083160313640858
:101ECA0083120313A60083160313630883120313F2
:101EDA00A50083160313620883120313A4000030BB
:101EEA000A128A151A200A128A158312031327085E
:101EFA0083160313E90083120313260883160313B8
:101F0A00E80083120313250883160313E7008312DC
:101F1A000313240883160313E600690883120313C4
:101F2A00E90083160313680883120313E800831673
:101F3A000313670883120313E70083160313660863
:101F4A0083120313E6000230EA000030EB00BF30D0
:101F5A000A128A11F0230A128A1583160313320809
:101F6A0083120313A4008039031DFF30A500A600C5
:101F7A00A70001300A128A151A200A128A1583123A
:101F8A000313270883160313E90083120313260891
:101F9A0083160313E8008312031325088316031319
:101FAA00E70083120313240883160313E600690863
:101FBA0083120313E90083160313680883120313B9
:101FCA00E80083160313670883120313E7008316D6
:101FDA000313660883120313E6000230EA00003096
:101FEA00EB00B5300A128A11F0230A128A155A2D0B
:101FFA000A128A110028FF1B0A2883137F188317E5
:10200A000008840A0319FF0A080010308A0004082D
:10201A00840A82070034533431343A340034533456
:10202A0032343A340034533433343A340034553485
:06203A00003456340034AE
:10285400F0007008831203138600080064008001EE
:10286400840A0406031900340406312C0A168A115A
:1028740054240A168A1183160313111408000A1625
:102884008A1154240A168A11831603131115080099
:102894000A168A1154240A168A1170088312031323
:1028A40093000800831603131419592C5A2C542C22
:1028B40011081F39031D5F2C602C542C08000030B4
:1028C4000A128A1500200A168A1101300A128A1582
:1028D40000200A168A1108007E088A007F088200F8
:1028E4000A168A116E240A168A118000840A0408C2
:1028F4007D0603190034FF0A0319FE0A722CF20044
:1029040083120313091472080A168A112A240A1658
:102914008A118312031309150630F100F10B902C70
:10292400000083120313091108008316031788019A
:102934008901831603138501860189018312031318
:102944008501860189010030A3000130A200863090
:10295400A100A030A0000A168A117D250A168A114A
:1029640007300A168A113C260A168A11080080309C
:1029740083120313B5063908F3003808F200370848
:10298400F1003608F0003508F7003408F600330883
:10299400F5003208F4000A128A15B3220A168A11C5
:1029A400730883120313B5007208B4007108B300EE
:1029B4007008B2000800F6007603031DE22CE32C35
:1029C400EF2C74087F3EF5007508F70077080A12AB
:1029D4008A1500200A168A11002D02307606031D7E
:1029E400F42CF52C002D7408BF3EF5007508F70093
:1029F40077080A128A1500200A168A110800F800BE
:102A0400F401F5017008F200F3017208F60073088E
:102A1400F700781C0E2D0F2D152D7608F4070318DA
:102A2400F50A7708F50701300310F60DF70DFF3EA0
:102A3400031D162D0310F80C7808031D222D232DD9
:102A44000B2D7508F1007408F0000800FB01FC016F
:102A540083120313201C2F2D302D362D2208FB0743
:102A64000318FC0A2308FC0701300310A20DA30D70
:102A7400FF3E031D372D01300310A10CA00CFF3EB7
:102A8400031D3E2D20082104031D492D4A2D2A2D06
:102A94007C08A1007B08A00008000A168A115424AF
:102AA4000A168A118316031391150A168A115424DF
:102AB4000A168A11831203131308F200F301720831
:102AC400F4007308F5000A168A1154240A168A11B0
:102AD40070037104031D6F2D702D742D8316031361
:102AE4009112772D83160313911611167508F100B0
:102AF4007408F0000800283083120313940083162E
:102B040003139101831203132008A4002108A500D4
:102B14002208A6002308A70002300310A40DA50D67
:102B2400A60DA70DFF3E031D8F2D2708F3002608D1
:102B3400F2002508F1002408F0000030F7007A3094
:102B4400F6001230F5000030F4000A168A119126BE
:102B54000A168A117008FF3E83160313930094012A
:102B6400871507160800F801F901DA2D78087307AC
:102B7400F6007408F5000318F50AF81FC22DF503D2
:102B84007508F700770883120313FF0076088400A2
:102B94000A168A1100200A168A110A168A1181243B
:102BA4000A168A110130F8070318F90A0030F907E8
:102BB40078087307F6007408F5000318F50AF81F7F
:102BC400E42DF5037508F700770883120313FF005B
:102BD400760884000A168A1100200A168A11003A1F
:102BE400031DF52DF62DB82D080000300A168A11A4
:102BF4002A240A168A113430F500F130F400F40B5B
:102C0400012EF50B012E062E30300A128A150020F3
:102C14000A168A110D30F500FB30F400F40B102E67
:102C2400F50B102E152E30300A128A1500200A16C4
:102C34008A111D30F5009130F400F40B1F2EF50BB2
:102C44001F2E30300A128A1500200A168A113830D5
:102C54000A128A1500200A168A110C300A128A15E3
:102C640000200A168A1106300A128A1500200A1654
:102C74008A110800F200702E8F30831603138F051B
:102C84008F2E831603130F088F3910388F008F2E61
:102C94008F30831603138F058F2E831603130F08AB
:102CA4008F3910388F008F2E831603130F088F3936
:102CB40040388F008F2E831603130F088F39503836
:102CC4008F008F2E7030831603138F048F2E83167C
:102CD40003130F088F3960388F008F2E7208F000AD
:102CE400F1017108003A0319782E692E7008003A30
:102CF40003193E2E013A0319432E033A03194A2EAF
:102D0400013A03194F2E073A0319562E013A0319B3
:102D14005D2E023A0319642E692E0F140800003048
:102D2400FC000030FB000030FA000030F9007308AA
:102D34007204710470040319A02EA12EEE2EFD015D
:102D4400FD0AB12E0130F8000310F00DF10DF20D63
:102D5400F30DF80BA62E0130F8007808FD07F31FD9
:102D6400B42EB52EA42E0130F8000310F90DFA0D7F
:102D7400FB0DFC0DF80BB72E73087702031DCC2E48
:102D840072087602031DCC2E71087502031DCC2E29
:102D940070087402031CCF2ED02EDF2E7008F402AC
:102DA4007108031C710FF5027208031C720FF602FE
:102DB4007308031C730FF702791401300310F30C2A
:102DC400F20CF10CF00CFF3E031DE02E0130FD026D
:102DD400031DED2EEE2EB52E7C08F3007B08F200C9
:102DE4007A08F1007908F0000800F601F11FFB2EC3
:102DF400FC2E032FF009F109F00A0319F10AF60178
:102E0400F60AF31F062F072F102FF209F309F20A0F
:102E14000319F30A0130F4007408F606F701F80107
:102E2400700871040319172F182F4F2FF501F50A95
:102E3400262F01300310F00DF10DFF3E031D1C2F52
:102E44000130F4007408F507F11F292F2A2F1B2FD6
:102E540001300310F70DF80DFF3E031D2B2F7108F1
:102E64007302031D372F70087202031C3A2F3B2F85
:102E7400422F7008F2027108031CF303F302771463
:102E840001300310F10CF00CFF3E031D432F013001
:102E9400F502031D4E2F4F2F2A2F76080319532FA7
:102EA400542F592FF709F809F70A0319F80A780873
:102EB400F1007708F000080000307005F8000030D9
:102EC4007105F90080307205FA007F307305FB004C
:102ED4007B087A0479047804031D712F722F7A2FEA
:102EE4000030F3000030F2000030F1000030F00058
:102EF40000307405F80000307505F900803076055F
:102F0400FA007F307705FB007B087A0479047804A3
:102F1400031D8D2F8E2F962F0030F7000030F60002
:102F24000030F5000030F400F31F992F9A2FBE2FC4
:102F34000030F8000030F9000030FA008030FB0067
:102F44007008F8027108031C710FA92FAA2FF90247
:102F54007208031C720FAF2FB02FFA027308031C00
:102F6400730FB52FB62FFB027B08F3007A08F2002B
:102F74007908F1007808F000F71FC12FC22FE62F5F
:102F84000030F8000030F9000030FA008030FB0017
:102F94007408F8027508031C750FD12FD22FF9029B
:102FA4007608031C760FD72FD82FFA027708031C54
:102FB400770FDD2FDE2FFB027B08F7007A08F6007F
:102FC4007908F5007808F4008030F3068030F706BD
:102FD40077087302031DF82F76087202031DF82F79
:102FE40075087102031DF82F740870020318FB2F73
:0C2FF400FC2FFE2F0310FF2F0314080019
:04400E00C420FF3F8C
:00000001FF
