:020000040000FA
:060000000A128A11E42F30
:10000A003F3406345B344F3466346D347D34073400
:10001A007F34673477347C3439345E3479347134DC
:10002A000310720D730DF4007408FA007A08031DA8
:10003A001F28202829280030F3000030F200003061
:10004A00F1000030F0008E287008F4007108F50005
:10005A007208F6007308F7001F300310F70CF60C4D
:10006A00F50CF40CFF3E031D32287408F8007808DA
:10007A00F900F217FF30F005FF30F105FF30F20505
:10008A000030F3059630FA02FA1F4C284D286728EB
:10009A007A08803A973E031853285428552820286E
:1000AA0001300310F30CF20CF10CF00CFF3E031DAF
:1000BA0056280130F4007408FA07031D65286628DB
:1000CA0055287E2820307A02031C6C286D2879284E
:1000DA0020280130F4000310F00DF10DF20DF30D9C
:1000EA00F40B70280130FA027A08031D7D287E2855
:1000FA006E2879080319822883288E28F009F109C5
:10010A00F209F309F00A0319F10A0319F20A0319A9
:10011A00F30A0800831203134F088039D4005408E5
:10012A00D9004F08D4005407D5005508DF00CE1F68
:10013A009F28A028A1285F145F080319A528A628CC
:10014A00B5285F0A031DAA28AB28B3280030CF00C0
:10015A000030CE000030CD000030CC00CE17BD28D4
:10016A000030CF000030CE000030CD000030CC008F
:10017A0053088039D4005408D9065308D4005407C8
:10018A00D5005508DE00D21FCB28CC28CD285E1416
:10019A005E080319D128D228E1285E0A031DD62851
:1001AA00D728DF280030D3000030D2000030D10039
:1001BA000030D000D217E9280030D3000030D20036
:1001CA000030D1000030D0005E080319ED28EE2877
:1001DA00F3285F08031DF228F328FC280030CF001B
:1001EA000030CE000030CD000030CC00EF2B4C08A0
:1001FA00D4005408F00052080A168A1163230A121E
:10020A008A11710883120313E5007008E400640878
:10021A00D400D501D601D7015708DD005608DC0005
:10022A005508DB005408DA006508D400D501D60168
:10023A00D7015708E3005608E2005508E1005408C0
:10024A00E0004D08D4005408F00051080A168A113B
:10025A0063230A128A11710883120313E5007008D6
:10026A00E4006408D400D501D601D7015408DA079E
:10027A00550803110318013E03194429DB075608E0
:10028A0003110318013E03194B29DC075708031110
:10029A000318013E03195229DD076508D400D50168
:1002AA00D601D7015408E007550803110318013E87
:1002BA0003196029E107560803110318013E0319BF
:1002CA006729E207570803110318013E03196E292B
:1002DA00E3074E08D4005408F00050080A168A11A1
:1002EA0063230A128A11710883120313E500700846
:1002FA00E4006408D400D501D601D7015408DA070E
:10030A00550803110318013E03198C29DB07560807
:10031A0003110318013E03199329DC075708031137
:10032A000318013E03199A29DD076508D400D5018F
:10033A00D601D7015408E007550803110318013EF6
:10034A000319A829E107560803110318013E0319E6
:10035A00AF29E207570803110318013E0319B6290A
:10036A00E3070830D4000310DA0DDB0DDC0DDD0DD8
:10037A00D40BB8294D08D4005408F00050080A16C6
:10038A008A1163230A128A11710883120313E50082
:10039A007008E4006408D4006508D500D601D701C6
:1003AA005408DA07550803110318013E0319DE2918
:1003BA00DB07560803110318013E0319E529DC0778
:1003CA00570803110318013E0319EC29DD074C08ED
:1003DA00D4005408F00051080A168A1163230A123D
:1003EA008A11710883120313E5007008E400640897
:1003FA00D4006508D500D601D7015408DA07550894
:10040A0003110318013E03190B2ADB0756080311CF
:10041A000318013E0319122ADC07570803110318AF
:10042A00013E0319192ADD070830D4000310DA0D3A
:10043A00DB0DDC0DDD0DD40B1B2A4C08D40054084F
:10044A00F00050080A168A1163230A128A117108E9
:10045A0083120313E5007008E4006408D4006508F9
:10046A00D500D601D7015408DA0755080311031835
:10047A00013E0319412ADB07560803110318013EFE
:10048A000319482ADC07570803110318013E031908
:10049A004F2ADD074D08D4005408F00052080A1606
:1004AA008A1163230A128A11710883120313E50061
:1004BA007008E4006408D4006508D500D601D701A5
:1004CA005408E007550803110318013E03196E2A60
:1004DA00E107560803110318013E0319752AE207BA
:1004EA00570803110318013E03197C2AE3074E0833
:1004FA00D4005408F00051080A168A1163230A121C
:10050A008A11710883120313E5007008E400640875
:10051A00D4006508D500D601D7015408E00755086C
:10052A0003110318013E03199B2AE1075608031118
:10053A000318013E0319A22AE207570803110318F8
:10054A00013E0319A92AE3074E08D4005408F00013
:10055A0052080A168A1163230A128A117108831231
:10056A000313E5007008E4006408D4006508D500A8
:10057A00D601D70108300310D40DD50DD60DD70DED
:10058A00FF3E031DC02A5408E0075508031103184B
:10059A00013E0319D12AE107560803110318013E47
:1005AA000319D82AE207570803110318013E031951
:1005BA00DF2AE3075A08D4005B08D5005C08D60096
:1005CA005D08D70018300310D70CD60CD50CD40C04
:1005DA00FF3E031DE82A5408E007550803110318D3
:1005EA00013E0319F92AE107560803110318013ECF
:1005FA000319002BE207570803110318013E0319D8
:10060A00072BE3070830D4000310DA0DDB0DDC0DED
:10061A00DD0DD40B092B5F085E07D400D501D50D7B
:10062A005408823EE40055080318013EFF3EE500E7
:10063A003B2B0130D4000310E00DE10DE20DE30D78
:10064A00D40B202BDD1F2A2B2B2B2C2B60140130D3
:10065A00D4000310DA0DDB0DDC0DDD0DD40B2E2BCF
:10066A00FF30E4070318E50AFF30E507E21F3E2BD7
:10067A003F2B1E2BDE01DD1F432B442B602BFF304B
:10068A005A05D400FF305B05D500FF305C05D60063
:10069A007F305D05D70057085604550454040319E2
:1006AA00572B582B5B2BDE01DE0A602B601C5E2B5E
:1006BA005F2B602B582B5E080319642B652B962B36
:1006CA000130E007003003180130E1070030031859
:1006DA000130E207003003180130E307631C762B70
:1006EA00772B962B6008D4006108D5006208D600E3
:1006FA006308D7000130D800570DD70CD60CD50C9B
:10070A00D40CD80B812B5708E3005608E200550891
:10071A00E1005408E0000130E4070318E50A00305C
:10072A00E5076508803AFF0080307F02031D9F2B92
:10073A00FF306402031CA22BA32BAE2B7F30831243
:10074A000313E3008030E2000030E1000030E000F3
:10075A00E32B831203136508803AFF0080307F027F
:10076A00031DB92B013064020318BC2BBD2BC92B06
:10077A00003083120313E3000030E2000030E1008E
:10078A000030E000D901E32B831203136408D4007C
:10079A005408DF00FF30E005FF30E1057F30E20555
:1007AA000030E3055F1CDA2BDB2BDC2BE2175F083A
:1007BA00D4000310540CD5005508E3005908D4009E
:1007CA005408E3046308CF006208CE006108CD0034
:1007DA006008CC00080083160313E2008312031397
:1007EA006908F3006808F2006708F1006608F0007B
:1007FA000A128A1115200A128A1171088316031324
:10080A00D9007008D800E301E401E001E1010130F8
:10081A00E5000030E600831203136908F300680854
:10082A00F2006708F1006608F0000030F7000030B7
:10083A00F6000030F5000030F4000A168A11AE26E0
:10084A000A128A1103182A2C2B2C792CBF308312F6
:10085A000313CF008030CE000030CD000030CC0032
:10086A006908D3006808D2006708D1006608D0007A
:10087A000A128A118F200A128A11831203134F084F
:10088A00E9004E08E8004D08E7004C08E6002D3064
:10089A00EC008316031362088400831203136C08A6
:1008AA0083138000013083160313E0070318E10A5B
:1008BA000030E107792C0A30F0000030F1005908C5
:1008CA00F3005808F2000A168A11DB240A128A1168
:1008DA00710883160313D9007008D8000130E307A2
:1008EA000318E40A0030E40783160313580859046E
:1008FA00031D802C812C602C9D2D63036404031D31
:10090A00872C882C8D2C0130E5000030E600CF2C96
:10091A000230DA000030DB00B92C831603136608B4
:10092A0083120313A10083160313650883120313AA
:10093A00A0000A30A2000030A3000A168A118A23F6
:10094A000A128A1183120313210883160313E6007D
:10095A0083120313200883160313E5000130DA0714
:10096A000318DB0A0030DB076408803A831203139A
:10097A00EC00831603135B08803A831203136C029C
:10098A00031DCB2C831603135A0863020318CE2CBB
:10099A00CF2C922C83160313650883120313A40029
:1009AA0083160313660883120313A5000030A51BE0
:1009BA00FF30A600A70001300A128A1545200A1244
:1009CA008A11831203132708B5002608B4002508E4
:1009DA00B3002408B2006908B9006808B8006708BB
:1009EA00B7006608B6000A128A1501210A128A118E
:1009FA0083120313350883160313DF0083120313CC
:100A0A00340883160313DE00831203133308831694
:100A1A000313DD0083120313320883160313DC0069
:100A2A00660883120313A30083160313650883124F
:100A3A000313A200831603135F08F3005E08F20093
:100A4A005D08F1005C08F0000A128A1115200A12EA
:100A5A008A11710883120313A1007008A0000A16F4
:100A6A008A118A230A128A11831203132008A40006
:100A7A002108A5000030A51BFF30A600A700013001
:100A8A000A128A1545200A128A11831203132708AB
:100A9A00B5002608B4002508B3002408B200690886
:100AAA00B9006808B8006708B7006608B6000A16F1
:100ABA008A111B230A128A11831203133508E900CB
:100ACA003408E8003308E7003208E6008316031307
:100ADA005F08F3005E08F2005D08F1005C08F000B0
:100AEA000A128A1115200A128A117008303E8312DE
:100AFA000313EC00831603136008620783120313BF
:100B0A00ED006D0884006C088313800001308316A1
:100B1A000313E0070318E10A0030E107FF30E30797
:100B2A000318E40AFF30E4070130E5000030E6006C
:100B3A0063086404031DA22DA32D822C2E30831278
:100B4A000313EC008316031360086207831203136E
:100B5A00ED006D0884006C08831380000130831651
:100B6A000313E0070318E10A0030E1070130DA0055
:100B7A000030DB00E72D8316031366088312031384
:100B8A00A10083160313650883120313A0000A3019
:100B9A00A2000030A3000A168A118A230A128A11B7
:100BAA0083120313210883160313E6008312031327
:100BBA00200883160313E5000130DA070318DB0A5D
:100BCA000030DB07831203136B08803AEC008316AC
:100BDA0003135B08803A831203136C02031DFB2D77
:100BEA00831603135A08831203136A020318FE2D8D
:100BFA00FF2DC02D83160313650883120313A40067
:100C0A0083160313660883120313A5000030A51B7D
:100C1A00FF30A600A70001300A128A1545200A12E1
:100C2A008A11831203132708CF002608CE0025084D
:100C3A00CD002408CC006908F3006808F2006708B0
:100C4A00F1006608F0000A128A1115200A128A11A8
:100C5A00700883120313A4007108A5000030A51BB5
:100C6A00FF30A600A70001300A128A1545200A1291
:100C7A008A11831203132708B5002608B400250831
:100C8A00B3002408B2006908B9006808B800670808
:100C9A00B7006608B6000A168A111B230A128A11BF
:100CAA00831203133508D3003408D2003308D10065
:100CBA003208D0000A128A118F200A128A1183126E
:100CCA0003134F0883160313DF00831203134E081E
:100CDA0083160313DE00831203134D0883160313CE
:100CEA00DD00831203134C0883160313DC005F082C
:100CFA0083120313E900831603135E088312031396
:100D0A00E800831603135D0883120313E7008316B2
:100D1A0003135C0883120313E6006908F3006808EA
:100D2A00F2006708F1006608F0000A128A1115201D
:100D3A000A128A11013083160313E5000030E60017
:100D4A00831203136B0883160313E400831203133D
:100D5A006A0883160313E300CD2F63036404031D9B
:100D6A00B72EB82EBD2E0130E5000030E600FF2E6A
:100D7A000230DA000030DB00E92E8316031366081E
:100D8A0083120313A1008316031365088312031346
:100D9A00A0000A30A2000030A3000A168A118A2392
:100DAA000A128A1183120313210883160313E60019
:100DBA0083120313200883160313E5000130DA07B0
:100DCA000318DB0A0030DB076408803A8312031336
:100DDA00EC00831603135B08803A831203136C0238
:100DEA00031DFB2E831603135A0863020318FE2EF3
:100DFA00FF2EC22E83160313650883120313A40061
:100E0A0083160313660883120313A5000030A51B7B
:100E1A00FF30A600A70001300A128A1545200A12DF
:100E2A008A11831203132708B5002608B40025087F
:100E3A00B3002408B2006908B9006808B800670856
:100E4A00B7006608B6000A128A1501210A128A1129
:100E5A0083120313350883160313DF008312031367
:100E6A00340883160313DE00831203133308831630
:100E7A000313DD0083120313320883160313DC0005
:100E8A00660883120313A3008316031365088312EB
:100E9A000313A200831603135F08F3005E08F2002F
:100EAA005D08F1005C08F0000A128A1115200A1286
:100EBA008A11710883120313A1007008A0000A1690
:100ECA008A118A230A128A11831203132008A400A2
:100EDA002108A5000030A51BFF30A600A70001309D
:100EEA000A128A1545200A128A1183120313270847
:100EFA00B5002608B4002508B3002408B200690822
:100F0A00B9006808B8006708B7006608B6000A168C
:100F1A008A111B230A128A11831203133508E90066
:100F2A003408E8003308E7003208E60083160313A2
:100F3A005F08F3005E08F2005D08F1005C08F0004B
:100F4A000A128A1115200A128A117008303E831279
:100F5A000313EC008316031360086207831203135A
:100F6A00ED006D0884006C0883138000013083163D
:100F7A000313E0070318E10A0030E107FF30E30733
:100F8A000318E40AFF30E4070130E5000030E60008
:100F9A0063086404031DD22FD32FB22E0A308312A2
:100FAA000313EC008316031360086207831203130A
:100FBA00ED006D0884006C08831380000800831715
:100FCA00A030FD000030FE000530FF0090308400A4
:100FDA000A168A11DC220A128A118313A0308400AD
:100FEA00D8300A168A11B9220A128A11FD01830120
:100FFA000A128A15DE2A00300A168A11B3220A1248
:10100A008A153430F500F130F400F40B0A28F50B98
:10101A000A280F2830300A168A1101230A128A1563
:10102A000D30F500FB30F400F40B1928F50B1928E4
:10103A001E2830300A168A1101230A128A151D3019
:10104A00F5009130F400F40B2828F50B28283030ED
:10105A000A168A1101230A128A1538300A168A11C9
:10106A0001230A128A150C300A168A1101230A1260
:10107A008A1506300A168A1101230A128A150800EF
:10108A0083120313AC002C0803194C284D2861283D
:10109A00A71F5028512861282409AE002509AF004E
:1010AA002609B0002709B100AE0A0319AF0A0319CD
:1010BA00B00A0319B10A69282708B1002608B00046
:1010CA002508AF002408AE002708260425042404B6
:1010DA00031D702871287A280030A7000030A60066
:1010EA000030A5000030A40000299630A800280886
:1010FA00AD008C280130A8002808AD070130031084
:10110A00B10CB00CAF0CAE0CFF3E031D8428FE30B0
:10111A003105031D912892287F28AE280130A800A6
:10112A002808AD070130AE07003003180130AF07B9
:10113A00003003180130B007003003180130B1073E
:10114A0001300310B10CB00CAF0CAE0CFF3E031D06
:10115A00A628FF303105031DB328B4289328C028D8
:10116A000130AD020130A8000310AE0DAF0DB00D75
:10117A00B10DA80BB928B01BC328C428CA2802304D
:10118A002D020318C928CA28B5282D18CD28CE281B
:10119A00D628FF30AE05FF30AF057F30B005FF30EF
:1011AA00B1050310AD0C2D08A800A901AA01AB01D5
:1011BA0018300310A80DA90DAA0DAB0DFF3E031D93
:1011CA00DE282808AE042908AF042A08B0042B0830
:1011DA00B1042C080319F228F328F828A71FF628C7
:1011EA00F728F828B1173108A7003008A6002F08F9
:1011FA00A5002E08A40008008312031339088039B9
:10120A00BA003A08C3003908BA003A07BB003B08DB
:10121A00CA00B81F1129122913294A144A080319A6
:10122A001729182928294A0A031D1C291D29252995
:10123A000030B9000030B8000030B7000030B60006
:10124A00B817B90130290030B9000030B8000030B1
:10125A00B7000030B60035088039BA003A08C3062C
:10126A003508BA003A07BB003B08CB00B41F3E2939
:10127A003F2940294B144B0803194429452955296C
:10128A004B0A031D49294A2952290030B50000306A
:10129A00B4000030B3000030B200B417B5015D29C4
:1012AA000030B5000030B4000030B3000030B200A6
:1012BA003508340433043204031D642965297E2960
:1012CA000030B9000030B8000030B7000030B60076
:1012DA008030B8047F30B9044308BA003A08B90428
:1012EA003908B5003808B4003708B3003608B20028
:1012FA00DD2A4A08031D822983298C290030B5007A
:10130A000030B4000030B3000030B200DD2A4A08D1
:10131A00BA00BB013B08BD004B083A02BC00031CE3
:10132A00BD033C087F3EC4003D080318013E003E51
:10133A00C5003908C2003808C1003708C00036089D
:10134A00BF000030B9000030B8000030B7000030EC
:10135A00B6000030C9000030C8000030C7000030B5
:10136A00C600CB01022A4B080319BC29BD29DD2975
:10137A000130BA000310BF0DC00DC10DC20DBA0B6A
:10138A00BF290130BA000310B60DB70DB80DB90D5B
:10139A00BA0BC829C91FD229D329D4293614013036
:1013AA00BA000310C60DC70DC80DC90DBA0BD62950
:1013BA0035084202031DEB2934084102031DEB29BB
:1013CA0033084002031DEB2932083F02031CEE29B1
:1013DA00EF29FE2949173208BF023308031C330FCD
:1013EA00C0023408031C340FC1023508031C350F30
:1013FA00C2020130BA003A08CB071A304B02031C6A
:10140A00072A082AB8294208410440043F0403195C
:10141A000F2A102A2F2A46142F2A0130BA00031045
:10142A00B60DB70DB80DB90DBA0B142AC91F1E2A6D
:10143A001F2A202A36140130BA000310C60DC70D20
:10144A00C80DC90DBA0B222AFF30C4070318C50AF2
:10145A00FF30C507B81F322A332A122ACB01C91F07
:10146A00372A382A542AFF304605BA00FF30470582
:10147A00BB00FF304805BC007F304905BD003D0870
:10148A003C043B043A0403194B2A4C2A4F2ACB0149
:10149A00CB0A542A361C522A532A542A4C2A4B085D
:1014AA000319582A592A8A2A0130B6070030031824
:1014BA000130B707003003180130B80700300318AD
:1014CA000130B907391C6A2A6B2A8A2A3608BA00F7
:1014DA003708BB003808BC003908BD000130BE001F
:1014EA003D0DBD0CBC0CBB0CBA0CBE0B752A3D08DD
:1014FA00B9003C08B8003B08B7003A08B60001300A
:10150A00C4070318C50A0030C5074508803AFF001A
:10151A0080307F02031D932AFF304402031C962A5F
:10152A00972AA52AFF3083120313C4000030C5008E
:10153A000030B9000030B8000030B7000030B60003
:10154A00831203134508803AFF0080307F02031D8F
:10155A00B02A013044020318B32AB42AC12A8312DA
:10156A000313C401C5010030B9000030B8000030CF
:10157A00B7000030B600C301831203134408BA004F
:10158A003A08CA004A1CCA2ACB2ACD2AB817D12A35
:10159A007F30BA003A08B8054A08BA0003103A0C74
:1015AA00BB003B08B9004308BA003A08B9047529D8
:1015BA0008000A168A11B1230A128A150A128A1514
:1015CA0000200A128A1500300A168A11AB250A125F
:1015DA008A1501300A168A11AB250A128A150030BB
:1015EA000A168A1150270A128A150A168A11CB225C
:1015FA000A128A15F401F40A01300A168A113F23E5
:10160A000A128A152D30F3008030F4000A168A1166
:10161A00F2230A128A15083083160313E7006708B3
:10162A00F40001300A168A113F230A128A15313052
:10163A00F3008030F4000A168A11F2230A128A157E
:10164A000F3083160313E7006708F40001300A1607
:10165A008A113F230A128A153530F3008030F400CC
:10166A000A168A11F2230A128A15831603133608F8
:10167A008312031388000A168A111A260A128A1577
:10168A00831203130C1F4A2B4B2B7C2B8316031339
:10169A003908031D512B522B672B831203131E0883
:1016AA0083160313E7006708B80000300A168A1188
:1016BA0050270A128A15013083160313E7006708B8
:1016CA00B907792B831203131E0883160313E70045
:1016DA006708B70001300A168A1150270A128A15BC
:1016EA00013083160313B902831203130C13F40196
:1016FA00F40A02300A168A113F230A128A15CE30DA
:10170A00F3000030F4000A168A11F2230A128A152D
:10171A00053083160313E7006708F40002300A163F
:10172A008A113F230A128A153930F3008030F400F7
:10173A000A168A11F2230A128A150730831603132E
:10174A00E7006708F40002300A168A113F230A12DA
:10175A008A15C430F3000030F4000A168A11F22305
:10176A000A128A150B3083160313E7006708F40080
:10177A0002300A168A113F230A128A153930F300F9
:10178A008030F4000A168A11F2230A128A150E30E2
:10179A0083160313E7006708F40002300A168A1159
:1017AA003F230A128A15BA30F3000030F4000A16F1
:1017BA008A11F2230A128A15003083160313B10024
:1017CA000030B0000030AF000030AE000030AD0095
:1017DA000030AC000030AB000030AA004030831269
:1017EA000313CF00A030CE000030CD000030CC0073
:1017FA004330B5007F30B4000030B3000030B2008F
:10180A00831603133808E700E801E901EA016A08C8
:10181A0083120313A70083160313690883120313A1
:10182A00A60083160313680883120313A500831600
:10183A000313670883120313A40001300A128A15DE
:10184A0045200A128A15831203132708B9002608AD
:10185A00B8002508B7002408B6000A128A15012123
:10186A000A128A15831203133508D3003408D200EA
:10187A003308D1003208D0000A128A118F200A12C6
:10188A008A15831203134F0883160313B1008312B8
:10189A0003134E0883160313B000831203134D0873
:1018AA0083160313AF00831203134C088316031322
:1018BA00AE00310883120313E900831603133008BC
:1018CA0083120313E800831603132F0883120313EA
:1018DA00E700831603132E0883120313E60002306F
:1018EA00EA000030EB00CE300A128A11F0230A1205
:1018FA008A15403083120313CF00A030CE00003087
:10190A00CD000030CC004330B5007F30B400003049
:10191A00B3000030B200831603133708E700E8016A
:10192A00E901EA016A0883120313A7008316031365
:10193A00690883120313A600831603136808831227
:10194A000313A50083160313670883120313A40065
:10195A0001300A128A1545200A128A1583120313C6
:10196A002708B9002608B8002508B7002408B600D9
:10197A000A128A1501210A128A15831203133508DD
:10198A00D3003408D2003308D1003208D0000A123A
:10199A008A118F200A128A15831203134F0883169D
:1019AA000313AD00831203134E0883160313AC000E
:1019BA00831203134D0883160313AB008312031318
:1019CA004C0883160313AA002D0883120313E90097
:1019DA00831603132C0883120313E80083160313D8
:1019EA002B0883120313E700831603132A088312B2
:1019FA000313E6000230EA000030EB00C4300A129A
:101A0A008A11F0230A128A15831603133608E7008F
:101A1A00E801E901EA016A0883120313A7008316A1
:101A2A000313690883120313A600831603136808B5
:101A3A0083120313A5008316031367088312031383
:101A4A00A40000300A128A1545200A128A15831248
:101A5A000313270883160313EE00831203132608C1
:101A6A0083160313ED008312031325088316031349
:101A7A00EC0083120313240883160313EB006E0889
:101A8A0083120313E900831603136D0883120313E9
:101A9A00E800831603136C0883120313E700831606
:101AAA0003136B0883120313E6000230EA000030C6
:101ABA00EB00BA300A128A11F0230A128A15FF2A99
:101ACA000A128A1100287308803983120313A000AE
:101ADA002008F8007308A0002007A1002108FA00D6
:101AEA00F21F782D792D7A2D7A147A0803197E2D12
:101AFA007F2D8F2D7A0A031D832D842D8C2D003086
:101B0A00F3000030F2000030F1000030F000F2176C
:101B1A00F301972D0030F3000030F2000030F1009D
:101B2A000030F00077088039A0002008F900790811
:101B3A0078060319A12DA22DA32D78177708A000E6
:101B4A002007A1002108F900F61FAC2DAD2DAE2DFE
:101B5A00791479080319B22DB32DC32D790A031DFF
:101B6A00B72DB82DC02D0030F7000030F600003038
:101B7A00F5000030F400F617F701CB2D0030F7001E
:101B8A000030F6000030F5000030F4007A087902DF
:101B9A000318D02DD12D152E781FD42DD52DD92D42
:101BAA008030A0002008F8067A08A0002008FB0070
:101BBA007908A0002008FA007B08A0002008F90094
:101BCA007008A0002008FB007408A0002008F0009C
:101BDA007B08A0002008F4007108A0002008FB0080
:101BEA007508A0002008F1007B08A0002008F50075
:101BFA007208A0002008FB007608A0002008F20066
:101C0A007B08A0002008F6007308A0002008FB004B
:101C1A007708A0002008F3007B08A0002008F7003E
:101C2A00FB017908A000A1012108A3007A0820027B
:101C3A00A200031CA3032308803AFF0080307F021E
:101C4A00031D292E1A302202031C2C2E2D2E6E2E35
:101C5A007308720471047004031D342E362E013089
:101C6A00372E003083120313A0002008FB00003037
:101C7A00F3000030F2000030F1000030F000790883
:101C8A00A0002008FA00742E7B1C4C2E4D2E582ED4
:101C9A007B0883120313A0000310200C0138A10053
:101CAA002108FB005A2E0310FB0C701C5D2E5E2EC1
:101CBA005F2EFB17013083120313A000730DF30C80
:101CCA00F20CF10CF00CA00B632E0130A0002008DE
:101CDA00FA0779087A02031C732E742E492E781B90
:101CEA00772E782EC72E7A08031D7C2E7D2E862EFF
:101CFA000030F3000030F2000030F1000030F00054
:101D0A00FF2F7408F007750803110318013E031921
:101D1A008F2EF107760803110318013E0319962E38
:101D2A00F207770803110318013E03199D2EF307E2
:101D3A00731CA02EA12E7F2F7B1CA42EA52EB02EA5
:101D4A007B0883120313A0000310200C0138A100A2
:101D5A002108FB00B22E0310FB0C701CB52EB62E08
:101D6A00B72EFB17013083120313A000730DF30C77
:101D7A00F20CF10CF00CA00BBB2E0130A0002008D5
:101D8A00FA077F2F7308803AFF007708803A7F02AC
:101D9A00031DD92E76087202031DD92E7508710209
:101DAA00031DD92E740870020318DC2EDD2E372F7E
:101DBA00FF3083120313A000FF30A100FF30A200FE
:101DCA00FF30A3007408A4007508A5007608A600D1
:101DDA007708A7007008A4027108031C710FF62E79
:101DEA00F72EA5027208031C720FFC2EFD2EA60206
:101DFA007308031C730F022F032FA7022408A007DE
:101E0A0025080318250F0A2F0B2FA10726080318E8
:101E1A00260F102F112FA20727080318270AA30736
:101E2A002308F3002208F2002108F1002008F0003C
:101E3A008030A0002008F806FB09FB0A7B08031D76
:101E4A00272F282F452F0130F007003003180130C3
:101E5A00F107003003180130F2070030031801308F
:101E6A00F307452F7408F0027508031C750FF10279
:101E7A007608031C760FF2027708031C770FF30229
:101E8A007308720471047004031D4C2F4D2F7B2FAD
:101E9A007B08031D512F522F7B2F0030F300003097
:101EAA00F2000030F1000030F000FF2F0130831201
:101EBA000313A0000310F00DF10DF20DF30DA00BAA
:101ECA005F2FFB1F692F6A2F6B2F70147B1C6E2FDD
:101EDA006F2F722F0314FB0D742F0310FB0D7A085A
:101EEA000319782F792F7B2F0130FA02F21F7E2FE8
:101EFA007F2F5B2FF901FB1F832F842F922F7B08E3
:101F0A007F390319892F8A2F8D2FF901F90A922F08
:101F1A00701C902F912F922F8A2F79080319962FD0
:101F2A00972FCD2F0130F007003003180130F10749
:101F3A00003003180130F207003003180130F307AC
:101F4A00731CA82FA92FCD2F700883120313A0008A
:101F5A007108A1007208A2007308A3000130A4004E
:101F6A00230DA30CA20CA10CA00CA40BB52F2308C3
:101F7A00F3002208F2002108F1002008F0007A0A92
:101F8A000319C82FC92FCD2F0130A0002008FA0746
:101F9A007A0A0319D12FD22FD72F7A08031DD62FE9
:101FAA00D72FE52F0030F3000030F2000030F100A7
:101FBA000030F0007A08031DE32FE42FE52FF80123
:101FCA007A1CE82FE92FEB2FF217F12F7F308312BB
:101FDA000313A0002008F2057A0883120313A00055
:101FEA000310200CA1002108F300F81FFD2FFE2F7B
:101FFA00FF2FF3170800FF1B0A2883137F18831784
:10200A000008840A0319FF0A080010308A0004082D
:10201A00840A820700340D34203476346F346C34E9
:10202A00743461346A346534203431343A342034B7
:10203A000D3400340D34203476346F346C347434F7
:10204A0061346A346534203432343A3420340D34FD
:10205A0000340D34203443346F346E3474346134B4
:10206A0064346F3472343A3420340D3400345334C7
:10207A0031343A340034533432343A340034533439
:0A208A0033343A3400345634003485
:10256600F0007008831203138600080064008001DF
:10257600840A0406031900340406BA2AF0008312FA
:1025860003130C1EC72AC82AC22A7008990008001D
:1025960000300A168A1101230A168A1101300A161A
:1025A6008A1101230A168A1108007E088A007F080C
:1025B60082000A168A11D8220A168A118000840A15
:1025C60004087D0603190034FF0A0319FE0ADC2AF3
:1025D600F20083120313091472080A168A11B32231
:1025E6000A168A118312031309150630F100F10B3E
:1025F600FA2A00008312031309110800F30083125C
:102606000313091073080A168A11B3220A168A11CF
:102616008312031309150B30F2006230F100F10B3F
:10262600122BF20B122B0000831203130911080060
:10263600803083120313B5063908F3003808F20018
:102646003708F1003608F0003508F7003408F600C0
:102656003308F5003208F4000A128A1568250A16AE
:102666008A11730883120313B5007208B400710847
:10267600B3007008B2000800F6007603031D442B71
:10268600452B512B74087F3EF5007508F700770837
:102696000A168A1101230A168A11622B023076065F
:1026A600031D562B572B622B7408BF3EF500750889
:1026B600F70077080A168A1101230A168A110800FC
:1026C600F800F401F5017008F200F3017208F60053
:1026D6007308F700781C702B712B772B7608F4079C
:1026E6000318F50A7708F50701300310F60DF70D04
:1026F600FF3E031D782B0310F80C7808031D842B6E
:10270600852B6D2B7508F1007408F0000800FB019D
:10271600FC0183120313201C912B922B982B220869
:10272600FB070318FC0A2308FC0701300310A20D5F
:10273600A30DFF3E031D992B01300310A10CA00C25
:10274600FF3E031DA02B20082104031DAB2BAC2B41
:102756008C2B7C08A1007B08A000080003308316A0
:102766000317880089010330831603138500860149
:102776008801890183120313850186018801890175
:1027860007300A168A1186240A168A11F0010330C8
:10279600F6007608F100F20102300A168A11422587
:1027A6000A168A11831603131812181583160317AF
:1027B6008715CF308316031399009A0183120313EA
:1027C6009817181318168316031398168B170B17DA
:1027D6008C160C16831203130C128C120800F801C7
:1027E600F901172C78087307F6007408F50003182A
:1027F600F50AF81FFF2BF5037508F7007708831213
:102806000313FF00760884000A168A1100200A16B0
:102816008A110A168A11EB220A168A110130F80764
:102826000318F90A0030F90778087307F6007408E8
:10283600F5000318F50AF81F212CF5037508F700B3
:10284600770883120313FF00760884000A168A119C
:1028560000200A168A11003A031D322C332CF52B60
:1028660008007330F3007308F7006B2C25307906E7
:1028760003193E2C3F2C462C79080A168A11C122D0
:102886000A168A116B2C4E2C79080A168A11C12257
:102896000A168A116B2C7208F4007108F300F10A0B
:1028A6000319F20A7408FF00730884000A168A11D5
:1028B60000200A168A11F900F500F6017608003A9A
:1028C6000319662C472C7508003A0319852C472CEA
:1028D6007208F4007108F300F10A0319F20A740889
:1028E60083120313FF00730884000A168A1100205E
:1028F6000A168A11F5007508F9007908031D842C5B
:10290600852C392C0800F200BA2C8F30831603135D
:102916008F05D92C831603130F088F3910388F00B3
:10292600D92C8F30831603138F05D92C83160313E6
:102936000F088F3910388F00D92C831603130F0810
:102946008F3940388F00D92C831603130F088F391F
:1029560050388F00D92C7030831603138F04D92C6E
:10296600831603130F088F3960388F00D92C72082D
:10297600F000F1017108003A0319C22CB32C70085B
:10298600003A0319882C013A03198D2C033A0319CE
:10299600942C013A0319992C073A0319A02C013AF1
:1029A6000319A72C023A0319AE2CB32C0F140800F6
:1029B600F601F11FDF2CE02CE72CF009F109F00AF3
:1029C6000319F10AF601F60AF31FEA2CEB2CF42C94
:1029D600F209F309F20A0319F30A0130F400740844
:1029E600F606F701F801700871040319FB2CFC2C9C
:1029F600332DF501F50A0A2D01300310F00DF10D06
:102A0600FF3E031D002D0130F4007408F507F11F89
:102A16000D2D0E2DFF2C01300310F70DF80DFF3E86
:102A2600031D0F2D71087302031D1B2D7008720202
:102A3600031C1E2D1F2D262D7008F2027108031C83
:102A4600F303F302771401300310F10CF00CFF3E90
:102A5600031D272D0130F502031D322D332D0E2DBA
:102A660076080319372D382D3D2DF709F809F70A91
:102A76000319F80A7808F1007708F0000800F50055
:102A8600831203131F14572D3F309F056D2D1F080A
:102A96003F3940389F006D2D1F083F3980389F0011
:102AA6006D2DC0309F046D2D7508F300F401740878
:102AB600003A03195F2D6D2D7308003A0319472D4F
:102AC600013A03194A2D033A03194F2D013A031906
:102AD600542D6D2D7208031D712D722D762D8316C2
:102AE60003139F13792D831603139F177003031D7A
:102AF6007D2D7E2D972D0C17831203130C13972D06
:102B0600831603131F169F12AA2D831603131F1273
:102B16009F16AA2D831603131F169F16AA2D83161A
:102B260003131F129F12AA2D7108F300F4017408F3
:102B3600003A03199F2D922D7308003A0319832D2D
:102B4600013A0319882D033A03198D2D922D080099
:102B5600F200E52D831603170814192E83160317A2
:102B66008814192E831603170815192E83160317B2
:102B76008815192E831603170816192E83160317A0
:102B86008816192E831603170817192E831603178E
:102B96008817192E831603170914192E831603177F
:102BA6008914192E831603170915192E8316031770
:102BB6008915192E831603170916192E831603175E
:102BC6008916192E7208F000F1017108003A0319EE
:102BD600ED2D192E7008003A0319AD2D013A03198F
:102BE600B12D033A0319B52D013A0319B92D073A48
:102BF6000319BD2D013A0319C12D033A0319C52D39
:102C0600013A0319C92D0F3A0319CD2D013A0319BB
:102C1600D12D033A0319D52D013A0319D92D073AB7
:102C26000319DD2D013A0319E12D192E08004E3046
:102C3600FB00EB30FA00FA0B1E2EFB0B1E2E0130AA
:102C4600F1008030F2000A168A1134240A168A111D
:102C56004E30FB00EB30FA00FA0B2F2EFB0B2F2E1B
:102C6600CE30F1000030F2000A168A1134240A161A
:102C76008A114E30FB00EB30FA00FA0B402EFB0BAC
:102C8600402E1030F1008030F2000A168A113424EA
:102C96000A168A114E30FB00EB30FA00FA0B512E61
:102CA600FB0B512EC430F1000030F2000A168A11D7
:102CB60034240A168A114E30FB00EB30FA00FA0B68
:102CC600622EFB0B622E4E30FB00EB30FA00FA0B45
:102CD6006A2EFB0B6A2E1F30F1008030F2000A16B6
:102CE6008A1134240A168A114E30FB00EB30FA00A2
:102CF600FA0B7B2EFB0B7B2EBA30F1000030F20074
:102D06000A168A1134240A168A114E30FB00EB305B
:102D1600FA00FA0B8C2EFB0B8C2E2B30831203132E
:102D26001A06031D972E982EA22E0130FA007A0855
:102D360083160313B607831203139A01AD2E2D30A3
:102D46001A06031DA72EA82EAD2E013083160313D7
:102D5600B6029E2E080000307005F800003071059E
:102D6600F90080307205FA007F307305FB007B089E
:102D76007A0479047804031DC12EC22ECA2E0030AF
:102D8600F3000030F2000030F1000030F0000030B7
:102D96007405F80000307505F90080307605FA00F4
:102DA6007F307705FB007B087A0479047804031DDD
:102DB600DD2EDE2EE62E0030F7000030F600003065
:102DC600F5000030F400F31FE92EEA2E0E2F003036
:102DD600F8000030F9000030FA008030FB0070087F
:102DE600F8027108031C710FF92EFA2EF902720807
:102DF600031C720FFF2E002FFA027308031C730FB9
:102E0600052F062FFB027B08F3007A08F2007908EB
:102E1600F1007808F000F71F112F122F362F00301F
:102E2600F8000030F9000030FA008030FB0074082A
:102E3600F8027508031C750F212F222FF902760858
:102E4600031C760F272F282FFA027708031C770F0B
:102E56002D2F2E2FFB027B08F7007A08F600790843
:102E6600F5007808F4008030F3068030F70677081E
:102E76007302031D482F76087202031D482F75083A
:102E86007102031D482F7408700203184B2F4C2F34
:102E96004E2F03104F2F03140800F200BE2FC3302D
:102EA600831203139F05F82F831203131F08C339D8
:102EB60004389F00F82F831203131F08C3392038E4
:102EC6009F00F82F831203131F08C33924389F006D
:102ED600F82FC330831203139F05F82F83120313B1
:102EE6001F08C33904389F00F82F831203131F08E5
:102EF600C33920389F00F82F831203131F08C339E4
:102F060024389F00F82F831203131F08C339203873
:102F16009F00F82F831203131F08C33924389F001C
:102F2600F82F831203131F08C33908389F00F82FA0
:102F3600831203131F08C3390C389F00F82F83121E
:102F460003131F08C33930389F00F82F8312031369
:102F56001F08C33934389F00F82F831203131F0844
:102F6600C33918389F00F82F831203131F08C3397B
:102F76001C389F00F82F7208F000F1017108003A22
:102F86000319C62FF82F7008003A0319522F013A79
:102F96000319572F033A03195E2F013A0319652FB8
:102FA600073A03196C2F013A0319712F033A0319D3
:102FB600782F013A03197F2F0F3A0319862F013A0A
:102FC60003198D2F033A0319942F013A03199B2FE6
:102FD600073A0319A22F013A0319A92F033A031935
:102FE600B02F013A0319B72FF82F0D30F000F00B70
:0A2FF600FA2F831203139F14080042
:04400E00C430FF3F7C
:00000001FF
