:020000040000FA
:060000000A128A11E32F31
:100008003F3406345B344F3466346D347D34073402
:100018007F34673477347C3439345E3479347134DE
:100028000310720D730DF4007408FA007A08031DAA
:100038001E281F2828280030F3000030F200003066
:10004800F1000030F0008D287008F4007108F50008
:100058007208F6007308F7001F300310F70CF60C4F
:10006800F50CF40CFF3E031D31287408F8007808DD
:10007800F900F217FF30F005FF30F105FF30F20507
:100088000030F3059630FA02FA1F4B284C286628F0
:100098007A08803A973E03185228532854281F2874
:1000A80001300310F30CF20CF10CF00CFF3E031DB1
:1000B80055280130F4007408FA07031D64286528E0
:1000C80054287D2820307A02031C6B286C28782855
:1000D8001F280130F4000310F00DF10DF20DF30D9F
:1000E800F40B6F280130FA027A08031D7C287D285A
:1000F8006D2879080319812882288D28F009F109CB
:10010800F209F309F00A0319F10A0319F20A0319AB
:10011800F30A0800831203134F088039D4005408E7
:10012800D9004F08D4005407D5005508DF00CE1F6A
:100138009E289F28A0285F145F080319A428A528D3
:10014800B4285F0A031DA928AA28B2280030CF00C6
:100158000030CE000030CD000030CC00CE17BC28D7
:100168000030CF000030CE000030CD000030CC0091
:1001780053088039D4005408D9065308D4005407CA
:10018800D5005508DE00D21FCA28CB28CC285E141B
:100198005E080319D028D128E0285E0A031DD52857
:1001A800D628DE280030D3000030D2000030D1003D
:1001B8000030D000D217E8280030D3000030D20039
:1001C8000030D1000030D0005E080319EC28ED287B
:1001D800F2285F08031DF128F228FB280030CF0021
:1001E8000030CE000030CD000030CC00EE2B4C08A3
:1001F800D4005408F00052080A168A111D240A1265
:100208008A11710883120313E5007008E40064087A
:10021800D400D501D601D7015708DD005608DC0007
:100228005508DB005408DA006508D400D501D6016A
:10023800D7015708E3005608E2005508E1005408C2
:10024800E0004D08D4005408F00051080A168A113D
:100258001D240A128A11710883120313E50070081D
:10026800E4006408D400D501D601D7015408DA07A0
:10027800550803110318013E03194329DB075608E3
:1002880003110318013E03194A29DC075708031113
:100298000318013E03195129DD076508D400D5016B
:1002A800D601D7015408E007550803110318013E89
:1002B80003195F29E107560803110318013E0319C2
:1002C8006629E207570803110318013E03196D292F
:1002D800E3074E08D4005408F00050080A168A11A3
:1002E8001D240A128A11710883120313E50070088D
:1002F800E4006408D400D501D601D7015408DA0710
:10030800550803110318013E03198B29DB0756080A
:1003180003110318013E03199229DC07570803113A
:100328000318013E03199929DD076508D400D50192
:10033800D601D7015408E007550803110318013EF8
:100348000319A729E107560803110318013E0319E9
:10035800AE29E207570803110318013E0319B5290E
:10036800E3070830D4000310DA0DDB0DDC0DDD0DDA
:10037800D40BB7294D08D4005408F00050080A16C9
:100388008A111D240A128A11710883120313E500C9
:100398007008E4006408D4006508D500D601D701C8
:1003A8005408DA07550803110318013E0319DD291B
:1003B800DB07560803110318013E0319E429DC077B
:1003C800570803110318013E0319EB29DD074C08F0
:1003D800D4005408F00051080A168A111D240A1284
:1003E8008A11710883120313E5007008E400640899
:1003F800D4006508D500D601D7015408DA07550896
:1004080003110318013E03190A2ADB0756080311D2
:100418000318013E0319112ADC07570803110318B2
:10042800013E0319182ADD070830D4000310DA0D3D
:10043800DB0DDC0DDD0DD40B1A2A4C08D400540852
:10044800F00050080A168A111D240A128A11710830
:1004580083120313E5007008E4006408D4006508FB
:10046800D500D601D7015408DA0755080311031837
:10047800013E0319402ADB07560803110318013E01
:100488000319472ADC07570803110318013E03190B
:100498004E2ADD074D08D4005408F00052080A1609
:1004A8008A111D240A128A11710883120313E500A8
:1004B8007008E4006408D4006508D500D601D701A7
:1004C8005408E007550803110318013E03196D2A63
:1004D800E107560803110318013E0319742AE207BD
:1004E800570803110318013E03197B2AE3074E0836
:1004F800D4005408F00051080A168A111D240A1263
:100508008A11710883120313E5007008E400640877
:10051800D4006508D500D601D7015408E00755086E
:1005280003110318013E03199A2AE107560803111B
:100538000318013E0319A12AE207570803110318FB
:10054800013E0319A82AE3074E08D4005408F00016
:1005580052080A168A111D240A128A117108831278
:100568000313E5007008E4006408D4006508D500AA
:10057800D601D70108300310D40DD50DD60DD70DEF
:10058800FF3E031DBF2A5408E0075508031103184E
:10059800013E0319D02AE107560803110318013E4A
:1005A8000319D72AE207570803110318013E031954
:1005B800DE2AE3075A08D4005B08D5005C08D60099
:1005C8005D08D70018300310D70CD60CD50CD40C06
:1005D800FF3E031DE72A5408E007550803110318D6
:1005E800013E0319F82AE107560803110318013ED2
:1005F8000319FF2AE207570803110318013E0319DC
:10060800062BE3070830D4000310DA0DDB0DDC0DF0
:10061800DD0DD40B082B5F085E07D400D501D50D7E
:100628005408823EE40055080318013EFF3EE500E9
:100638003A2B0130D4000310E00DE10DE20DE30D7B
:10064800D40B1F2BDD1F292B2A2B2B2B60140130D9
:10065800D4000310DA0DDB0DDC0DDD0DD40B2D2BD2
:10066800FF30E4070318E50AFF30E507E21F3D2BDA
:100678003E2B1D2BDE01DD1F422B432B5F2BFF3052
:100688005A05D400FF305B05D500FF305C05D60065
:100698007F305D05D70057085604550454040319E4
:1006A800562B572B5A2BDE01DE0A5F2B601C5D2B65
:1006B8005E2B5F2B572B5E080319632B642B952B3E
:1006C8000130E007003003180130E107003003185B
:1006D8000130E207003003180130E307631C752B73
:1006E800762B952B6008D4006108D5006208D600E7
:1006F8006308D7000130D800570DD70CD60CD50C9D
:10070800D40CD80B802B5708E3005608E200550894
:10071800E1005408E0000130E4070318E50A00305E
:10072800E5076508803AFF0080307F02031D9E2B95
:10073800FF306402031CA12BA22BAD2B7F30831248
:100748000313E3008030E2000030E1000030E000F5
:10075800E22B831203136508803AFF0080307F0282
:10076800031DB82B013064020318BB2BBC2BC82B0C
:10077800003083120313E3000030E2000030E10090
:100788000030E000D901E22B831203136408D4007F
:100798005408DF00FF30E005FF30E1057F30E20557
:1007A8000030E3055F1CD92BDA2BDB2BE2175F083F
:1007B800D4000310540CD5005508E3005908D400A0
:1007C8005408E3046308CF006208CE006108CD0036
:1007D8006008CC00080083160313CF0083120313AC
:1007E8006908F3006808F2006708F1006608F0007D
:1007F8000A128A1114200A128A1171088316031327
:10080800CC007008CB00D601D701D401D501013046
:10081800D8000030D900831203136908F300680870
:10082800F2006708F1006608F0000030F7000030B9
:10083800F6000030F5000030F4000A168A115E2731
:100848000A128A110318292C2A2C782CBF308312FB
:100858000313CF008030CE000030CD000030CC0034
:100868006908D3006808D2006708D1006608D0007C
:100878000A128A118E200A128A11831203134F0852
:10088800E9004E08E8004D08E7004C08E6002D3066
:10089800EC00831603134F088400831203136C08BB
:1008A80083138000013083160313D4070318D50A75
:1008B8000030D507782C0A30F0000030F1004C08E1
:1008C800F3004B08F2000A168A111F260A128A1131
:1008D800710883160313CC007008CB000130D607CB
:1008E8000318D70A0030D707831603134B084C04A4
:1008F800031D7F2C802C5F2C9C2D56035704031D51
:10090800862C872C8C2C0130D8000030D900CE2CB6
:100918000230CD000030CE00B82C831603135908DE
:1009280083120313A10083160313580883120313B9
:10093800A0000A30A2000030A3000A168A1144243D
:100948000A128A1183120313210883160313D9008C
:1009580083120313200883160313D8000130CD0730
:100968000318CE0A0030CE075708803A83120313C3
:10097800EC00831603134E08803A831203136C02AB
:10098800031DCA2C831603134D0856020318CD2CD9
:10099800CE2C912C83160313580883120313A4003A
:1009A80083160313590883120313A5000030A51BEF
:1009B800FF30A600A70001300A128A15BF200A12CC
:1009C8008A11831203132708B5002608B4002508E6
:1009D800B3002408B2006908B9006808B8006708BD
:1009E800B7006608B6000A128A157B210A128A1116
:1009F80083120313350883160313D30083120313DA
:100A0800340883160313D2008312031333088316A2
:100A18000313D10083120313320883160313D00083
:100A2800590883120313A30083160313580883126B
:100A38000313A200831603135308F3005208F200AD
:100A48005108F1005008F0000A128A1114200A1205
:100A58008A11710883120313A1007008A0000A16F6
:100A68008A1144240A128A11831203132008A4004D
:100A78002108A5000030A51BFF30A600A700013003
:100A88000A128A15BF200A128A1183120313270833
:100A9800B5002608B4002508B3002408B200690888
:100AA800B9006808B8006708B7006608B6000A16F3
:100AB8008A11D5230A128A11831203133508E90013
:100AC8003408E8003308E7003208E6008316031309
:100AD8005308F3005208F2005108F1005008F000E2
:100AE8000A128A1114200A128A117008303E8312E1
:100AF8000313EC008316031354084F0783120313E0
:100B0800ED006D0884006C088313800001308316A3
:100B18000313D4070318D50A0030D507FF30D607CA
:100B28000318D70AFF30D7070130D8000030D900A2
:100B380056085704031DA12DA22D812C2E30831297
:100B48000313EC008316031354084F07831203138F
:100B5800ED006D0884006C08831380000130831653
:100B68000313D4070318D50A0030D5070130CD0088
:100B78000030CE00E62D83160313590883120313A1
:100B8800A10083160313580883120313A0000A3028
:100B9800A2000030A3000A168A1144240A128A11FE
:100BA80083120313210883160313D9008312031336
:100BB800200883160313D8000130CD070318CE0A86
:100BC8000030CE07831203136B08803AEC008316BB
:100BD80003134E08803A831203136C02031DFA2D87
:100BE800831603134D08831203136A020318FD2D9D
:100BF800FE2DBF2D83160313580883120313A40078
:100C080083160313590883120313A5000030A51B8C
:100C1800FF30A600A70001300A128A15BF200A1269
:100C28008A11831203132708CF002608CE0025084F
:100C3800CD002408CC006908F3006808F2006708B2
:100C4800F1006608F0000A128A1114200A128A11AB
:100C5800700883120313A4007108A5000030A51BB7
:100C6800FF30A600A70001300A128A15BF200A1219
:100C78008A11831203132708B5002608B400250833
:100C8800B3002408B2006908B9006808B80067080A
:100C9800B7006608B6000A168A11D5230A128A1107
:100CA800831203133508D3003408D2003308D10067
:100CB8003208D0000A128A118E200A128A11831271
:100CC80003134F0883160313D300831203134E082C
:100CD80083160313D200831203134D0883160313DC
:100CE800D100831203134C0883160313D000530852
:100CF80083120313E90083160313520883120313A4
:100D0800E80083160313510883120313E7008316C0
:100D18000313500883120313E6006908F3006808F8
:100D2800F2006708F1006608F0000A128A11142020
:100D38000A128A11013083160313D8000030D90033
:100D4800831203136B0883160313D700831203134C
:100D58006A0883160313D600CC2F56035704031DC5
:100D6800B62EB72EBC2E0130D8000030D900FE2E8A
:100D78000230CD000030CE00E82E83160313590848
:100D880083120313A1008316031358088312031355
:100D9800A0000A30A2000030A3000A168A114424D9
:100DA8000A128A1183120313210883160313D90028
:100DB80083120313200883160313D8000130CD07CC
:100DC8000318CE0A0030CE075708803A831203135F
:100DD800EC00831603134E08803A831203136C0247
:100DE800031DFA2E831603134D0856020318FD2E11
:100DF800FE2EC12E83160313580883120313A40072
:100E080083160313590883120313A5000030A51B8A
:100E1800FF30A600A70001300A128A15BF200A1267
:100E28008A11831203132708B5002608B400250881
:100E3800B3002408B2006908B9006808B800670858
:100E4800B7006608B6000A128A157B210A128A11B1
:100E580083120313350883160313D3008312031375
:100E6800340883160313D20083120313330883163E
:100E78000313D10083120313320883160313D0001F
:100E8800590883120313A300831603135808831207
:100E98000313A200831603135308F3005208F20049
:100EA8005108F1005008F0000A128A1114200A12A1
:100EB8008A11710883120313A1007008A0000A1692
:100EC8008A1144240A128A11831203132008A400E9
:100ED8002108A5000030A51BFF30A600A70001309F
:100EE8000A128A15BF200A128A11831203132708CF
:100EF800B5002608B4002508B3002408B200690824
:100F0800B9006808B8006708B7006608B6000A168E
:100F18008A11D5230A128A11831203133508E900AE
:100F28003408E8003308E7003208E60083160313A4
:100F38005308F3005208F2005108F1005008F0007D
:100F48000A128A1114200A128A117008303E83127C
:100F58000313EC008316031354084F07831203137B
:100F6800ED006D0884006C0883138000013083163F
:100F78000313D4070318D50A0030D507FF30D60766
:100F88000318D70AFF30D7070130D8000030D9003E
:100F980056085704031DD12FD22FB12E0A308312C1
:100FA8000313EC008316031354084F07831203132B
:100FB800ED006D0884006C0883138000080083131B
:100FC800EE30FD000030FE000430FF00DE3084000B
:100FD8000A168A1196230A128A11A0308400CB308F
:100FE8000A168A1180230A128A11EE01EF01FD0107
:080FF80083010A128A15582B2F
:1010040000300A168A11BB230A128A1501300A1607
:101014008A11BB230A128A150800F2007D28C33006
:10102400831203139F05B728831203131F08C339C0
:1010340004389F00B728831203131F08C3392038CC
:101044009F00B728831203131F08C33924389F0055
:10105400B728C330831203139F05B72883120313E1
:101064001F08C33904389F00B728831203131F08CD
:10107400C33920389F00B728831203131F08C339CC
:1010840024389F00B728831203131F08C33920385C
:101094009F00B728831203131F08C33924389F0005
:1010A400B728831203131F08C33908389F00B728D1
:1010B400831203131F08C3390C389F00B728831207
:1010C40003131F08C33930389F00B7288312031352
:1010D4001F08C33934389F00B728831203131F082D
:1010E400C33918389F00B728831203131F08C33964
:1010F4001C389F00B7287208F000F1017108003A0B
:1011040003198528B7287008003A03191128013AF1
:1011140003191628033A03191D28013A0319242830
:10112400073A03192B28013A03193028033A031903
:101134003728013A03193E280F3A03194528013A82
:1011440003194C28033A03195328013A03195A285E
:10115400073A03196128013A03196828033A031965
:101164006F28013A03197628B7280D30F000F00BE8
:10117400B928831203139F14080083120313AC00CD
:101184002C080319C628C728DB28A71FCA28CB2880
:10119400DB282409AE002509AF002609B000270981
:1011A400B100AE0A0319AF0A0319B00A0319B10A50
:1011B400E3282708B1002608B0002508AF0024085A
:1011C400AE002708260425042404031DEA28EB287E
:1011D400F4280030A7000030A6000030A50000303D
:1011E400A4007A299630A8002808AD000629013009
:1011F400A8002808AD0701300310B10CB00CAF0CE7
:10120400AE0CFF3E031DFE28FE303105031D0B29E5
:101214000C29F92828290130A8002808AD07013035
:10122400AE07003003180130AF0700300318013057
:10123400B007003003180130B10701300310B10CBE
:10124400B00CAF0CAE0CFF3E031D2029FF3031055E
:10125400031D2D292E290D293A290130AD02013013
:10126400A8000310AE0DAF0DB00DB10DA80B3329BE
:10127400B01B3D293E29442902302D02031843297D
:1012840044292F292D18472948295029FF30AE0514
:10129400FF30AF057F30B005FF30B1050310AD0C52
:1012A4002D08A800A901AA01AB0118300310A80D4C
:1012B400A90DAA0DAB0DFF3E031D58292808AE0445
:1012C4002908AF042A08B0042B08B1042C08031918
:1012D4006C296D297229A71F702971297229B117E8
:1012E4003108A7003008A6002F08A5002E08A40086
:1012F40008008312031339088039BA003A08C3007E
:101304003908BA003A07BB003B08CA00B81F8B294A
:101314008C298D294A144A08031991299229A22952
:101324004A0A031D962997299F290030B9000030E5
:10133400B8000030B7000030B600B817B901AA29C8
:101344000030B9000030B8000030B7000030B600FB
:1013540035088039BA003A08C3063508BA003A0796
:10136400BB003B08CB00B41FB829B929BA294B14D8
:101374004B080319BE29BF29CF294B0A031DC329D2
:10138400C429CC290030B5000030B4000030B300CB
:101394000030B200B417B501D7290030B5000030D1
:1013A400B4000030B3000030B20035083404330414
:1013B4003204031DDE29DF29F8290030B90000308A
:1013C400B8000030B7000030B6008030B8047F3079
:1013D400B9044308BA003A08B9043908B500380812
:1013E400B4003708B3003608B200572B4A08031D6F
:1013F400FC29FD29062A0030B5000030B400003075
:10140400B3000030B200572B4A08BA00BB013B08B6
:10141400BD004B083A02BC00031CBD033C087F3EE0
:10142400C4003D080318013E003EC5003908C2004F
:101434003808C1003708C0003608BF000030B900C2
:101444000030B8000030B7000030B6000030C900EA
:101454000030C8000030C7000030C600CB017C2A31
:101464004B080319362A372A572A0130BA000310C9
:10147400BF0DC00DC10DC20DBA0B392A0130BA001F
:101484000310B60DB70DB80DB90DBA0B422AC91F1A
:101494004C2A4D2A4E2A36140130BA000310C60DC8
:1014A400C70DC80DC90DBA0B502A35084202031DD9
:1014B400652A34084102031D652A33084002031DCE
:1014C400652A32083F02031C682A692A782A4917C8
:1014D4003208BF023308031C330FC0023408031C54
:1014E400340FC1023508031C350FC2020130BA00A3
:1014F4003A08CB071A304B02031C812A822A322A6B
:101504004208410440043F040319892A8A2AA92A6B
:101514004614A92A0130BA000310B60DB70DB80D50
:10152400B90DBA0B8E2AC91F982A992A9A2A3614F9
:101534000130BA000310C60DC70DC80DC90DBA0B92
:101544009C2AFF30C4070318C50AFF30C507B81F1B
:10155400AC2AAD2A8C2ACB01C91FB12AB22ACE2AC1
:10156400FF304605BA00FF304705BB00FF30480591
:10157400BC007F304905BD003D083C043B043A04EF
:101584000319C52AC62AC92ACB01CB0ACE2A361C7E
:10159400CC2ACD2ACE2AC62A4B080319D22AD32A0A
:1015A400042B0130B607003003180130B7070030B0
:1015B40003180130B807003003180130B907391C8B
:1015C400E42AE52A042B3608BA003708BB00380899
:1015D400BC003908BD000130BE003D0DBD0CBC0C83
:1015E400BB0CBA0CBE0BEF2A3D08B9003C08B8008E
:1015F4003B08B7003A08B6000130C4070318C50A0F
:101604000030C5074508803AFF0080307F02031D83
:101614000D2BFF304402031C102B112B1F2BFF300A
:1016240083120313C4000030C5000030B900003039
:10163400B8000030B7000030B60083120313450829
:10164400803AFF0080307F02031D2A2B01304402C0
:1016540003182D2B2E2B3B2B83120313C401C5011E
:101664000030B9000030B8000030B7000030B600D8
:10167400C301831203134408BA003A08CA004A1C7F
:10168400442B452B472BB8174B2B7F30BA003A0815
:10169400B8054A08BA0003103A0CBB003B08B9006D
:1016A4004308BA003A08B904EF2908000A168A1157
:1016B4006B240A128A150A168A11EE240A128A1554
:1016C40000300A168A11EF260A128A1501300A160A
:1016D4008A11EF260A128A1500300A128A150F2081
:1016E4000A128A150A128A1502200A128A15F401AE
:1016F400F40A01300A168A11F9230A128A151F30D6
:10170400F3008030F4000A168A11AC240A128A15F8
:10171400083083160313DA005A08F40001300A165D
:101724008A11F9230A128A152330F3008030F40059
:101734000A168A11AC240A128A150F308316031371
:10174400DA005A08F40001300A168A11F9230A1241
:101754008A152730F3008030F4000A168A11AC246D
:101764000A128A150A168A1133250A128A15831257
:1017740003130C1FBE2BBF2BEC2B6F08031DC32BB5
:10178400C42BD92B1E0883160313DA005A08FD0054
:1017940000300A128A150F200A128A1501308316A6
:1017A4000313DA005A0883120313EF07EB2B1E0806
:1017B40083160313DA005A0883120313EE00013070
:1017C4000A128A150F200A128A1501308312031394
:1017D400EF020C13F401F40A02300A168A11F923F9
:1017E4000A128A15C130F3000030F4000A168A1177
:1017F400AC240A128A15053083160313DA005A083A
:10180400F40002300A168A11F9230A128A152B30C1
:10181400F3008030F4000A168A11AC240A128A15E7
:10182400073083160313DA005A08F40002300A164C
:101834008A11F9230A128A15B730F3000030F40034
:101844000A168A11AC240A128A150B308316031364
:10185400DA005A08F40002300A168A11F9230A122F
:101864008A152B30F3008030F4000A168A11AC2458
:101874000A128A15003083160313B1000030B00039
:101884000030AF000030AE000030AD000030AC00DE
:101894000030AB000030AA00403083120313CF00A5
:1018A400A030CE000030CD000030CC004330B50075
:1018B4007F30B4000030B3000030B2007D088316DE
:1018C4000313DA00DB01DC01DD015D08831203137D
:1018D400A700831603135C0883120313A600831660
:1018E40003135B0883120313A500831603135A081A
:1018F40083120313A40001300A128A15BF200A12AE
:101904008A15831203132708B9002608B80025088E
:10191400B7002408B6000A128A157B210A128A1518
:10192400831203133508D3003408D2003308D100DE
:101934003208D0000A128A118E200A128A158312E4
:1019440003134F0883160313B100831203134E08C5
:1019540083160313B000831203134D088316031375
:10196400AF00831203134C0883160313AE0031082F
:1019740083120313E900831603133008831203133D
:10198400E800831603132F0883120313E70083165A
:1019940003132E0883120313E6000230EA0000301A
:1019A400EB00C1300A128A11EF230A128A15403063
:1019B40083120313CF00A030CE000030CD000030DE
:1019C400CC004330B5007F30B4000030B3000030A9
:1019D400B2006E0883160313DA00DB01DC01DD01BB
:1019E4005D0883120313A700831603135C08831294
:1019F4000313A600831603135B0883120313A500C5
:101A0400831603135A0883120313A40001300A1225
:101A14008A15BF200A128A15831203132708B900F6
:101A24002608B8002508B7002408B6000A128A154B
:101A34007B210A128A15831203133508D300340854
:101A4400D2003308D1003208D0000A128A118E2045
:101A54000A128A15831203134F0883160313AD0069
:101A6400831203134E0883160313AC00831203136B
:101A74004D0883160313AB00831203134C0883161B
:101A84000313AA002D0883120313E900831603131A
:101A94002C0883120313E800831603132B08831204
:101AA4000313E700831603132A0883120313E600C3
:101AB4000230EA000030EB00B7300A128A11EF233B
:101AC4000A128A15792B0A128A11002873088039A0
:101AD40083120313A0002008F8007308A000200755
:101AE400A1002108FA00F21F782D792D7A2D7A149D
:101AF4007A0803197E2D7F2D8F2D7A0A031D832DDD
:101B0400842D8C2D0030F3000030F2000030F10001
:101B14000030F000F217F301972D0030F30000308D
:101B2400F2000030F1000030F00077088039A000A6
:101B34002008F900790878060319A12DA22DA32DF8
:101B440078177708A0002007A1002108F900F61FE4
:101B5400AC2DAD2DAE2D791479080319B22DB32D0A
:101B6400C32D790A031DB72DB82DC02D0030F70001
:101B74000030F6000030F5000030F400F617F701ED
:101B8400CB2D0030F7000030F6000030F5000030B7
:101B9400F4007A0879020318D02DD12D152E781F60
:101BA400D42DD52DD92D8030A0002008F8067A0830
:101BB400A0002008FB007908A0002008FA007B0898
:101BC400A0002008F9007008A0002008FB00740899
:101BD400A0002008F0007B08A0002008F400710891
:101BE400A0002008FB007508A0002008F1007B0875
:101BF400A0002008F5007208A0002008FB00760869
:101C0400A0002008F2007B08A0002008F60073085A
:101C1400A0002008FB007708A0002008F3007B0840
:101C2400A0002008F700FB017908A000A101210809
:101C3400A3007A082002A200031CA3032308803A0D
:101C4400FF0080307F02031D292E1A302202031C5C
:101C54002C2E2D2E6E2E7308720471047004031D35
:101C6400342E362E0130372E003083120313A00099
:101C74002008FB000030F3000030F2000030F100D7
:101C84000030F0007908A0002008FA00742E7B1CB4
:101C94004C2E4D2E582E7B0883120313A0000310E4
:101CA400200C0138A1002108FB005A2E0310FB0C64
:101CB400701C5D2E5E2E5F2EFB1701308312031302
:101CC400A000730DF30CF20CF10CF00CA00B632EBE
:101CD4000130A0002008FA0779087A02031C732E49
:101CE400742E492E781B772E782EC72E7A08031D62
:101CF4007C2E7D2E862E0030F3000030F200003062
:101D0400F1000030F000FF2F7408F007750803118C
:101D14000318013E03198F2EF107760803110318E7
:101D2400013E0319962EF207770803110318013EAA
:101D340003199D2EF307731CA02EA12E7F2F7B1C4D
:101D4400A42EA52EB02E7B0883120313A00003102B
:101D5400200C0138A1002108FB00B22E0310FB0C5B
:101D6400701CB52EB62EB72EFB1701308312031349
:101D7400A000730DF30CF20CF10CF00CA00BBB2EB5
:101D84000130A0002008FA077F2F7308803AFF0073
:101D94007708803A7F02031DD92E76087202031D4C
:101DA400D92E75087102031DD92E74087002031808
:101DB400DC2EDD2E372FFF3083120313A000FF30FB
:101DC400A100FF30A200FF30A3007408A40075082E
:101DD400A5007608A6007708A7007008A402710879
:101DE400031C710FF62EF72EA5027208031C720F46
:101DF400FC2EFD2EA6027308031C730F022F032F63
:101E0400A7022408A00725080318250F0A2F0B2F63
:101E1400A10726080318260F102F112FA207270841
:101E24000318270AA3072308F3002208F200210855
:101E3400F1002008F0008030A0002008F806FB091B
:101E4400FB0A7B08031D272F282F452F0130F0079D
:101E5400003003180130F107003003180130F20795
:101E6400003003180130F307452F7408F002750899
:101E7400031C750FF1027608031C760FF202770833
:101E8400031C770FF3027308720471047004031DBA
:101E94004C2F4D2F7B2F7B08031D512F522F7B2F4F
:101EA4000030F3000030F2000030F1000030F000A8
:101EB400FF2F013083120313A0000310F00DF10D66
:101EC400F20DF30DA00B5F2FFB1F692F6A2F6B2FF1
:101ED40070147B1C6E2F6F2F722F0314FB0D742F45
:101EE4000310FB0D7A080319782F792F7B2F01300B
:101EF400FA02F21F7E2F7F2F5B2FF901FB1F832F26
:101F0400842F922F7B087F390319892F8A2F8D2FD5
:101F1400F901F90A922F701C902F912F922F8A2F7A
:101F240079080319962F972FCD2F0130F007003031
:101F340003180130F107003003180130F2070030B4
:101F440003180130F307731CA82FA92FCD2F700895
:101F540083120313A0007108A1007208A200730881
:101F6400A3000130A400230DA30CA20CA10CA00C0F
:101F7400A40BB52F2308F3002208F2002108F10076
:101F84002008F0007A0A0319C82FC92FCD2F013079
:101F9400A0002008FA077A0A0319D12FD22FD72FCD
:101FA4007A08031DD62FD72FE52F0030F300003019
:101FB400F2000030F1000030F0007A08031DE32F36
:101FC400E42FE52FF8017A1CE82FE92FEB2FF21705
:101FD400F12F7F3083120313A0002008F2057A0842
:101FE40083120313A0000310200CA1002108F300A6
:101FF400F81FFD2FFE2FFF2FF3170800FF1B0A28E1
:1020040083137F1883170008840A0319FF0A080042
:1020140010308A000408840A820700340D34203406
:1020240076346F346C34743461346A3465342034F7
:1020340031343A3420340D3400340D3420347634C1
:102044006F346C34743461346A346534203432341B
:102054003A3420340D340034533431343A340034B7
:10206400533432343A340034533433343A3400344D
:0420740056340034AA
:1026F400F000700883120313860008006400800150
:10270400840A0406031900340406812BF0008312A2
:1027140003130C1E8E2B8F2B892B70089900080035
:102724007E088A007F0882000A168A1192230A16FC
:102734008A118000840A04087D0603190034FF0A04
:102744000319FE0A962BF20083120313091472086C
:102754000A168A117A230A168A1183120313091599
:102764000630F100F10BB42B00008312031309119E
:102774000800F30083120313091073080A168A1160
:102784007A230A168A118312031309150B30F200F7
:102794006230F100F10BCC2BF20BCC2B0000831236
:1027A400031309110800803083120313B506390896
:1027B400F3003808F2003708F1003608F000350855
:1027C400F7003408F6003308F5003208F4000A1262
:1027D4008A1568250A168A11730883120313B50033
:1027E4007208B4007108B3007008B2000800F60063
:1027F4007603031DFE2BFF2B0B2C74087F3EF50084
:102804007508F70077080A168A11BB230A168A117D
:102814001C2C02307606031D102C112C1C2C740861
:10282400BF3EF5007508F70077080A168A11BB2326
:102834000A168A110800F800F401F5017008F20084
:10284400F3017208F6007308F700781C2A2C2B2C6D
:10285400312C7608F4070318F50A7708F5070130D8
:102864000310F60DF70DFF3E031D322C0310F80C78
:102874007808031D3E2C3F2C272C7508F1007408A2
:10288400F0000800FB01FC0183120313201C4B2CF5
:102894004C2C522C2208FB070318FC0A2308FC07C3
:1028A40001300310A20DA30DFF3E031D532C013074
:1028B4000310A10CA00CFF3E031D5A2C2008210478
:1028C400031D652C662C462C7C08A1007B08A00007
:1028D4000800831603178801890103308316031344
:1028E400850086018701880189018312031385010C
:1028F40086018701880107300A168A11CA250A163B
:102904008A11F0010330F6007608F100F20102307A
:102914000A168A1186260A168A11831603131812B8
:102924001815831603178715CF30831603139900E0
:102934009A01831203139817181318168316031396
:1029440098168B170B178C160C16831203130C1284
:102954008C120800F801F901D12C78087307F600ED
:102964007408F5000318F50AF81FB92CF503750867
:10297400F700770883120313FF00760884000A1611
:102984008A1100200A168A110A168A11A5230A162A
:102994008A110130F8070318F90A0030F90778089A
:1029A4007307F6007408F5000318F50AF81FDB2C0A
:1029B400F5037508F700770883120313FF00760800
:1029C40084000A168A1100200A168A11003A031D8F
:1029D400EC2CED2CAF2C080000300A168A117A2357
:1029E4000A168A113430F500F130F400F40BF82C97
:1029F400F50BF82CFD2C30300A168A11BB230A166D
:102A04008A110D30F500FB30F400F40B072DF50BA3
:102A1400072D0C2D30300A168A11BB230A168A1191
:102A24001D30F5009130F400F40B162DF50B162D26
:102A340030300A168A11BB230A168A1138300A1656
:102A44008A11BB230A168A110C300A168A11BB2379
:102A54000A168A1106300A168A11BB230A168A112D
:102A640008004E30FB00EB30FA00FA0B372DFB0B5D
:102A7400372D0130F1008030F2000A168A117825D2
:102A84000A168A114E30FB00EB30FA00FA0B482D7F
:102A9400FB0B482DC130F1000030F2000A168A11F8
:102AA40078250A168A114E30FB00EB30FA00FA0B37
:102AB400592DFB0B592D1030F1008030F2000A160D
:102AC4008A1178250A168A114E30FB00EB30FA0081
:102AD400FA0B6A2DFB0B6A2DB730F1000030F200BF
:102AE4000A168A1178250A168A1108007330F30031
:102AF4007308F700AF2D253079060319822D832D35
:102B04008A2D79080A168A1188230A168A11AF2D8C
:102B1400922D79080A168A1188230A168A11AF2D74
:102B24007208F4007108F300F10A0319F20A740838
:102B3400FF00730884000A168A1100200A168A11FD
:102B4400F900F500F6017608003A0319AA2D8B2D39
:102B54007508003A0319C92D8B2D7208F400710809
:102B6400F300F10A0319F20A740883120313FF0035
:102B7400730884000A168A1100200A168A11F500C7
:102B84007508F9007908031DC82DC92D7D2D08008D
:102B9400F200FE2D8F30831603138F051D2E83162E
:102BA40003130F088F3910388F001D2E8F308316B2
:102BB40003138F051D2E831603130F088F39103846
:102BC4008F001D2E831603130F088F3940388F0092
:102BD4001D2E831603130F088F3950388F001D2EB6
:102BE4007030831603138F041D2E831603130F08EE
:102BF4008F3960388F001D2E7208F000F1017108C2
:102C0400003A0319062EF72D7008003A0319CC2D4B
:102C1400013A0319D12D033A0319D82D013A0319A6
:102C2400DD2D073A0319E42D013A0319EB2D023A7D
:102C34000319F22DF72D0F140800F601F11F232EAE
:102C4400242E2B2EF009F109F00A0319F10AF601DA
:102C5400F60AF31F2E2E2F2E382EF209F309F20A4C
:102C64000319F30A0130F4007408F606F701F801B9
:102C74007008710403193F2E402E772EF501F50AD2
:102C84004E2E01300310F00DF10DFF3E031D442EB6
:102C94000130F4007408F507F11F512E522E432E13
:102CA40001300310F70DF80DFF3E031D532E71087C
:102CB4007302031D5F2E70087202031C622E632EC2
:102CC4006A2E7008F2027108031CF303F3027714EE
:102CD40001300310F10CF00CFF3E031D6B2E01308C
:102CE400F502031D762E772E522E760803197B2EBD
:102CF4007C2E812EF709F809F70A0319F80A7808D7
:102D0400F1007708F0000800F500831203131F1484
:102D14009B2E3F309F05B12E1F083F3940389F003E
:102D2400B12E1F083F3980389F00B12EC0309F0458
:102D3400B12E7508F300F4017408003A0319A32EA8
:102D4400B12E7308003A03198B2E013A03198E2E03
:102D5400033A0319932E013A0319982EB12E7208DF
:102D6400031DB52EB62EBA2E831603139F13BD2E44
:102D7400831603139F177003031DC12EC22EDB2E6F
:102D84000C17831203130C13DB2E831603131F1665
:102D94009F12EE2E831603131F129F16EE2E831618
:102DA40003131F169F16EE2E831603131F129F1272
:102DB400EE2E7108F300F4017408003A0319E32EAF
:102DC400D62E7308003A0319C72E013A0319CC2EE4
:102DD400033A0319D12ED62E0800F200292F8316A8
:102DE400031708145D2F8316031788145D2F8316A9
:102DF400031708155D2F8316031788155D2F831697
:102E0400031708165D2F8316031788165D2F831684
:102E1400031708175D2F8316031788175D2F831672
:102E2400031709145D2F8316031789145D2F831666
:102E3400031709155D2F8316031789155D2F831654
:102E4400031709165D2F8316031789165D2F720861
:102E5400F000F1017108003A0319312F5D2F700859
:102E6400003A0319F12E013A0319F52E033A031916
:102E7400F92E013A0319FD2E073A0319012F013ADD
:102E84000319052F033A0319092F013A03190D2FCA
:102E94000F3A0319112F013A0319152F033A031995
:102EA400192F013A03191D2F073A0319212F013A4B
:102EB4000319252F5D2F080000307005F80000303D
:102EC4007105F90080307205FA007F307305FB004C
:102ED4007B087A0479047804031D712F722F7A2FEA
:102EE4000030F3000030F2000030F1000030F00058
:102EF40000307405F80000307505F900803076055F
:102F0400FA007F307705FB007B087A0479047804A3
:102F1400031D8D2F8E2F962F0030F7000030F60002
:102F24000030F5000030F400F31F992F9A2FBE2FC4
:102F34000030F8000030F9000030FA008030FB0067
:102F44007008F8027108031C710FA92FAA2FF90247
:102F54007208031C720FAF2FB02FFA027308031C00
:102F6400730FB52FB62FFB027B08F3007A08F2002B
:102F74007908F1007808F000F71FC12FC22FE62F5F
:102F84000030F8000030F9000030FA008030FB0017
:102F94007408F8027508031C750FD12FD22FF9029B
:102FA4007608031C760FD72FD82FFA027708031C54
:102FB400770FDD2FDE2FFB027B08F7007A08F6007F
:102FC4007908F5007808F4008030F3068030F706BD
:102FD40077087302031DF82F76087202031DF82F79
:102FE40075087102031DF82F740870020318FB2F73
:0C2FF400FC2FFE2F0310FF2F0314080019
:04400E00C430FF3F7C
:00000001FF
