:020000040000FA
:100000000A128A11E42FFF0000308A007F0882075D
:1000100008280A168A11722A83120313AB001428C7
:100020000130A6002608AB072B088400203083137C
:10003000000603191C281D2810282B0884000930ED
:1000400000060319242825281028A901AA01A801BF
:100050002B0884002D300006031D2F283028392856
:100060000130A6002608A8070130A6002608AB0725
:100070006B282B0884002B300006031D40284128E4
:100080006B280130A6002608AB076B2883120313E8
:100090002B0884002A08A1002908A0000A30A20029
:1000A0000030A3000A168A1141230A128A11831311
:1000B0000008831203132007A60000300318013044
:1000C0002107A7002608D03EA90027080318013EF3
:1000D000FF3EAA0041282B08840000080A168A1156
:1000E00094220A128A110318762877284628831248
:1000F0000313280803197D287E288A282909A600C9
:100100002A09A700A60A0319A70A2608A400270897
:10011000A5008E282A08A5002908A400080083123B
:1001200003134F088039D4005408D9004F08D40075
:100130005407D5005508DF00CE1F9F28A028A1280E
:100140005F145F080319A528A628B5285F0A031DB8
:10015000AA28AB28B3280030CF000030CE000030F2
:10016000CD000030CC00CE17BD280030CF000030CD
:10017000CE000030CD000030CC0053088039D400D0
:100180005408D9065308D4005407D5005508DE009A
:10019000D21FCB28CC28CD285E145E080319D128A5
:1001A000D228E1285E0A031DD628D728DF28003090
:1001B000D3000030D2000030D1000030D000D21780
:1001C000E9280030D3000030D2000030D1000030E8
:1001D000D0005E080319ED28EE28F3285F08031D00
:1001E000F228F328FC280030CF000030CE00003089
:1001F000CD000030CC00EF2B4C08D4005408F000A8
:1002000052080A168A111A230A128A1171088312D7
:100210000313E5007008E4006408D400D501D6019A
:10022000D7015708DD005608DC005508DB005408EC
:10023000DA006508D400D501D601D7015708E300DC
:100240005608E2005508E1005408E0004D08D400CB
:100250005408F00051080A168A111A230A128A114A
:10026000710883120313E5007008E4006408D400E9
:10027000D501D601D7015408DA0755080311031830
:10028000013E03194429DB07560803110318013EF8
:1002900003194B29DC07570803110318013E031902
:1002A0005229DD076508D400D501D601D7015408CD
:1002B000E007550803110318013E03196029E107FF
:1002C000560803110318013E03196729E20757086E
:1002D00003110318013E03196E29E3074E08D400E9
:1002E0005408F00050080A168A111A230A128A11BB
:1002F000710883120313E5007008E4006408D40059
:10030000D501D601D7015408DA075508031103189F
:10031000013E03198C29DB07560803110318013E1F
:1003200003199329DC07570803110318013E031929
:100330009A29DD076508D400D501D601D7015408F4
:10034000E007550803110318013E0319A829E10726
:10035000560803110318013E0319AF29E207570895
:1003600003110318013E0319B629E3070830D4002E
:100370000310DA0DDB0DDC0DDD0DD40BB8294D08B3
:10038000D4005408F00050080A168A111A230A12E1
:100390008A11710883120313E5007008E4006408F1
:1003A000D4006508D500D601D7015408DA075508EE
:1003B00003110318013E0319DE29DB075608031158
:1003C0000318013E0319E529DC0757080311031838
:1003D000013E0319EC29DD074C08D4005408F00055
:1003E00051080A168A111A230A128A1171088312F7
:1003F0000313E5007008E4006408D4006508D50024
:10040000D601D7015408DA07550803110318013E35
:1004100003190B2ADB07560803110318013E0319C1
:10042000122ADC07570803110318013E0319192A81
:10043000DD070830D4000310DA0DDB0DDC0DDD0D17
:10044000D40B1B2A4C08D4005408F00050080A169C
:100450008A111A230A128A11710883120313E50004
:100460007008E4006408D4006508D500D601D701FF
:100470005408DA07550803110318013E0319412AED
:10048000DB07560803110318013E0319482ADC074D
:10049000570803110318013E03194F2ADD074D08C1
:1004A000D4005408F00052080A168A111A230A12BE
:1004B0008A11710883120313E5007008E4006408D0
:1004C000D4006508D500D601D7015408E0075508C7
:1004D00003110318013E03196E2AE10756080311A0
:1004E0000318013E0319752AE20757080311031880
:1004F000013E03197C2AE3074E08D4005408F0009B
:1005000051080A168A111A230A128A1171088312D5
:100510000313E5007008E4006408D4006508D50002
:10052000D601D7015408E007550803110318013E0E
:1005300003199B2AE107560803110318013E03190A
:10054000A22AE207570803110318013E0319A92A3A
:10055000E3074E08D4005408F00052080A168A1126
:100560001A230A128A11710883120313E500700816
:10057000E4006408D4006508D500D601D70108302E
:100580000310D40DD50DD60DD70DFF3E031DC02A87
:100590005408E007550803110318013E0319D12A36
:1005A000E107560803110318013E0319D82AE20790
:1005B000570803110318013E0319DF2AE3075A08FD
:1005C000D4005B08D5005C08D6005D08D700183061
:1005D0000310D70CD60CD50CD40CFF3E031DE82A13
:1005E0005408E007550803110318013E0319F92ABE
:1005F000E107560803110318013E0319002BE20717
:10060000570803110318013E0319072BE3070830AD
:10061000D4000310DA0DDB0DDC0DDD0DD40B092B3E
:100620005F085E07D400D501D50D5408823EE40072
:1006300055080318013EFF3EE5003B2B0130D40076
:100640000310E00DE10DE20DE30DD40B202BDD1FB7
:100650002A2B2B2B2C2B60140130D4000310DA0D25
:10066000DB0DDC0DDD0DD40B2E2BFF30E407031862
:10067000E50AFF30E507E21F3E2B3F2B1E2BDE0174
:10068000DD1F432B442B602BFF305A05D400FF3075
:100690005B05D500FF305C05D6007F305D05D700D7
:1006A00057085604550454040319572B582B5B2B39
:1006B000DE01DE0A602B601C5E2B5F2B602B582B4B
:1006C0005E080319642B652B962B0130E007003080
:1006D00003180130E107003003180130E207003051
:1006E00003180130E307631C762B772B962B6008E9
:1006F000D4006108D5006208D6006308D700013035
:10070000D800570DD70CD60CD50CD40CD80B812B98
:100710005708E3005608E2005508E1005408E000DD
:100720000130E4070318E50A0030E5076508803A60
:10073000FF0080307F02031D9F2BFF306402031CEB
:10074000A22BA32BAE2B7F3083120313E300803048
:10075000E2000030E1000030E000E32B83120313DD
:100760006508803AFF0080307F02031DB92B0130FD
:1007700064020318BC2BBD2BC92B0030831203135A
:10078000E3000030E2000030E1000030E000D90179
:10079000E32B831203136408D4005408DF00FF30F6
:1007A000E005FF30E1057F30E2050030E3055F1C26
:1007B000DA2BDB2BDC2BE2175F08D4000310540C80
:1007C000D5005508E3005908D4005408E304630831
:1007D000CF006208CE006108CD006008CC000800A0
:1007E00083160313C600831203136908F300680815
:1007F000F2006708F1006608F0000A128A15182056
:100800000A128A11710883160313C3007008C2000C
:10081000CD01CE01CB01CC010130CF000030D000A2
:10082000831203136908F3006808F2006708F100F7
:100830006608F0000030F7000030F6000030F500E8
:100840000030F4000A168A1141250A128A11031891
:100850002A2C2B2C792CBF3083120313CF0080302D
:10086000CE000030CD000030CC006908D30068080D
:10087000D2006708D1006608D0000A128A118F20C2
:100880000A128A11831203134F08E9004E08E80088
:100890004D08E7004C08E6002D30EC0083160313EA
:1008A00046088400831203136C0883138000013010
:1008B00083160313CB070318CC0A0030CC07792C1E
:1008C0000A30F0000030F1004308F3004208F20063
:1008D0000A168A11DA240A128A1171088316031380
:1008E000C3007008C2000130CD070318CE0A0030E3
:1008F000CE078316031342084304031D802C812C6A
:10090000602C9D2D4D034E04031D872C882C8D2CAF
:100910000130CF000030D000CF2C0230C4000030B6
:10092000C500B92C83160313500883120313A100CA
:10093000831603134F0883120313A0000A30A2008A
:100940000030A3000A168A1141230A128A11831269
:100950000313210883160313D00083120313200806
:1009600083160313CF000130C4070318C50A0030F3
:10097000C5074E08803A83120313EC008316031355
:100980004508803A831203136C02031DCB2C831697
:10099000031344084D020318CE2CCF2C922C83163F
:1009A00003134F0883120313A40083160313500884
:1009B00083120313A5000030A51BFF30A600A7007B
:1009C00001300A168A11E3250A128A1183120313D1
:1009D0002708B5002608B4002508B3002408B20093
:1009E0006908B9006808B8006708B7006608B6006B
:1009F0000A128A158B230A128A11831203133508EF
:100A000083160313CA0083120313340883160313D7
:100A1000C90083120313330883160313C80083121B
:100A20000313320883160313C700500883120313FD
:100A3000A300831603134F0883120313A200831627
:100A400003134A08F3004908F2004808F100470878
:100A5000F0000A128A1518200A128A1171088312EE
:100A60000313A1007008A0000A168A1141230A127C
:100A70008A11831203132008A4002108A500003066
:100A8000A51BFF30A600A70001300A168A11E32536
:100A90000A128A11831203132708B5002608B4002E
:100AA0002508B3002408B2006908B9006808B80036
:100AB0006708B7006608B6000A168A11F6220A12FD
:100AC0008A11831203133508E9003408E80033085B
:100AD000E7003208E600831603134A08F3004908CA
:100AE000F2004808F1004708F0000A128A151820A1
:100AF0000A128A117008303E83120313EC00831629
:100B000003134B08460783120313ED006D0884009E
:100B10006C0883138000013083160313CB0703187E
:100B2000CC0A0030CC07FF30CD070318CE0AFF30C7
:100B3000CE070130CF000030D0004D084E04031D19
:100B4000A22DA32D822C2E3083120313EC008316CA
:100B500003134B08460783120313ED006D0884004E
:100B60006C0883138000013083160313CB0703182E
:100B7000CC0A0030CC070130C4000030C500E72D9E
:100B800083160313500883120313A1008316031363
:100B90004F0883120313A0000A30A2000030A30004
:100BA0000A168A1141230A128A118312031321089B
:100BB00083160313D0008312031320088316031334
:100BC000CF000130C4070318C50A0030C5078312DF
:100BD00003136B08803AEC00831603134508803A30
:100BE000831203136C02031DFB2D831603134408A9
:100BF000831203136A020318FE2DFF2DC02D8316E6
:100C000003134F0883120313A40083160313500821
:100C100083120313A5000030A51BFF30A600A70018
:100C200001300A168A11E3250A128A11831203136E
:100C30002708CF002608CE002508CD002408CC00C8
:100C40006908F3006808F2006708F1006608F00020
:100C50000A128A1518200A128A11700883120313C7
:100C6000A4007108A5000030A51BFF30A600A70056
:100C700001300A168A11E3250A128A11831203131E
:100C80002708B5002608B4002508B3002408B200E0
:100C90006908B9006808B8006708B7006608B600B8
:100CA0000A168A11F6220A128A11831203133508D2
:100CB000D3003408D2003308D1003208D0000A1221
:100CC0008A118F200A128A11831203134F08831688
:100CD0000313CA00831203134E0883160313C900BB
:100CE000831203134D0883160313C80083120313E2
:100CF0004C0883160313C7004A0883120313E90044
:100D000083160313490883120313E80083160313A1
:100D1000480883120313E70083160313470883125E
:100D20000313E6006908F3006808F2006708F100A1
:100D30006608F0000A128A1518200A128A1101307A
:100D400083160313CF000030D000831203136B0807
:100D500083160313CE00831203136A08831603134A
:100D6000CD00CD2F4D034E04031DB72EB82EBD2E42
:100D70000130CF000030D000FF2E0230C400003020
:100D8000C500E92E83160313500883120313A10034
:100D9000831603134F0883120313A0000A30A20026
:100DA0000030A3000A168A1141230A128A11831205
:100DB0000313210883160313D000831203132008A2
:100DC00083160313CF000130C4070318C50A00308F
:100DD000C5074E08803A83120313EC0083160313F1
:100DE0004508803A831203136C02031DFB2E831601
:100DF000031344084D020318FE2EFF2EC22E831645
:100E000003134F0883120313A4008316031350081F
:100E100083120313A5000030A51BFF30A600A70016
:100E200001300A168A11E3250A128A11831203136C
:100E30002708B5002608B4002508B3002408B2002E
:100E40006908B9006808B8006708B7006608B60006
:100E50000A128A158B230A128A118312031335088A
:100E600083160313CA008312031334088316031373
:100E7000C90083120313330883160313C8008312B7
:100E80000313320883160313C70050088312031399
:100E9000A300831603134F0883120313A2008316C3
:100EA00003134A08F3004908F2004808F100470814
:100EB000F0000A128A1518200A128A11710883128A
:100EC0000313A1007008A0000A168A1141230A1218
:100ED0008A11831203132008A4002108A500003002
:100EE000A51BFF30A600A70001300A168A11E325D2
:100EF0000A128A11831203132708B5002608B400CA
:100F00002508B3002408B2006908B9006808B800D1
:100F10006708B7006608B6000A168A11F6220A1298
:100F20008A11831203133508E9003408E8003308F6
:100F3000E7003208E600831603134A08F300490865
:100F4000F2004808F1004708F0000A128A1518203C
:100F50000A128A117008303E83120313EC008316C4
:100F600003134B08460783120313ED006D0884003A
:100F70006C0883138000013083160313CB0703181A
:100F8000CC0A0030CC07FF30CD070318CE0AFF3063
:100F9000CE070130CF000030D0004D084E04031DB5
:100FA000D22FD32FB22E0A3083120313EC008316F4
:100FB00003134B08460783120313ED006D088400EA
:100FC0006C088313800008008313E530FD001230A5
:100FD000FE008430FF00D53084000A168A11AA2250
:100FE0000A128A11A0308400C2300A168A116A22BD
:100FF0000A128A11EE01EF0183010A128A15F929FA
:10100400F300831603138712731D09280A280E2878
:1010140072089400871512287008720494008711CE
:101024007308710483120313940008000310720DF3
:10103400730DF4007408FA007A08031D222823288B
:101044002C280030F3000030F2000030F1000030B2
:10105400F00091287008F4007108F5007208F60099
:101064007308F7001F300310F70CF60CF50CF40CA2
:10107400FF3E031D35287408F8007808F900F217BC
:10108400FF30F005FF30F105FF30F2050030F305C5
:101094009630FA02FA1F4F2850286A287A08803AB4
:1010A400973E031856285728582823280130031040
:1010B400F30CF20CF10CF00CFF3E031D5928013027
:1010C400F4007408FA07031D682869285828812841
:1010D40020307A02031C6F2870287C2823280130D2
:1010E400F4000310F00DF10DF20DF30DF40B732861
:1010F4000130FA027A08031D8028812871287908B2
:101104000319852886289128F009F109F209F309C1
:10111400F00A0319F10A0319F20A0319F30A080081
:1011240083120313AC00DC2925302B0603199B28FA
:101134009C28C2282C0A8400831300080319A328BE
:10114400A428B3282B08A3002308F0002C0A840049
:1011540000080A128A1103200A128A158312031343
:1011640095282B08A3002C08840000088400230879
:1011740080000130A3002C088400230880079528F0
:10118400A701EA282C0A8400831300080319CB283A
:10119400CC28DB282B08A3002308F0002C0A8400A9
:1011A40000080A128A1103200A128A1583120313F3
:1011B40095282B08A3002C08840000088400230829
:1011C40080000130A3002C088400230880079528A0
:1011D4002108A4002008A300A00A0319A10A2408D6
:1011E400FF00230884000A168A1100200A128A15B7
:1011F400AB00A500A6012608003A03190229C42859
:101204002508003A0319F629643A03190D290D3A01
:1012140003190D29C4282208840083130008A3009D
:1012240002308007230884000008A900840A00080B
:10123400AA00AA1F1E291F2928290330A300230856
:10124400A704A909AA09A90A0319AA0AAB01AB0AA6
:101254002B08A3002307013E84000A168A110A20E2
:101264000A128A15A4000A168A110A200A128A157B
:10127400A50025082A02031D412924082902031870
:1012840044294529462950290130A3002308AB07E6
:1012940005302B06031D4F2950292A292708033915
:1012A40003195529562979292C0A84008313000827
:1012B40003195D295E296B292D30A3002308F00052
:1012C4002C0A840000080A128A1103200A128A15C3
:1012D40079292D30A3002C088400000884002308F9
:1012E40080000130A3002C088400230880078312A7
:1012F40003132B08A3002308A800D1290A30F800FF
:101304000030F9002808A3002307013E84000A16D0
:101314008A110A200A128A15F0000A168A110A2074
:101324000A128A15F1002A08F3002908F2000A16A5
:101334008A1141240A128A157108FB007008FA0008
:101344000A168A11CA230A128A157808303E8312B3
:101354000313A4002408AB002C0A840083130008A0
:101364000319B529B629C3292B08A3002308F000C3
:101374002C0A840000080A128A1103200A128A1512
:10138400D1292B08A3002C0884000008840023081A
:1013940080000130A3002C08840023088007FF305C
:1013A40083120313A3002308A807280A031DDB29BB
:1013B400DC298029831203132108A4002008A30038
:1013C400A00A0319A10A2408FF00230884000A16AE
:1013D4008A1100200A128A15A5002508AB002B08E3
:1013E400031DF529F6299628A001A10108000A1673
:1013F4008A1191230A128A150A168A119F260A1243
:101404008A15831203130711033083160313D200C2
:101414009730D100D10B0C2AD20B0C2A01300A16BA
:101424008A115D220A128A150A168A117B220A126F
:101434008A1583160313D100510883120313EF0096
:10144400033083160313D2009730D100D10B282A1E
:10145400D20B282A831203130715071103308316AE
:101464000313D2009730D100D10B362AD20B362A7F
:1014740002300A168A115D220A128A150A168A1186
:101484007B220A128A1583160313D1005108AD007A
:10149400033083160313D2009730D100D10B502AA6
:1014A400D20B502A8312031307150030831603133B
:1014B400A7000030A6000030A5000030A4000030D2
:1014C400A3000030A2000030A1000030A000403092
:1014D40083120313CF00A030CE000030CD000030C3
:1014E400CC004330B5007F30B4000030B30000308E
:1014F400B2006F0883160313D100D201D301D401C3
:10150400540883120313A70083160313530883128A
:101514000313A60083160313520883120313A500B2
:1015240083160313510883120313A40001300A160F
:101534008A11E3250A128A15831203132708B900B6
:101544002608B8002508B7002408B6000A128A1530
:101554008B230A128A15831203133508D300340827
:10156400D2003308D1003208D0000A128A118F2029
:101574000A128A15831203134F0883160313A70054
:10158400831203134E0883160313A6008312031356
:101594004D0883160313A500831203134C08831606
:1015A4000313A400403083120313CF00A030CE00F5
:1015B4000030CD000030CC004330B5007F30B400A3
:1015C4000030B3000030B200831603132D08D1009D
:1015D400D201D301D401540883120313A700831644
:1015E4000313530883120313A6008316031352082C
:1015F40083120313A50083160313510883120313E4
:10160400A40001300A168A11E3250A128A158312EE
:1016140003132708B9002608B8002508B7002408D2
:10162400B6000A128A158B230A128A158312031331
:101634003508D3003408D2003308D1003208D00072
:101644000A128A118F200A128A15831203134F0873
:1016540083160313A300831203134E088316031384
:10166400A200831203134D0883160313A1008312EF
:1016740003134C0883160313A000270883120313D3
:10168400E90083160313260883120313E800831664
:101694000313250883120313E70083160313240896
:1016A40083120313E6000230EA000030EB00B83086
:1016B4000A128A11F0230A128A15831603132308C7
:1016C40083120313E90083160313220883120313FE
:1016D400E80083160313210883120313E70083161B
:1016E4000313200883120313E6000230EA000030DB
:1016F400EB00AE300A128A11F0230A128A158316FF
:1017040003132808831203138600FE290A128A1180
:1017140000288312031339088039BA003A08C30039
:101724003908BA003A07BB003B08CA00B81F9B2B14
:101734009C2B9D2B4A144A080319A12BA22BB22BD4
:101744004A0A031DA62BA72BAF2B0030B90000308B
:10175400B8000030B7000030B600B817B901BA2B92
:101764000030B9000030B8000030B7000030B600D7
:1017740035088039BA003A08C3063508BA003A0772
:10178400BB003B08CB00B41FC82BC92BCA2B4B147E
:101794004B080319CE2BCF2BDF2B4B0A031DD32B66
:1017A400D42BDC2B0030B5000030B4000030B30083
:1017B4000030B200B417B501E72B0030B50000309B
:1017C400B4000030B3000030B200350834043304F0
:1017D4003204031DEE2BEF2B082C0030B90000302F
:1017E400B8000030B7000030B6008030B8047F3055
:1017F400B9044308BA003A08B9043908B5003808EE
:10180400B4003708B3003608B200672D4A08031D38
:101814000C2C0D2C162C0030B5000030B400003018
:10182400B3000030B200672D4A08BA00BB013B0880
:10183400BD004B083A02BC00031CBD033C087F3EBC
:10184400C4003D080318013E003EC5003908C2002B
:101854003808C1003708C0003608BF000030B9009E
:101864000030B8000030B7000030B6000030C900C6
:101874000030C8000030C7000030C600CB018C2CFB
:101884004B080319462C472C672C0130BA0003106F
:10189400BF0DC00DC10DC20DBA0B492C0130BA00E9
:1018A4000310B60DB70DB80DB90DBA0B522CC91FE4
:1018B4005C2C5D2C5E2C36140130BA000310C60D6E
:1018C400C70DC80DC90DBA0B602C35084202031DA3
:1018D400752C34084102031D752C33084002031D86
:1018E400752C32083F02031C782C792C882C49175C
:1018F4003208BF023308031C330FC0023408031C30
:10190400340FC1023508031C350FC2020130BA007E
:101914003A08CB071A304B02031C912C922C422C10
:101924004208410440043F040319992C9A2CB92C11
:101934004614B92C0130BA000310B60DB70DB80D1A
:10194400B90DBA0B9E2CC91FA82CA92CAA2C36148D
:101954000130BA000310C60DC70DC80DC90DBA0B6E
:10196400AC2CFF30C4070318C50AFF30C507B81FE5
:10197400BC2CBD2C9C2CCB01C91FC12CC22CDE2C31
:10198400FF304605BA00FF304705BB00FF3048056D
:10199400BC007F304905BD003D083C043B043A04CB
:1019A4000319D52CD62CD92CCB01CB0ADE2C361C12
:1019B400DC2CDD2CDE2CD62C4B080319E22CE32C7A
:1019C400142D0130B607003003180130B70700307A
:1019D40003180130B807003003180130B907391C67
:1019E400F42CF52C142D3608BA003708BB0038083F
:1019F400BC003908BD000130BE003D0DBD0CBC0C5F
:101A0400BB0CBA0CBE0BFF2C3D08B9003C08B80057
:101A14003B08B7003A08B6000130C4070318C50AEA
:101A24000030C5074508803AFF0080307F02031D5F
:101A34001D2DFF304402031C202D212D2F2DFF309E
:101A440083120313C4000030C5000030B900003015
:101A5400B8000030B7000030B60083120313450805
:101A6400803AFF0080307F02031D3A2D013044028A
:101A740003183D2D3E2D4B2D83120313C401C501C4
:101A84000030B9000030B8000030B7000030B600B4
:101A9400C301831203134408BA003A08CA004A1C5B
:101AA400542D552D572DB8175B2D7F30BA003A08A9
:101AB400B8054A08BA0003103A0CBB003B08B90049
:101AC4004308BA003A08B904FF2B080073088039A8
:101AD40083120313A0002008F8007308A000200755
:101AE400A1002108FA00F21F782D792D7A2D7A149D
:101AF4007A0803197E2D7F2D8F2D7A0A031D832DDD
:101B0400842D8C2D0030F3000030F2000030F10001
:101B14000030F000F217F301972D0030F30000308D
:101B2400F2000030F1000030F00077088039A000A6
:101B34002008F900790878060319A12DA22DA32DF8
:101B440078177708A0002007A1002108F900F61FE4
:101B5400AC2DAD2DAE2D791479080319B22DB32D0A
:101B6400C32D790A031DB72DB82DC02D0030F70001
:101B74000030F6000030F5000030F400F617F701ED
:101B8400CB2D0030F7000030F6000030F5000030B7
:101B9400F4007A0879020318D02DD12D152E781F60
:101BA400D42DD52DD92D8030A0002008F8067A0830
:101BB400A0002008FB007908A0002008FA007B0898
:101BC400A0002008F9007008A0002008FB00740899
:101BD400A0002008F0007B08A0002008F400710891
:101BE400A0002008FB007508A0002008F1007B0875
:101BF400A0002008F5007208A0002008FB00760869
:101C0400A0002008F2007B08A0002008F60073085A
:101C1400A0002008FB007708A0002008F3007B0840
:101C2400A0002008F700FB017908A000A101210809
:101C3400A3007A082002A200031CA3032308803A0D
:101C4400FF0080307F02031D292E1A302202031C5C
:101C54002C2E2D2E6E2E7308720471047004031D35
:101C6400342E362E0130372E003083120313A00099
:101C74002008FB000030F3000030F2000030F100D7
:101C84000030F0007908A0002008FA00742E7B1CB4
:101C94004C2E4D2E582E7B0883120313A0000310E4
:101CA400200C0138A1002108FB005A2E0310FB0C64
:101CB400701C5D2E5E2E5F2EFB1701308312031302
:101CC400A000730DF30CF20CF10CF00CA00B632EBE
:101CD4000130A0002008FA0779087A02031C732E49
:101CE400742E492E781B772E782EC72E7A08031D62
:101CF4007C2E7D2E862E0030F3000030F200003062
:101D0400F1000030F000FF2F7408F007750803118C
:101D14000318013E03198F2EF107760803110318E7
:101D2400013E0319962EF207770803110318013EAA
:101D340003199D2EF307731CA02EA12E7F2F7B1C4D
:101D4400A42EA52EB02E7B0883120313A00003102B
:101D5400200C0138A1002108FB00B22E0310FB0C5B
:101D6400701CB52EB62EB72EFB1701308312031349
:101D7400A000730DF30CF20CF10CF00CA00BBB2EB5
:101D84000130A0002008FA077F2F7308803AFF0073
:101D94007708803A7F02031DD92E76087202031D4C
:101DA400D92E75087102031DD92E74087002031808
:101DB400DC2EDD2E372FFF3083120313A000FF30FB
:101DC400A100FF30A200FF30A3007408A40075082E
:101DD400A5007608A6007708A7007008A402710879
:101DE400031C710FF62EF72EA5027208031C720F46
:101DF400FC2EFD2EA6027308031C730F022F032F63
:101E0400A7022408A00725080318250F0A2F0B2F63
:101E1400A10726080318260F102F112FA207270841
:101E24000318270AA3072308F3002208F200210855
:101E3400F1002008F0008030A0002008F806FB091B
:101E4400FB0A7B08031D272F282F452F0130F0079D
:101E5400003003180130F107003003180130F20795
:101E6400003003180130F307452F7408F002750899
:101E7400031C750FF1027608031C760FF202770833
:101E8400031C770FF3027308720471047004031DBA
:101E94004C2F4D2F7B2F7B08031D512F522F7B2F4F
:101EA4000030F3000030F2000030F1000030F000A8
:101EB400FF2F013083120313A0000310F00DF10D66
:101EC400F20DF30DA00B5F2FFB1F692F6A2F6B2FF1
:101ED40070147B1C6E2F6F2F722F0314FB0D742F45
:101EE4000310FB0D7A080319782F792F7B2F01300B
:101EF400FA02F21F7E2F7F2F5B2FF901FB1F832F26
:101F0400842F922F7B087F390319892F8A2F8D2FD5
:101F1400F901F90A922F701C902F912F922F8A2F7A
:101F240079080319962F972FCD2F0130F007003031
:101F340003180130F107003003180130F2070030B4
:101F440003180130F307731CA82FA92FCD2F700895
:101F540083120313A0007108A1007208A200730881
:101F6400A3000130A400230DA30CA20CA10CA00C0F
:101F7400A40BB52F2308F3002208F2002108F10076
:101F84002008F0007A0A0319C82FC92FCD2F013079
:101F9400A0002008FA077A0A0319D12FD22FD72FCD
:101FA4007A08031DD62FD72FE52F0030F300003019
:101FB400F2000030F1000030F0007A08031DE32F36
:101FC400E42FE52FF8017A1CE82FE92FEB2FF21705
:101FD400F12F7F3083120313A0002008F2057A0842
:101FE40083120313A0000310200CA1002108F300A6
:101FF400F81FFD2FFE2FFF2FF3170800FF1B0A28E1
:1020040083137F1883170008840A0319FF0A080042
:1020140010308A000408840A820700340134003432
:102024000A34003464340034E8340334103427347C
:1020340049346E34673472346534733461347234C1
:102044002034433465346E34743465346E3461340E
:102054003A342034523461346E3467346F34283463
:1020640030342D34323429340D34003445346C3456
:1020740020346E3475346D34653472346F342034E6
:1020840065346C3465346734693464346F342034B3
:10209400653473343A342034253464340034493498
:1020A4006E3467347234653473346134723420347A
:1020B40055346E346934643461346434653473344F
:1020C4003A3420340D34003449346E346734723475
:1020D4006534733461347234203444346534633485
:1020E40065346E34613473343A3420340D3400343E
:1020F4000D342D342D342D342D342D342D342D34F4
:102104002D342D342D342D342D342D342D342D34C3
:102114000D3400340D34203476346F346C3474341C
:1021240061346A346534203431343A3420340D3423
:1021340000340D34203476346F346C3474346134A8
:102144006A346534203432343A3420340D34003463
:1024BA00F0007008831203139300080083160313B5
:1024CA00141C682A692A632A080064008001840AA5
:1024DA0004060319003404066B2A831203130C1E24
:1024EA00772A782A722A7008990008000A168A112F
:1024FA0063220A168A1183120313130808003F3451
:10250A0006345B344F3466346D347D3407347F349B
:10251A00673477347C3439345E3479347134F10079
:10252A00F0013A30710203189B2A9C2AA42A3030FF
:10253A007102031CA12AA22AA42AF001F00A700C33
:10254A0008007E088A007F0882000A168A11A622DD
:10255A000A168A118000840A04087D0603190034C9
:10256A00FF0A0319FE0AAA2A83120313B3010130D0
:10257A00B1003108B4002F30B1003108B2002D0883
:10258A00A0002E08A1003230B1003108A200333079
:10259A000A128A1592200A168A1108008312031356
:1025AA00B2003208B0003008B300B4012E30B000D7
:1025BA003008B1002D08A0000030031D8030A100B2
:1025CA003130B0003008A20033300A128A15922046
:1025DA000A168A11831203133308840083138001B5
:1025EA000800803083120313B5063908F30038084F
:1025FA00F2003708F1003608F0003508F700340811
:10260A00F6003308F5003208F4000A128A15682524
:10261A000A168A11730883120313B5007208B400EC
:10262A007108B3007008B2000800F800F401F5015F
:10263A007008F200F3017208F6007308F700781CBC
:10264A00272B282B2E2B7608F4070318F50A770870
:10265A00F50701300310F60DF70DFF3E031D2F2B72
:10266A000310F80C7808031D3B2B3C2B242B750810
:10267A00F1007408F0000800FB01FC018312031347
:10268A00201C482B492B4F2B2208FB070318FC0A56
:10269A002308FC0701300310A20DA30DFF3E031D02
:1026AA00502B01300310A10CA00CFF3E031D572B29
:1026BA0020082104031D622B632B432B7C08A100F5
:1026CA007B08A0000800F2007208F1007108F3000C
:1026DA00722B0130F1007108F30773088400831329
:1026EA000008031D792B7A2B6E2B832B0130F10006
:1026FA007108F3070130F1007108F00770088400CF
:10270A000008F10073088400710880000008031DA6
:10271A008F2B902B7B2B08008316031788018901C6
:10272A008316031386018801831203138601880125
:10273A000715F001F101F20120300A128A15022070
:10274A000A168A1107300A168A1185240A168A116E
:10275A008316031318121815831603178715CF301B
:10276A008316031399009A018312031398171813F7
:10277A0018168316031398168B170B178C160C163C
:10278A00831203130C128C120800780879040319B7
:10279A00CF2BD02BFF2BFD01FD0ADE2B01300310BE
:1027AA00F80DF90DFF3E031DD42B0130FC007C0807
:1027BA00FD07F91FE12BE22BD32B79087B02031DBE
:1027CA00E82B78087A02031CEB2BEC2BF22B780807
:1027DA00FA027908031CFB03FB0201300310F90C0F
:1027EA00F80CFF3E031DF32B0130FD02031DFE2BE7
:1027FA00FF2BE22B7B08F9007A08F80008003F302B
:10280A0083120313B9003908AD003608AF00350842
:10281A00AE004E300A168A11D3220A168A113F30A8
:10282A0083120313B9003908AD003808AF0037081E
:10283A00AE003A300A168A11D3220A168A113A30A1
:10284A0083120313B9003908F0004E300A168A11B0
:10285A0068230A168A114E300A128A110C200A16A7
:10286A008A11831203132508E3002408E20063088F
:10287A00B6006208B5000800F501F6017008710497
:10288A000319482C492C802CF701F70A572C0130E0
:10289A000310F00DF10DFF3E031D4D2C0130F40025
:1028AA007408F707F11F5A2C5B2C4C2C01300310CB
:1028BA00F50DF60DFF3E031D5C2C71087302031D16
:1028CA00682C70087202031C6B2C6C2C732C700819
:1028DA00F2027108031CF303F302751401300310AA
:1028EA00F10CF00CFF3E031D742C0130F702031D9E
:1028FA007F2C802C5B2C7608F1007508F00008000C
:10290A00F200B92C8F30831603138F05D82C831647
:10291A0003130F088F3910388F00D82C8F30831685
:10292A0003138F05D82C831603130F088F39103819
:10293A008F00D82C831603130F088F3940388F0065
:10294A00D82C831603130F088F3950388F00D82CD0
:10295A007030831603138F04D82C831603130F08C1
:10296A008F3960388F00D82C7208F000F101710895
:10297A00003A0319C12CB22C7008003A0319872CAB
:10298A00013A03198C2C033A0319932C013A0319BF
:10299A00982C073A03199F2C013A0319A62C023ADC
:1029AA000319AD2CB22C0F140800F601F11FDE2C0E
:1029BA00DF2CE62CF009F109F00A0319F10AF601F5
:1029CA00F60AF31FE92CEA2CF32CF209F309F20AAE
:1029DA000319F30A0130F4007408F606F701F80146
:1029EA00700871040319FA2CFB2C322DF501F50A33
:1029FA00092D01300310F00DF10DFF3E031DFF2CD0
:102A0A000130F4007408F507F11F0C2D0D2DFE2C72
:102A1A0001300310F70DF80DFF3E031D0E2D71084E
:102A2A007302031D1A2D70087202031C1D2D1E2D20
:102A3A00252D7008F2027108031CF303F3027714C0
:102A4A0001300310F10CF00CFF3E031D262D01305E
:102A5A00F502031D312D322D0D2D76080319362D61
:102A6A00372D3C2DF709F809F70A0319F80A7808EF
:102A7A00F1007708F000080000307005F800003017
:102A8A007105F90080307205FA007F307305FB008A
:102A9A007B087A0479047804031D542D552D5D2D85
:102AAA000030F3000030F2000030F1000030F00096
:102ABA0000307405F80000307505F900803076059D
:102ACA00FA007F307705FB007B087A0479047804E2
:102ADA00031D702D712D792D0030F7000030F6009E
:102AEA000030F5000030F400F31F7C2D7D2DA12D60
:102AFA000030F8000030F9000030FA008030FB00A6
:102B0A007008F8027108031C710F8C2D8D2DF902C3
:102B1A007208031C720F922D932DFA027308031C7C
:102B2A00730F982D992DFB027B08F3007A08F200A7
:102B3A007908F1007808F000F71FA42DA52DC92DFA
:102B4A000030F8000030F9000030FA008030FB0055
:102B5A007408F8027508031C750FB42DB52DF90217
:102B6A007608031C760FBA2DBB2DFA027708031CD0
:102B7A00770FC02DC12DFB027B08F7007A08F600FB
:102B8A007908F5007808F4008030F3068030F706FB
:102B9A0077087302031DDB2D76087202031DDB2DF5
:102BAA0075087102031DDB2D740870020318DE2DEF
:102BBA00DF2DE12D0310E22D031408008312031305
:102BCA00AC002C080319EA2DEB2DFF2DA71FEE2DC3
:102BDA00EF2DFF2D2409AE002509AF002609B0000C
:102BEA002709B100AE0A0319AF0A0319B00A03197B
:102BFA00B10A072E2708B1002608B0002508AF0041
:102C0A002408AE002708260425042404031D0E2EDA
:102C1A000F2E182E0030A7000030A6000030A500A5
:102C2A000030A4009E2E9630A8002808AD002A2E57
:102C3A000130A8002808AD0701300310B10CB00C10
:102C4A00AF0CAE0CFF3E031D222EFE303105031DD4
:102C5A002F2E302E1D2E4C2E0130A8002808AD072D
:102C6A000130AE07003003180130AF0700300318F7
:102C7A000130B007003003180130B10701300310EA
:102C8A00B10CB00CAF0CAE0CFF3E031D442EFF304E
:102C9A003105031D512E522E312E5E2E0130AD020A
:102CAA000130A8000310AE0DAF0DB00DB10DA80B89
:102CBA00572EB01B612E622E682E02302D02031889
:102CCA00672E682E532E2D186B2E6C2E742EFF3005
:102CDA00AE05FF30AF057F30B005FF30B1050310F8
:102CEA00AD0C2D08A800A901AA01AB0118300310E8
:102CFA00A80DA90DAA0DAB0DFF3E031D7C2E2808B9
:102D0A00AE042908AF042A08B0042B08B1042C0821
:102D1A000319902E912E962EA71F942E952E962E3D
:102D2A00B1173108A7003008A6002F08A5002E0801
:102D3A00A4000800043083120313E6000C30E500F7
:102D4A003330E400E40BA72EE50BA72EE60BA72EE3
:102D5A007D3083120313AD008030AE000A168A114B
:102D6A00B9220A168A11043083120313E6000C30C2
:102D7A00E5003330E400E40BC02EE50BC02EE60B71
:102D8A00C02EB83083120313AD000030AE000A160D
:102D9A008A11B9220A168A116B3083120313AD0005
:102DAA008030AE000A168A11B9220A168A11043036
:102DBA0083120313E6000C30E5003330E400E40B21
:102DCA00E42EE50BE42EE60BE42E8C30831203137B
:102DDA00AD008030AE000A168A11B9220A168A118D
:102DEA00043083120313E6000C30E5003330E400AC
:102DFA00E40BFD2EE50BFD2EE60BFD2EAE30831205
:102E0A000313AD000030AE000A168A11B9220A1661
:102E1A008A11043083120313E6000C30E5003330C4
:102E2A00E400E40B162FE50B162FE60B162F6B307A
:102E3A0083120313AD008030AE000A168A11B9223C
:102E4A000A168A110B3083120313AD008030AE00CC
:102E5A000A168A11B9220A168A11831203138C1EC2
:102E6A00372F382F322F1A08D03EE4006408EE00BC
:102E7A0033301A020318422F432F322F5730AD0036
:102E8A008030AE000A168A11B9220A168A118312F4
:102E9A0003138C1E512F522F4C2F1A08D03EE400D8
:102EAA00640883160313AB000230831203136E0601
:102EBA00031D602F612F672F36301A020318662F01
:102ECA00672F4C2F4230AD008030AE000A168A11AF
:102EDA00B9220A168A11831203138C1E752F762FB4
:102EEA00702F1A08D03EE400640883160313AC005E
:102EFA000230831203136E06031D842F852F952F2C
:102F0A000530831603132B06031D8C2F8D2F952F47
:102F1A003630831203131A020318942F952F702F39
:102F2A0083126E08E400E5016408B5006508B6007E
:102F3A00831603132B0883120313E600E7016608BE
:102F4A00B7006708B8000A168A1104240A168A11FB
:102F5A00831203133508E800680883160313AA00CE
:102F6A002A0883120313E400E5016408B500650822
:102F7A00B600831603132C0883120313E600E70135
:102F8A006608B7006708B8000A168A1104240A16E8
:102F9A008A1183120313360883160313A9008312B6
:102FAA000313350883160313A8000330831203138F
:102FBA00E6008A30E5005530E400E40BE22FE50B29
:102FCA00E22FE60BE22F293083120313AD00803083
:102FDA00AE0083160313290883120313B000831665
:102FEA000313280883120313AF000A168A11B922A1
:062FFA000A168A1108000E
:04400E00C430FF3F7C
:00000001FF
