:020000040000FA
:100000000A128A11E52F7E088A007F0882000A12F0
:100010008A1103200A128A118000840A04087D06CE
:1000200003190034FF0A0319FE0A07280310720D92
:10003000730DF4007408FA007A08031D20282128A3
:100040002A280030F3000030F2000030F1000030C8
:10005000F0008F287008F4007108F5007208F600AF
:100060007308F7001F300310F70CF60CF50CF40CB6
:10007000FF3E031D33287408F8007808F900F217D2
:10008000FF30F005FF30F105FF30F2050030F305D9
:100090009630FA02FA1F4D284E2868287A08803ACE
:1000A000973E03185428552856282128013003105C
:1000B000F30CF20CF10CF00CFF3E031D572801303D
:1000C000F4007408FA07031D6628672856287F285D
:1000D00020307A02031C6D286E287A2821280130EE
:1000E000F4000310F00DF10DF20DF30DF40B712877
:1000F0000130FA027A08031D7E287F286F287908CC
:100100000319832884288F28F009F109F209F309DB
:10011000F00A0319F10A0319F20A0319F30A080095
:10012000831203134F088039D4005408D9004F08B4
:10013000D4005407D5005508DF00CE1FA028A12801
:10014000A2285F145F080319A628A728B6285F0A0B
:10015000031DAB28AC28B4280030CF000030CE00FF
:100160000030CD000030CC00CE17BE280030CF00CC
:100170000030CE000030CD000030CC005308803974
:10018000D4005408D9065308D4005407D5005508A4
:10019000DE00D21FCC28CD28CE285E145E080319BD
:1001A000D228D328E2285E0A031DD728D828E028C1
:1001B0000030D3000030D2000030D1000030D00039
:1001C000D217EA280030D3000030D2000030D1002E
:1001D0000030D0005E080319EE28EF28F4285F08ED
:1001E000031DF328F428FD280030CF000030CE0096
:1001F0000030CD000030CC00F02B4C08D400540867
:10020000F00052080A168A11E8250A128A117108AC
:1002100083120313E5007008E4006408D400D501DC
:10022000D601D7015708DD005608DC005508DB0071
:100230005408DA006508D400D501D601D701570863
:10024000E3005608E2005508E1005408E0004D08BC
:10025000D4005408F00051080A168A11E8250A1241
:100260008A11710883120313E5007008E400640822
:10027000D400D501D601D7015408DA075508031177
:100280000318013E03194529DB075608031103181B
:10029000013E03194C29DC07570803110318013EDE
:1002A00003195329DD076508D400D501D601D7010C
:1002B0005408E007550803110318013E031961298A
:1002C000E107560803110318013E03196829E207E4
:1002D000570803110318013E03196F29E3074E085D
:1002E000D4005408F00050080A168A11E8250A12B2
:1002F0008A11710883120313E5007008E400640892
:10030000D400D501D601D7015408DA0755080311E6
:100310000318013E03198D29DB0756080311031842
:10032000013E03199429DC07570803110318013E05
:1003300003199B29DD076508D400D501D601D70133
:100340005408E007550803110318013E0319A929B1
:10035000E107560803110318013E0319B029E2070B
:10036000570803110318013E0319B729E3070830A2
:10037000D4000310DA0DDB0DDC0DDD0DD40BB92933
:100380004D08D4005408F00050080A168A11E825D8
:100390000A128A11710883120313E5007008E40041
:1003A0006408D4006508D500D601D7015408DA07DF
:1003B000550803110318013E0319DF29DB0756080E
:1003C00003110318013E0319E629DC07570803113E
:1003D0000318013E0319ED29DD074C08D400540829
:1003E000F00051080A168A11E8250A128A117108CC
:1003F00083120313E5007008E4006408D400650864
:10040000D500D601D7015408DA075508031103189F
:10041000013E03190C2ADB07560803110318013E9D
:100420000319132ADC07570803110318013E0319A7
:100430001A2ADD070830D4000310DA0DDB0DDC0DBD
:10044000DD0DD40B1C2A4C08D4005408F0005008D1
:100450000A168A11E8250A128A11710883120313F9
:10046000E5007008E4006408D4006508D500D601F2
:10047000D7015408DA07550803110318013E031980
:10048000422ADB07560803110318013E0319492AC3
:10049000DC07570803110318013E0319502ADD0732
:1004A0004D08D4005408F00052080A168A11E825B5
:1004B0000A128A11710883120313E5007008E40020
:1004C0006408D4006508D500D601D7015408E007B8
:1004D000550803110318013E03196F2AE107560856
:1004E00003110318013E0319762AE2075708031186
:1004F0000318013E03197D2AE3074E08D40054086F
:10050000F00051080A168A11E8250A128A117108AA
:1005100083120313E5007008E4006408D400650842
:10052000D500D601D7015408E00755080311031878
:10053000013E03199C2AE107560803110318013EE6
:100540000319A32AE207570803110318013E0319F0
:10055000AA2AE3074E08D4005408F00052080A16ED
:100560008A11E8250A128A11710883120313E50023
:100570007008E4006408D4006508D500D601D701EE
:1005800008300310D40DD50DD60DD70DFF3E031D39
:10059000C12A5408E007550803110318013E031946
:1005A000D22AE107560803110318013E0319D92A7C
:1005B000E207570803110318013E0319E02AE30775
:1005C0005A08D4005B08D5005C08D6005D08D70047
:1005D00018300310D70CD60CD50CD40CFF3E031DDD
:1005E000E92A5408E007550803110318013E0319CE
:1005F000FA2AE107560803110318013E0319012BDB
:10060000E207570803110318013E0319082BE307FB
:100610000830D4000310DA0DDB0DDC0DDD0DD40B3A
:100620000A2B5F085E07D400D501D50D5408823E21
:10063000E40055080318013EFF3EE5003C2B013065
:10064000D4000310E00DE10DE20DE30DD40B212BDE
:10065000DD1F2B2B2C2B2D2B60140130D40003100D
:10066000DA0DDB0DDC0DDD0DD40B2F2BFF30E40795
:100670000318E50AFF30E507E21F3F2B402B1F2B35
:10068000DE01DD1F442B452B612BFF305A05D400C2
:10069000FF305B05D500FF305C05D6007F305D057F
:1006A000D70057085604550454040319582B592BE6
:1006B0005C2BDE01DE0A612B601C5F2B602B612B43
:1006C000592B5E080319652B662B972B0130E00729
:1006D000003003180130E107003003180130E20751
:1006E000003003180130E307631C772B782B972B1E
:1006F0006008D4006108D5006208D6006308D700FE
:100700000130D800570DD70CD60CD50CD40CD80B13
:10071000822B5708E3005608E2005508E100540810
:10072000E0000130E4070318E50A0030E50765083A
:10073000803AFF0080307F02031DA02BFF3064024F
:10074000031CA32BA42BAF2B7F3083120313E300D6
:100750008030E2000030E1000030E000E42B831242
:1007600003136508803AFF0080307F02031DBA2B17
:10077000013064020318BD2BBE2BCA2B003083123C
:100780000313E3000030E2000030E1000030E0003D
:10079000D901E42B831203136408D4005408DF004A
:1007A000FF30E005FF30E1057F30E2050030E30572
:1007B0005F1CDB2BDC2BDD2BE2175F08D400031062
:1007C000540CD5005508E3005908D4005408E3043C
:1007D0006308CF006208CE006108CD006008CC003D
:1007E000080083160313CC00831203136908F30077
:1007F0006808F2006708F1006608F0000A128A1122
:1008000016200A128A11710883160313C900700892
:10081000C800D301D401D101D2010130D50000308C
:10082000D600831203136908F3006808F200670812
:10083000F1006608F0000030F7000030F6000030EC
:10084000F5000030F4000A128A154F200A128A11AE
:1008500003182B2C2C2C7A2CBF3083120313CF00BF
:100860008030CE000030CD000030CC006908D300CD
:100870006808D2006708D1006608D0000A128A1101
:1008800090200A128A11831203134F08E9004E08C0
:10089000E8004D08E7004C08E6002D30EC00831618
:1008A00003134C088400831203136C088313800025
:1008B000013083160313D1070318D20A0030D20780
:1008C0007A2C0A30F0000030F1004908F3004808A3
:1008D000F2000A168A1199270A128A1171088316E2
:1008E0000313C9007008C8000130D3070318D40AE5
:1008F0000030D4078316031348084904031D812CD4
:10090000822C612C9E2D53035404031D882C892CAA
:100910008E2C0130D5000030D600D02C0230CA0019
:100920000030CB00BA2C831603135608831203132E
:10093000A10083160313550883120313A0000A3085
:10094000A2000030A3000A168A110F260A128A118B
:1009500083120313210883160313D6008312031393
:10096000200883160313D5000130CA070318CB0AE9
:100970000030CB075408803A83120313EC0083162F
:1009800003134B08803A831203136C02031DCC2C13
:10099000831603134A0853020318CF2CD02C932C30
:1009A00083160313550883120313A400831603133D
:1009B000560883120313A5000030A51BFF30A600C4
:1009C000A70001300A128A15F1200A128A11831237
:1009D00003132708B5002608B4002508B30024082F
:1009E000B2006908B9006808B8006708B70066086F
:1009F000B6000A128A15AD210A128A118312031356
:100A0000350883160313D0008312031334088316AA
:100A10000313CF0083120313330883160313CE008E
:100A200083120313320883160313CD005608831272
:100A30000313A30083160313550883120313A200A4
:100A4000831603135008F3004F08F2004E08F1001C
:100A50004D08F0000A128A1116200A128A11710834
:100A600083120313A1007008A0000A168A110F2632
:100A70000A128A11831203132008A4002108A5007A
:100A80000030A51BFF30A600A70001300A128A150E
:100A9000F1200A128A11831203132708B5002608D1
:100AA000B4002508B3002408B2006908B90068083A
:100AB000B8006708B7006608B6000A168A11A025B4
:100AC0000A128A11831203133508E9003408E8007A
:100AD0003308E7003208E600831603135008F300DA
:100AE0004F08F2004E08F1004D08F0000A128A117A
:100AF00016200A128A117008303E83120313EC008C
:100B00008316031351084C0783120313ED006D087D
:100B100084006C0883138000013083160313D1070F
:100B20000318D20A0030D207FF30D3070318D40AC3
:100B3000FF30D4070130D5000030D60053085404EC
:100B4000031DA32DA42D832C2E3083120313EC0040
:100B50008316031351084C0783120313ED006D082D
:100B600084006C0883138000013083160313D107BF
:100B70000318D20A0030D2070130CA000030CB007F
:100B8000E82D83160313560883120313A10083165E
:100B90000313550883120313A0000A30A20000308B
:100BA000A3000A168A110F260A128A118312031350
:100BB000210883160313D60083120313200883161B
:100BC0000313D5000130CA070318CB0A0030CB0746
:100BD000831203136B08803AEC00831603134B084F
:100BE000803A831203136C02031DFC2D831603133A
:100BF0004A08831203136A020318FF2D002EC12D29
:100C000083160313550883120313A40083160313DA
:100C1000560883120313A5000030A51BFF30A60061
:100C2000A70001300A128A15F1200A128A118312D4
:100C300003132708CF002608CE002508CD0024087E
:100C4000CC006908F3006808F2006708F100660844
:100C5000F0000A128A1116200A128A1170088312F3
:100C60000313A4007108A5000030A51BFF30A600E7
:100C7000A70001300A128A15F1200A128A11831284
:100C800003132708B5002608B4002508B30024087C
:100C9000B2006908B9006808B8006708B7006608BC
:100CA000B6000A168A11A0250A128A1183120313AC
:100CB0003508D3003408D2003308D1003208D00000
:100CC0000A128A1190200A128A11831203134F0804
:100CD00083160313D000831203134E0883160313E5
:100CE000CF00831203134D0883160313CE00831223
:100CF00003134C0883160313CD005008831203130B
:100D0000E900831603134F0883120313E8008316C8
:100D100003134E0883120313E700831603134D08D1
:100D200083120313E6006908F3006808F2006708FD
:100D3000F1006608F0000A128A1116200A128A11C0
:100D4000013083160313D5000030D600831203133D
:100D50006B0883160313D400831203136A088316E7
:100D60000313D300CE2F53035404031DB82EB92E02
:100D7000BE2E0130D5000030D600002F0230CA0050
:100D80000030CB00EA2E8316031356088312031398
:100D9000A10083160313550883120313A0000A3021
:100DA000A2000030A3000A168A110F260A128A1127
:100DB00083120313210883160313D600831203132F
:100DC000200883160313D5000130CA070318CB0A85
:100DD0000030CB075408803A83120313EC008316CB
:100DE00003134B08803A831203136C02031DFC2E7D
:100DF000831603134A0853020318FF2E002FC32E35
:100E000083160313550883120313A40083160313D8
:100E1000560883120313A5000030A51BFF30A6005F
:100E2000A70001300A128A15F1200A128A118312D2
:100E300003132708B5002608B4002508B3002408CA
:100E4000B2006908B9006808B8006708B70066080A
:100E5000B6000A128A15AD210A128A1183120313F1
:100E6000350883160313D000831203133408831646
:100E70000313CF0083120313330883160313CE002A
:100E800083120313320883160313CD00560883120E
:100E90000313A30083160313550883120313A20040
:100EA000831603135008F3004F08F2004E08F100B8
:100EB0004D08F0000A128A1116200A128A117108D0
:100EC00083120313A1007008A0000A168A110F26CE
:100ED0000A128A11831203132008A4002108A50016
:100EE0000030A51BFF30A600A70001300A128A15AA
:100EF000F1200A128A11831203132708B50026086D
:100F0000B4002508B3002408B2006908B9006808D5
:100F1000B8006708B7006608B6000A168A11A0254F
:100F20000A128A11831203133508E9003408E80015
:100F30003308E7003208E600831603135008F30075
:100F40004F08F2004E08F1004D08F0000A128A1115
:100F500016200A128A117008303E83120313EC0027
:100F60008316031351084C0783120313ED006D0819
:100F700084006C0883138000013083160313D107AB
:100F80000318D20A0030D207FF30D3070318D40A5F
:100F9000FF30D4070130D5000030D6005308540488
:100FA000031DD32FD42FB32E0A3083120313EC006A
:100FB0008316031351084C0783120313ED006D08C9
:100FC00084006C088313800008008313EF30FD0059
:100FD0001530FE003E30FF00DF3084000A128A1117
:100FE00007200A128A11A0308400C8300A168A111C
:100FF0000A250A128A11EE0183010A128A158A2B28
:101000000A168A1124250A128A15700883120313FE
:101010009300080000300A168A1104250A128A1566
:101020003430F500F130F400F40B1428F50B1428DB
:10103000192830300A168A1164250A128A150D30D3
:10104000F500FB30F400F40B2328F50B23282828A7
:1010500030300A168A1164250A128A151D30F500EF
:101060009130F400F40B3228F50B322830300A1698
:101070008A1164250A128A1538300A168A116425E5
:101080000A128A150C300A168A1164250A128A156A
:1010900006300A168A1164250A128A1508000030E3
:1010A0007005F80000307105F90080307205FA0013
:1010B0007F307305FB007B087A0479047804031DF4
:1010C000622863286B280030F3000030F200003003
:1010D000F1000030F00000307405F80000307505B4
:1010E000F90080307605FA007F307705FB007B0839
:1010F0007A0479047804031D7E287F28872800302D
:10110000F7000030F6000030F5000030F400F31F67
:101110008A288B28AF280030F8000030F900003012
:10112000FA008030FB007008F8027108031C710F90
:101130009A289B28F9027208031C720FA028A12884
:10114000FA027308031C730FA628A728FB027B086A
:10115000F3007A08F2007908F1007808F000F71F30
:10116000B228B328D7280030F8000030F90000304A
:10117000FA008030FB007408F8027508031C750F34
:10118000C228C328F9027608031C760FC828C9288C
:10119000FA027708031C770FCE28CF28FB027B08C2
:1011A000F7007A08F6007908F5007808F400803036
:1011B000F3068030F70677087302031DE9287608E6
:1011C0007202031DE92875087102031DE9287408DD
:1011D00070020318EC28ED28EF280310F028031400
:1011E000080083120313AC002C080319F828F9280F
:1011F0000D29A71FFC28FD280D292409AE0025096B
:10120000AF002609B0002709B100AE0A0319AF0AE2
:101210000319B00A0319B10A15292708B1002608D5
:10122000B0002508AF002408AE00270826042504D6
:101230002404031D1C291D2926290030A700003085
:10124000A6000030A5000030A400AC299630A8000C
:101250002808AD0038290130A8002808AD07013062
:101260000310B10CB00CAF0CAE0CFF3E031D3029C7
:10127000FE303105031D3D293E292B295A29013015
:10128000A8002808AD070130AE0700300318013070
:10129000AF07003003180130B007003003180130E9
:1012A000B10701300310B10CB00CAF0CAE0CFF3E17
:1012B000031D5229FF303105031D5F2960293F2995
:1012C0006C290130AD020130A8000310AE0DAF0D46
:1012D000B00DB10DA80B6529B01B6F2970297629B7
:1012E00002302D0203187529762961292D187929D4
:1012F0007A298229FF30AE05FF30AF057F30B00577
:10130000FF30B1050310AD0C2D08A800A901AA01FA
:10131000AB0118300310A80DA90DAA0DAB0DFF3EAF
:10132000031D8A292808AE042908AF042A08B0043E
:101330002B08B1042C0803199E299F29A429A71F53
:10134000A229A329A429B1173108A7003008A600B3
:101350002F08A5002E08A4000800831203133908E3
:101360008039BA003A08C3003908BA003A07BB000E
:101370003B08CA00B81FBD29BE29BF294A144A0824
:101380000319C329C429D4294A0A031DC829C92914
:10139000D1290030B9000030B8000030B70000306B
:1013A000B600B817B901DC290030B9000030B80028
:1013B0000030B7000030B60035088039BA003A086E
:1013C000C3063508BA003A07BB003B08CB00B41F80
:1013D000EA29EB29EC294B144B080319F029F129D0
:1013E000012A4B0A031DF529F629FE290030B50014
:1013F0000030B4000030B3000030B200B417B501C3
:10140000092A0030B5000030B4000030B3000030CD
:10141000B2003508340433043204031D102A112AA3
:101420002A2A0030B9000030B8000030B700003080
:10143000B6008030B8047F30B9044308BA003A08D7
:10144000B9043908B5003808B4003708B3003608C5
:10145000B200892B4A08031D2E2A2F2A382A003071
:10146000B5000030B4000030B3000030B200892B6A
:101470004A08BA00BB013B08BD004B083A02BC0059
:10148000031CBD033C087F3EC4003D080318013E19
:10149000003EC5003908C2003808C1003708C00046
:1014A0003608BF000030B9000030B8000030B70087
:1014B0000030B6000030C9000030C8000030C7005E
:1014C0000030C600CB01AE2A4B080319682A692AEE
:1014D000892A0130BA000310BF0DC00DC10DC20D25
:1014E000BA0B6B2A0130BA000310B60DB70DB80D58
:1014F000B90DBA0B742AC91F7E2A7F2A802A361496
:101500000130BA000310C60DC70DC80DC90DBA0BC6
:10151000822A35084202031D972A34084102031D1E
:10152000972A33084002031D972A32083F02031C02
:101530009A2A9B2AAA2A49173208BF023308031C99
:10154000330FC0023408031C340FC1023508031CDA
:10155000350FC2020130BA003A08CB071A304B02ED
:10156000031CB32AB42A642A4208410440043F04FD
:101570000319BB2ABC2ADB2A4614DB2A0130BA0035
:101580000310B60DB70DB80DB90DBA0BC02AC91F9F
:10159000CA2ACB2ACC2A36140130BA000310C60D51
:1015A000C70DC80DC90DBA0BCE2AFF30C4070318EA
:1015B000C50AFF30C507B81FDE2ADF2ABE2ACB01C5
:1015C000C91FE32AE42A002BFF304605BA00FF308A
:1015D0004705BB00FF304805BC007F304905BD0012
:1015E0003D083C043B043A040319F72AF82AFB2A75
:1015F000CB01CB0A002B361CFE2AFF2A002BF82A2F
:101600004B080319042B052B362B0130B60700308D
:1016100003180130B707003003180130B807003055
:1016200003180130B907391C162B172B362B360837
:10163000BA003708BB003808BC003908BD000130CB
:10164000BE003D0DBD0CBC0CBB0CBA0CBE0B212B5F
:101650003D08B9003C08B8003B08B7003A08B6009E
:101660000130C4070318C50A0030C5074508803A91
:10167000FF0080307F02031D3F2BFF304402031C1C
:10168000422B432B512BFF3083120313C400003035
:10169000C5000030B9000030B8000030B70000309D
:1016A000B600831203134508803AFF0080307F02A2
:1016B000031D5C2B0130440203185F2B602B6D2B44
:1016C00083120313C401C5010030B9000030B80013
:1016D0000030B7000030B600C30183120313440882
:1016E000BA003A08CA004A1C762B772B792BB81718
:1016F0007D2B7F30BA003A08B8054A08BA000310BB
:101700003A0CBB003B08B9004308BA003A08B904D8
:10171000212A08000A168A117E250A128A150A1241
:101720008A150A200A128A150A168A1131250A1208
:101730008A15F401F40A01300A168A11C4250A1226
:101740008A150130F3008030F4000A168A119C26B5
:101750000A128A15083083160313D7005708F400BD
:1017600001300A168A11C4250A128A150530F300C1
:101770008030F4000A168A119C260A128A150F304E
:1017800083160313D7005708F40001300A168A1194
:10179000C4250A128A150930F3008030F4000A16B5
:1017A0008A119C260A128A150A168A1112250A1213
:1017B0008A151130F0000030F1000A128A1500205D
:1017C0000A128A150030F000F1000A168A11362636
:1017D0000A128A15700883160313D7005708B3003E
:1017E0000A168A111B250A128A15843083160313E0
:1017F000D700D70BF92B00000A168A1112250A12FE
:101800008A152130F0000030F1000A128A150020FC
:101810000A128A150030F000F1000A168A113626E5
:101820000A128A15700883160313D7005708B200EE
:101830000A168A111B250A128A158430831603138F
:10184000D700D70B212C0000F401F40A02300A164D
:101850008A11C4250A128A15BE30F3000030F40044
:101860000A168A119C260A128A150530831603135C
:10187000D7005708F40002300A168A11C4250A124C
:101880008A150F30F3008030F4000A168A119C2666
:101890000A128A15073083160313D7005708F4007D
:1018A00002300A168A11C4250A128A15B430F300D0
:1018B0000030F4000A168A119C260A128A150B3091
:1018C00083160313D7005708F40002300A168A1152
:1018D000C4250A128A150D30F3008030F4000A1670
:1018E0008A119C260A128A15003083160313AD0054
:1018F0000030AC000030AB000030AA004030831252
:101900000313CF00A030CE000030CD000030CC005B
:101910004330B5007F30B4000030B3000030B20077
:10192000831603133308D700D801D901DA015A0806
:1019300083120313A700831603135908831203139A
:10194000A60083160313580883120313A5008316F9
:101950000313570883120313A40001300A128A15D7
:10196000F1200A128A15831203132708B9002608EA
:10197000B8002508B7002408B6000A128A15AD2160
:101980000A128A15831203133508D3003408D200D3
:101990003308D1003208D0000A128A1190200A12AE
:1019A0008A15831203134F0883160313AD008312A5
:1019B00003134E0883160313AC00831203134D0860
:1019C00083160313AB00831203134C08831603130F
:1019D000AA002D0883120313E900831603132C08B1
:1019E00083120313E800831603132B0883120313D7
:1019F000E700831603132A0883120313E60002305C
:101A0000EA000030EB00BE300A128A11F1230A12FC
:101A10008A15831603133208D700D801D901DA01D9
:101A20005A0883120313A70083160313590883125D
:101A30000313A60083160313580883120313A5008B
:101A400083160313570883120313A40000300A12ED
:101A50008A15F1200A128A158312031327088316A8
:101A60000313DE0083120313260883160313DD001D
:101A700083120313250883160313DC008312031358
:101A8000240883160313DB005E0883120313E900A6
:101A9000831603135D0883120313E80083160313F0
:101AA0005C0883120313E700831603135B08831299
:101AB0000313E6000230EA000030EB00B4300A12F3
:101AC0008A11F1230A128A15992B0A128A11002809
:101AD0007308803983120313A0002008F8007308EC
:101AE000A0002007A1002108FA00F21F782D792D0F
:101AF0007A2D7A147A0803197E2D7F2D8F2D7A0A7C
:101B0000031D832D842D8C2D0030F3000030F20056
:101B10000030F1000030F000F217F301972D003093
:101B2000F3000030F2000030F1000030F0007708E0
:101B30008039A0002008F900790878060319A12D42
:101B4000A22DA32D78177708A0002007A100210857
:101B5000F900F61FAC2DAD2DAE2D791479080319BF
:101B6000B22DB32DC32D790A031DB72DB82DC02D6D
:101B70000030F7000030F6000030F5000030F400CF
:101B8000F617F701CB2D0030F7000030F6000030DB
:101B9000F5000030F4007A0879020318D02DD12D19
:101BA000152E781FD42DD52DD92D8030A0002008DA
:101BB000F8067A08A0002008FB007908A000200899
:101BC000FA007B08A0002008F9007008A000200897
:101BD000FB007408A0002008F0007B08A00020088B
:101BE000F4007108A0002008FB007508A000200880
:101BF000F1007B08A0002008F5007208A000200872
:101C0000FB007608A0002008F2007B08A000200856
:101C1000F6007308A0002008FB007708A000200849
:101C2000F3007B08A0002008F700FB017908A00062
:101C3000A1012108A3007A082002A200031CA3032B
:101C40002308803AFF0080307F02031D292E1A30BE
:101C50002202031C2C2E2D2E6E2E7308720471048A
:101C60007004031D342E362E0130372E00308312BF
:101C70000313A0002008FB000030F3000030F20046
:101C80000030F1000030F0007908A0002008FA00D0
:101C9000742E7B1C4C2E4D2E582E7B088312031362
:101CA000A0000310200C0138A1002108FB005A2ECF
:101CB0000310FB0C701C5D2E5E2E5F2EFB17013097
:101CC00083120313A000730DF30CF20CF10CF00C53
:101CD000A00B632E0130A0002008FA0779087A02D1
:101CE000031C732E742E492E781B772E782EC72E48
:101CF0007A08031D7C2E7D2E862E0030F3000030E6
:101D0000F2000030F1000030F000FF2F7408F007FF
:101D1000750803110318013E03198F2EF107760889
:101D200003110318013E0319962EF20777080311D9
:101D30000318013E03199D2EF307731CA02EA12E3C
:101D40007F2F7B1CA42EA52EB02E7B08831203139D
:101D5000A0000310200C0138A1002108FB00B22EC6
:101D60000310FB0C701CB52EB62EB72EFB170130DE
:101D700083120313A000730DF30CF20CF10CF00CA2
:101D8000A00BBB2E0130A0002008FA077F2F73089C
:101D9000803AFF007708803A7F02031DD92E76082B
:101DA0007202031DD92E75087102031DD92E740805
:101DB00070020318DC2EDD2E372FFF308312031341
:101DC000A000FF30A100FF30A200FF30A300740884
:101DD000A4007508A5007608A6007708A70070087B
:101DE000A4027108031C710FF62EF72EA5027208CB
:101DF000031C720FFC2EFD2EA6027308031C730F2A
:101E0000022F032FA7022408A00725080318250F77
:101E10000A2F0B2FA10726080318260F102F112FAA
:101E2000A20727080318270AA3072308F30022089C
:101E3000F2002108F1002008F0008030A000200806
:101E4000F806FB09FB0A7B08031D272F282F452FC7
:101E50000130F007003003180130F107003003189B
:101E60000130F207003003180130F307452F7408E2
:101E7000F0027508031C750FF1027608031C760F3B
:101E8000F2027708031C770FF302730872047104DF
:101E90007004031D4C2F4D2F7B2F7B08031D512FEA
:101EA000522F7B2F0030F3000030F2000030F100A1
:101EB0000030F000FF2F013083120313A000031045
:101EC000F00DF10DF20DF30DA00B5F2FFB1F692F2D
:101ED0006A2F6B2F70147B1C6E2F6F2F722F0314C1
:101EE000FB0D742F0310FB0D7A080319782F792F3F
:101EF0007B2F0130FA02F21F7E2F7F2F5B2FF9011B
:101F0000FB1F832F842F922F7B087F390319892F82
:101F10008A2F8D2FF901F90A922F701C902F912F83
:101F2000922F8A2F79080319962F972FCD2F0130E2
:101F3000F007003003180130F107003003180130BA
:101F4000F207003003180130F307731CA82FA92FE4
:101F5000CD2F700883120313A0007108A10072082E
:101F6000A2007308A3000130A400230DA30CA20C4F
:101F7000A10CA00CA40BB52F2308F3002208F2003B
:101F80002108F1002008F0007A0A0319C82FC92F90
:101F9000CD2F0130A0002008FA077A0A0319D12FAB
:101FA000D22FD72F7A08031DD62FD72FE52F003039
:101FB000F3000030F2000030F1000030F0007A0849
:101FC000031DE32FE42FE52FF8017A1CE82FE92FFA
:101FD000EB2FF217F12F7F3083120313A00020089C
:101FE000F2057A0883120313A0000310200CA1004D
:101FF0002108F300F81FFD2FFE2FFF2FF317080015
:10200000FF1B0A2883137F1883170008840A03190B
:10201000FF0A080010308A000408840A820700348E
:10202000533431343A340034533432343A34003493
:10203000533433343A340034553400345634003495
:102A0800F000700883120313860008006400800138
:102A1800840A04060319003404060B2D0A168A11C9
:102A280024250A168A1183160313111408000A169E
:102A38008A1124250A168A11831603131115080012
:102A4800831603131419292D2A2D242D11081F3933
:102A5800031D2F2D302D242D080000300A168A1151
:102A680064250A168A1101300A168A1164250A1685
:102A78008A1108003F3406345B344F3466346D34B1
:102A88007D3407347F34673477347C3439345E34AA
:102A980079347134F20083120313091472080A1688
:102AA8008A1104250A168A118312031309150630A0
:102AB800F100F10B5D2D00008312031309110800CA
:102AC800F30083120313091073080A168A110425E8
:102AD8000A168A118312031309150B30F2006230AB
:102AE800F100F10B752DF20B752D00008312031305
:102AF8000911080083160317880189018316031337
:102B080085018601890183120313850186018901E4
:102B18000030A3000130A2008630A100A030A00040
:102B28000A168A1164260A168A1107300A168A11AB
:102B3800DE260A168A110800803083120313B506B0
:102B48003908F3003808F2003708F1003608F000B9
:102B58003508F7003408F6003308F5003208F400A9
:102B68000A128A1568250A168A1173088312031334
:102B7800B5007208B4007108B3007008B20008000C
:102B8800F6007603031DC92DCA2DD62D74087F3E85
:102B9800F5007508F70077080A168A1164250A16E1
:102BA8008A11E72D02307606031DDB2DDC2DE72D7B
:102BB8007408BF3EF5007508F70077080A168A11F1
:102BC80064250A168A110800F800F401F501700856
:102BD800F200F3017208F6007308F700781CF52D6F
:102BE800F62DFC2D7608F4070318F50A7708F50783
:102BF80001300310F60DF70DFF3E031DFD2D0310E8
:102C0800F80C7808031D092E0A2EF22D7508F1001C
:102C18007408F0000800FB01FC0183120313201C58
:102C2800162E172E1D2E2208FB070318FC0A230850
:102C3800FC0701300310A20DA30DFF3E031D1E2E3D
:102C480001300310A10CA00CFF3E031D252E200807
:102C58002104031D302E312E112E7C08A1007B0883
:102C6800A00008000A168A1124250A168A1183165C
:102C7800031391150A168A1124250A168A1183123C
:102C880003131308F200F3017208F4007308F50047
:102C98000A168A1124250A168A1170037104031D65
:102CA800562E572E5B2E8316031391125E2E831613
:102CB8000313911611167508F1007408F000080046
:102CC800283083120313940083160313910183128F
:102CD80003132008A4002108A5002208A600230841
:102CE800A70002300310A40DA50DA60DA70DFF3EE9
:102CF800031D762E2708F3002608F2002508F100A8
:102D08002408F0000030F7007A30F6001230F500A1
:102D18000030F4000A168A1133270A168A1170083F
:102D2800FF3E8316031393009401871507160800C6
:102D3800F801F901C12E78087307F6007408F50048
:102D48000318F50AF81FA92EF5037508F700770888
:102D580083120313FF00760884000A168A110020E4
:102D68000A168A110A168A114E250A168A11013086
:102D7800F8070318F90A0030F90778087307F6000E
:102D88007408F5000318F50AF81FCB2EF50375082B
:102D9800F700770883120313FF00760884000A16E9
:102DA8008A1100200A168A11003A031DDC2EDD2E36
:102DB8009F2E0800F200122F8F30831603138F0501
:102DC800312F831603130F088F3910388F00312FD6
:102DD8008F30831603138F05312F831603130F08C3
:102DE8008F3910388F00312F831603130F088F394E
:102DF80040388F00312F831603130F088F3950384E
:102E08008F00312F7030831603138F04312F8316F0
:102E180003130F088F3960388F00312F7208F000C4
:102E2800F1017108003A03191A2F0B2F7008003AA4
:102E38000319E02E013A0319E52E033A0319EC2E83
:102E4800013A0319F12E073A0319F82E013A03192A
:102E5800FF2E023A0319062F0B2F0F14080000301B
:102E6800FC000030FB000030FA000030F900730865
:102E78007204710470040319422F432F902FFD012F
:102E8800FD0A532F0130F8000310F00DF10DF20D7B
:102E9800F30DF80B482F0130F8007808FD07F31FF1
:102EA800562F572F462F0130F8000310F90DFA0D51
:102EB800FB0DFC0DF80B592F73087702031D6E2FBD
:102EC80072087602031D6E2F71087502031D6E2F9E
:102ED80070087402031C712F722F812F7008F4027E
:102EE8007108031C710FF5027208031C720FF602B9
:102EF8007308031C730FF702791401300310F30CE5
:102F0800F20CF10CF00CFF3E031D822F0130FD0284
:102F1800031D8F2F902F572F7C08F3007B08F2009A
:102F28007A08F1007908F0000800F601F11F9D2FDA
:102F38009E2FA52FF009F109F00A0319F10AF601ED
:102F4800F60AF31FA82FA92FB22FF209F309F20AE4
:102F58000319F30A0130F4007408F606F701F801C2
:102F6800700871040319B92FBA2FF12FF501F50A6A
:102F7800C82F01300310F00DF10DFF3E031DBE2FC9
:102F88000130F4007408F507F11FCB2FCC2FBD2FAB
:102F980001300310F70DF80DFF3E031DCD2F71080A
:102FA8007302031DD92F70087202031CDC2FDD2F5A
:102FB800E42F7008F2027108031CF303F30277147C
:102FC80001300310F10CF00CFF3E031DE52F01301A
:102FD800F502031DF02FF12FCC2F76080319F52FDA
:102FE800F62FFB2FF709F809F70A0319F80A7808EA
:082FF800F1007708F000080069
:04400E00C420FF3F8C
:00000001FF
