:020000040000FA
:060000000A128A11EE2F26
:100C64000A128A114E260A128A11831603131114CA
:100C740008000A128A114E260A128A1183160313D7
:100C8400111508000A128A114E260A128A117008D8
:100C94008312031393000800831603131419532EAD
:100CA400542E4E2E11081F39031D592E5A2E4E2E26
:100CB40008003F3406345B344F3466346D347D347D
:100CC40007347F34673477347C3439345E34793490
:100CD40071347E088A007F0882000A128A116B260A
:100CE4000A128A118000840A04087D06031900345C
:100CF400FF0A0319FE0A6F2E831603178801890160
:100D0400831603138501860183120313850186016B
:100D14000030B3000130B2008630B100A030B00022
:100D24000A128A11FB260A128A1107300A128A1142
:100D340033270A128A1108000A128A114E260A124F
:100D44008A118316031391150A128A114E260A1268
:100D54008A11831203131308F200F3017208F400DA
:100D64007308F5000A128A114E260A128A117003BA
:100D74007104031DBE2EBF2EC32E831603139112BE
:100D8400C62E83160313911611167508F100740804
:100D9400F00008000A128A117E260A128A110A1229
:100DA4008A1132260A128A115130F0000030F10003
:100DB4000A128A1144260A128A110030F000F10046
:100DC4000A128A119E260A128A11700883120313CA
:100DD40086000A128A113B260A128A118430831271
:100DE4000313B800B80BF42E0000D12E0A128A1196
:100DF40000282830831203139400831603139101EF
:100E0400831203133008B4003108B5003208B60069
:100E14003308B70002300310B40DB50DB60DB70D8D
:100E2400FF3E031D0D2F3708F3003608F200350886
:100E3400F1003408F0000030F7007A30F600123088
:100E4400F5000030F4000A128A1188270A128A1168
:100E54007008FF3E83160313930094018715071649
:100E64000800F200672F8F30831603138F05862F37
:100E7400831603130F088F3910388F00862F8F3095
:100E8400831603138F05862F831603130F088F39D8
:100E940010388F00862F831603130F088F394038BC
:100EA4008F00862F831603130F088F3950388F0055
:100EB400862F7030831603138F04862F8316031333
:100EC4000F088F3960388F00862F7208F000F10107
:100ED4007108003A03196F2F602F7008003A031944
:100EE400352F013A03193A2F033A0319412F013AD6
:100EF4000319462F073A03194D2F013A0319542FAA
:100F0400023A03195B2F602F0F1408000030FC0015
:100F14000030FB000030FA000030F900730872045E
:100F2400710470040319972F982FE52FFD01FD0A12
:100F3400A82F0130F8000310F00DF10DF20DF30DA0
:100F4400F80B9D2F0130F8007808FD07F31FAB2F35
:100F5400AC2F9B2F0130F8000310F90DFA0DFB0D97
:100F6400FC0DF80BAE2F73087702031DC32F720814
:100F74007602031DC32F71087502031DC32F700869
:100F84007402031CC62FC72FD62F7008F4027108F1
:100F9400031C710FF5027208031C720FF60273082A
:100FA400031C730FF702791401300310F30CF20CD5
:100FB400F10CF00CFF3E031DD72F0130FD02031D81
:100FC400E42FE52FAC2F7C08F3007B08F2007A08AD
:100FD400F1007908F000080083133030FD0006307A
:100FE400FE005B30FF00203084000A128A116F2655
:0C0FF4000A128A1183010A128A11CC2E05
:04400E00C420FF3F8C
:00000001FF
