:020000040000FA
:060000000A128A110C280F
:10000800FE00030EF1000A08F2000A168A11152DE7
:100018000A128A110F288313C730FD001430FE001E
:100028000630FF00B73084000A168A112C240A1201
:100038008A1183160313C701C801C901CA01CB017C
:10004800CC01CD01CE01CF01D001D101D201D30124
:10005800D401F801F901FA0183010A168A11EE2D7B
:10006800FF0000308A007F08820739280A168A11A3
:10007800FD2B83160313A400831203136008F600F4
:100088005F08F5005E08F4005D08F3000A168A119F
:100098005D260A128A11740883160313A1007308D7
:1000A800A000AB01AC01A901AA010130AD000030EC
:1000B800AE00831203136008A3005F08A2005E0865
:1000C800A1005D08A0000030A7000030A6000030A5
:1000D800A5000030A4000A168A115C270A128A11AA
:1000E800031877287828C628BF3083120313C60060
:1000F8008030C5000030C4000030C3006008CA006A
:100108005F08C9005E08C8005D08C7000A128A11A6
:1001180031240A128A11831203134608E0004508A5
:10012800DF004408DE004308DD002D30E3008316BD
:1001380003132408840083120313630883138000C5
:10014800013083160313A9070318AA0A0030AA0767
:10015800C6280A30F3000030F4002108F600200811
:10016800F5000A128A1192270A128A117408831656
:100178000313A1007308A0000130AB070318AC0AF1
:100188000030AC078316031320082104031DCD2873
:10019800CE28AD28EA292B032C04031DD428D52802
:1001A800DA280130AD000030AE001C290230A20070
:1001B8000030A3000629831603132E0883120313A5
:1001C800A800831603132D0883120313A7000A300F
:1001D800A9000030AA000A168A119C240A128A1162
:1001E80083120313280883160313AE008312031324
:1001F800270883160313AD000130A2070318A30ACA
:100208000030A3072C08803A83120313E3008316F7
:1002180003132308803A831203136302031D18296A
:100228008316031322082B0203181B291C29DF2815
:10023800831603132D0883120313AD0083160313CB
:100248002E0883120313AE000030AE1BFF30AF0040
:10025800B00001300A128A1544200A128A1183124A
:1002680003133008BE002F08BD002E08BC002D085F
:10027800BB006008C2005F08C1005E08C0005D08DE
:10028800BF000A128A1593230A128A1183120313D4
:100298003E0883160313A800831203133D08831630
:1002A8000313A700831203133C0883160313A60045
:1002B800831203133B0883160313A5002E08831229
:1002C8000313AA00831603132D0883120313A9002E
:1002D800831603132808F6002708F5002608F400FB
:1002E8002508F3000A168A115D260A128A11740875
:1002F80083120313A8007308A7000A168A119C2406
:100308000A128A11831203132708AD002808AE00C9
:100318000030AE1BFF30AF00B00001300A128A1562
:1003280044200A128A11831203133008BE002F08D2
:10033800BD002E08BC002D08BB006008C2005F0885
:10034800C1005E08C0005D08BF000A168A11782443
:100358000A128A11831203133E08E0003D08DF00E9
:100368003C08DE003B08DD00831603132808F6006E
:100378002708F5002608F4002508F3000A168A1154
:100388005D260A128A117308303E83120313E300B4
:10039800831603132908240783120313E40064084F
:1003A8008400630883138000013083160313A907B0
:1003B8000318AA0A0030AA07FF30AB070318AC0AD3
:1003C800FF30AC070130AD000030AE002B082C0424
:1003D800031DEF29F029CF282E3083120313E300E1
:1003E800831603132908240783120313E4006408FF
:1003F8008400630883138000013083160313A90760
:100408000318AA0A0030AA070130A2000030A3008E
:10041800342A831603132E0883120313A8008316A5
:1004280003132D0883120313A7000A30A900003014
:10043800AA000A168A119C240A128A11831203132D
:10044800280883160313AE008312031327088316A4
:100458000313AD000130A2070318A30A0030A30755
:10046800831203136208803AE300831603132308F8
:10047800803A831203136302031D482A8316031369
:10048800220883120313610203184B2A4C2A0D2AEF
:10049800831603132D0883120313AD008316031369
:1004A8002E0883120313AE000030AE1BFF30AF00DE
:1004B800B00001300A128A1544200A128A118312E8
:1004C80003133008C6002F08C5002E08C4002D08E5
:1004D800C3006008F6005F08F5005E08F4005D08D8
:1004E800F3000A168A115D260A128A11730883120C
:1004F8000313AD007408AE000030AE1BFF30AF0030
:10050800B00001300A128A1544200A128A11831297
:1005180003133008BE002F08BD002E08BC002D08AC
:10052800BB006008C2005F08C1005E08C0005D082B
:10053800BF000A168A1178240A128A11831203133B
:100548003E08CA003D08C9003C08C8003B08C7006F
:100558000A128A1131240A128A11831203134608D7
:1005680083160313A8008312031345088316031385
:10057800A70083120313440883160313A6008312EB
:100588000313430883160313A500280883120313D3
:10059800E00083160313270883120313DF00831672
:1005A8000313260883120313DE008316031325089A
:1005B80083120313DD006008F6005F08F5005E088B
:1005C800F4005D08F3000A168A115D260A128A11E2
:1005D800013083160313AD000030AE0083120313FD
:1005E800620883160313AC00831203136108831691
:1005F8000313AB001A2C2B032C04031D042B052B0F
:100608000A2B0130AD000030AE004C2B0230A200A6
:100618000030A300362B831603132E08831203130E
:10062800A800831603132D0883120313A7000A30AA
:10063800A9000030AA000A168A119C240A128A11FD
:1006480083120313280883160313AE0083120313BF
:10065800270883160313AD000130A2070318A30A65
:100668000030A3072C08803A83120313E300831693
:1006780003132308803A831203136302031D482BD4
:100688008316031322082B0203184B2B4C2B0F2B1A
:10069800831603132D0883120313AD008316031367
:1006A8002E0883120313AE000030AE1BFF30AF00DC
:1006B800B00001300A128A1544200A128A118312E6
:1006C80003133008BE002F08BD002E08BC002D08FB
:1006D800BB006008C2005F08C1005E08C0005D087A
:1006E800BF000A128A1593230A128A118312031370
:1006F8003E0883160313A800831203133D088316CC
:100708000313A700831203133C0883160313A600E0
:10071800831203133B0883160313A5002E088312C4
:100728000313AA00831603132D0883120313A900C9
:10073800831603132808F6002708F5002608F40096
:100748002508F3000A168A115D260A128A11740810
:1007580083120313A8007308A7000A168A119C24A1
:100768000A128A11831203132708AD002808AE0065
:100778000030AE1BFF30AF00B00001300A128A15FE
:1007880044200A128A11831203133008BE002F086E
:10079800BD002E08BC002D08BB006008C2005F0821
:1007A800C1005E08C0005D08BF000A168A117824DF
:1007B8000A128A11831203133E08E0003D08DF0085
:1007C8003C08DE003B08DD00831603132808F6000A
:1007D8002708F5002608F4002508F3000A168A11F0
:1007E8005D260A128A117308303E83120313E30050
:1007F800831603132908240783120313E4006408EB
:100808008400630883138000013083160313A9074B
:100818000318AA0A0030AA07FF30AB070318AC0A6E
:10082800FF30AC070130AD000030AE002B082C04BF
:10083800031D1F2C202CFF2A0A3083120313E30008
:10084800831603132908240783120313E40064089A
:10085800840063088313800008008312031346088A
:100868008039CB004B08D0004608CB004B07CC00A2
:100878004C08D600C51F412C422C432C5614560850
:100888000319472C482C572C560A031D4C2C4D2C69
:10089800552C0030C6000030C5000030C4000030C0
:1008A800C300C5175F2C0030C6000030C5000030FB
:1008B800C4000030C3004A088039CB004B08D0067A
:1008C8004A08CB004B07CC004C08D100C91F6D2C3F
:1008D8006E2C6F2C511451080319732C742C832C13
:1008E800510A031D782C792C812C0030CA00003065
:1008F800C9000030C8000030C700C9178B2C003071
:10090800CA000030C9000030C8000030C7005108D4
:1009180003198F2C902C952C5608031D942C952C7C
:100928009E2C0030C6000030C5000030C4000030E6
:10093800C300912F4308CB004B08F30049080A165F
:100948008A11C3240A128A11740883120313DC0063
:100958007308DB005B08CB00CC01CD01CE014E084B
:10096800D5004D08D4004C08D3004B08D2005C08D1
:10097800CB00CC01CD01CE014E08DA004D08D900DC
:100988004C08D8004B08D7004408CB004B08F300AC
:1009980048080A168A11C3240A128A117408831295
:1009A8000313DC007308DB005B08CB00CC01CD012E
:1009B800CE014B08D2074C0803110318013E031956
:1009C800E62CD3074D0803110318013E0319ED2C3B
:1009D800D4074E0803110318013E0319F42CD50758
:1009E8005C08CB00CC01CD01CE014B08D7074C08E1
:1009F80003110318013E0319022DD8074D080311EE
:100A08000318013E0319092DD9074E0803110318CD
:100A1800013E0319102DDA074508CB004B08F300F7
:100A280047080A168A11C3240A128A117408831205
:100A38000313DC007308DB005B08CB00CC01CD019D
:100A4800CE014B08D2074C0803110318013E0319C5
:100A58002E2DD3074D0803110318013E0319352D18
:100A6800D4074E0803110318013E03193C2DD5077E
:100A78005C08CB00CC01CD01CE014B08D7074C0850
:100A880003110318013E03194A2DD8074D08031115
:100A98000318013E0319512DD9074E0803110318F5
:100AA800013E0319582DDA070830CB000310D20D88
:100AB800D30DD40DD50DCB0B5A2D4408CB004B08C4
:100AC800F30047080A168A11C3240A128A11740807
:100AD80083120313DC007308DB005B08CB005C089F
:100AE800CC00CD01CE014B08D2074C0803110318E6
:100AF800013E0319802DD3074D0803110318013E49
:100B08000319872DD4074E0803110318013E031952
:100B18008E2DD5074308CB004B08F30048080A166A
:100B28008A11C3240A128A11740883120313DC0081
:100B38007308DB005B08CB005C08CC00CD01CE015C
:100B48004B08D2074C0803110318013E0319AD2DB9
:100B5800D3074D0803110318013E0319B42DD40718
:100B68004E0803110318013E0319BB2DD5070830A1
:100B7800CB000310D20DD30DD40DD50DCB0BBD2D4D
:100B88004308CB004B08F30047080A168A11C32410
:100B98000A128A11740883120313DC007308DB003D
:100BA8005B08CB005C08CC00CD01CE014B08D20716
:100BB8004C0803110318013E0319E32DD3074D0810
:100BC80003110318013E0319EA2DD4074E08031137
:100BD8000318013E0319F12DD5074408CB004B0833
:100BE800F30049080A168A11C3240A128A117408E4
:100BF80083120313DC007308DB005B08CB005C087E
:100C0800CC00CD01CE014B08D7074C0803110318BF
:100C1800013E0319102ED8074D0803110318013E91
:100C28000319172ED9074E0803110318013E03199B
:100C38001E2EDA074508CB004B08F30048080A16B1
:100C48008A11C3240A128A11740883120313DC0060
:100C58007308DB005B08CB005C08CC00CD01CE013B
:100C68004B08D7074C0803110318013E03193D2E02
:100C7800D8074D0803110318013E0319442ED9075C
:100C88004E0803110318013E03194B2EDA074508D5
:100C9800CB004B08F30049080A168A11C3240A122C
:100CA8008A11740883120313DC007308DB005B08E5
:100CB800CB005C08CC00CD01CE0108300310CB0D71
:100CC800CC0DCD0DCE0DFF3E031D622E4B08D70770
:100CD8004C0803110318013E0319732ED8074D0859
:100CE80003110318013E03197A2ED9074E08031180
:100CF8000318013E0319812EDA075208CB00530866
:100D0800CC005408CD005508CE0018300310CE0C86
:100D1800CD0CCC0CCB0CFF3E031D8A2E4B08D707FD
:100D28004C0803110318013E03199B2ED8074D08E0
:100D380003110318013E0319A22ED9074E08031107
:100D48000318013E0319A92EDA070830CB00031057
:100D5800D20DD30DD40DD50DCB0BAB2E56085107A4
:100D6800CB00CC01CC0D4B08823EDB004C080318AD
:100D7800013EFF3EDC00DD2E0130CB000310D70D15
:100D8800D80DD90DDA0DCB0BC22ED51FCC2ECD2EFA
:100D9800CE2E57140130CB000310D20DD30DD40D35
:100DA800D50DCB0BD02EFF30DB070318DC0AFF3044
:100DB800DC07D91FE02EE12EC02ED101D51FE52E6C
:100DC800E62E022FFF305205CB00FF305305CC0032
:100DD800FF305405CD007F305505CE004E084D0438
:100DE8004C044B040319F92EFA2EFD2ED101D10A19
:100DF800022F571C002F012F022FFA2E510803191A
:100E0800062F072F382F0130D7070030031801307D
:100E1800D807003003180130D90700300318013013
:100E2800DA075A1C182F192F382F5708CB005808E3
:100E3800CC005908CD005A08CE000130CF004E0D25
:100E4800CE0CCD0CCC0CCB0CCF0B232F4E08DA00DC
:100E58004D08D9004C08D8004B08D7000130DB07F3
:100E68000318DC0A0030DC075C08803AFF00803099
:100E78007F02031D412FFF305B02031C442F452FC7
:100E8800502F7F3083120313DA008030D9000030EE
:100E9800D8000030D700852F831203135C08803AEE
:100EA800FF0080307F02031D5B2F01305B020318B7
:100EB8005E2F5F2F6B2F003083120313DA00003090
:100EC800D9000030D8000030D700D001852F831218
:100ED80003135B08CB004B08D600FF30D705FF3063
:100EE800D8057F30D9050030DA05561C7C2F7D2FB8
:100EF8007E2FD9175608CB0003104B0CCC004C089A
:100F0800DA005008CB004B08DA045A08C600590822
:100F1800C5005808C4005708C3000800831203130B
:100F2800A101F41F982F992FA02FF309F409F30AB0
:100F38000319F40AA101A10AF61FA32FA42FAD2FAC
:100F4800F509F609F50A0319F60A0130F7007708DA
:100F5800A106A201A301730874040319B42FB52FC5
:100F6800EC2FA001A00AC32F01300310F30DF40DDC
:100F7800FF3E031DB92F0130F7007708A007F41FC3
:100F8800C62FC72FB82F01300310A20DA30DFF3EA7
:100F9800031DC82F74087602031DD42F7308750229
:100FA800031CD72FD82FDF2F7308F5027408031CF2
:100FB800F603F602221401300310F40CF30CFF3E82
:100FC800031DE02F0130A002031DEB2FEC2FC72FCC
:100FD80021080319F02FF12FF62FA209A309A20A5D
:0E0FE8000319A30A2308F4002208F3000800EE
:10100E003F3083120313C2004208B6003F08B800F7
:10101E003E08B70057300A168A1155240A128A154F
:10102E003F3083120313C2004208B6004108B800D5
:10103E004008B70043300A168A1155240A128A1541
:10104E00433083120313C2004208F30057300A16CE
:10105E008A11EC240A128A1557300A168A11D926DB
:10106E000A128A15831203132E08EC002D08EB00CA
:10107E006C08BF006B08BE00080083120313B50096
:10108E00350803194B284C286028B01F4F285028CC
:10109E0060282D09B7002E09B8002F09B9003009B4
:1010AE00BA00B70A0319B80A0319B90A0319BA0A1A
:1010BE0068283008BA002F08B9002E08B8002D088D
:1010CE00B70030082F042E042D04031D6F2870283E
:1010DE0079280030B0000030AF000030AE00003094
:1010EE00AD00FF289630B1003108B6008B280130D4
:1010FE00B1003108B60701300310BA0CB90CB80CA8
:10110E00B70CFF3E031D8328FE303A05031D9028C1
:10111E0091287E28AD280130B1003108B607013084
:10112E00B707003003180130B8070030031801303C
:10113E00B907003003180130BA0701300310BA0C9A
:10114E00B90CB80CB70CFF3E031DA528FF303A05AD
:10115E00031DB228B3289228BF280130B6020130F1
:10116E00B1000310B70DB80DB90DBA0DB10BB828FB
:10117E00B91BC228C328C928023036020318C82852
:10118E00C928B4283618CC28CD28D528FF30B70565
:10119E00FF30B8057F30B905FF30BA050310B60C25
:1011AE003608B100B201B301B40118300310B10D0D
:1011BE00B20DB30DB40DFF3E031DDD283108B7048B
:1011CE003208B8043308B9043408BA0435080319D0
:1011DE00F128F228F728B01FF528F628F728BA17B5
:1011EE003A08B0003908AF003808AE003708AD0035
:1011FE000800043083160313A2000C30A100333014
:10120E00A000A00B0829A10B0829A20B0829423027
:10121E0083120313B6008030B7000A168A113B24DE
:10122E000A128A15043083160313A2000C30A10093
:10123E003330A000A00B2129A10B2129A20B2129BB
:10124E00CB3083120313B6000030B7000A168A1192
:10125E003B240A128A15833083120313B6008030A2
:10126E00B7000A168A113B240A128A150B30831214
:10127E000313B6008030B7000A168A113B240A12F7
:10128E008A15831203138C1E4D294E2948291A08DC
:10129E00D03E83160313A0002008F80033308312CB
:1012AE0003131A0203185C295D2948296F30B60012
:1012BE008030B7000A168A113B240A128A1583124F
:1012CE0003138C1E6B296C2966291A08D03E8316CF
:1012DE000313A0002008F90002307806031D7829B8
:1012EE00792981293630831203131A0203188029B3
:1012FE00812966295A308312B6008030B7000A164B
:10130E008A113B240A128A15831203138C1E90290C
:10131E0091298B291A08D03E83160313A0002008AA
:10132E00FA0002307806031D9D299E29AC2905304E
:10133E007906031DA329A429AC2936308312031381
:10134E001A020318AB29AC298B29780883160313CC
:10135E00A000A101200883120313BE0083160313FD
:10136E00210883120313BF00790883160313A2000A
:10137E00A301220883120313C0008316031323084C
:10138E0083120313C1000A128A1507200A128A1546
:10139E00831203133E0883160313A4002408C90006
:1013AE004908A000A101200883120313BE00831672
:1013BE000313210883120313BF007A088316031345
:1013CE00A200A301220883120313C0008316031385
:1013DE00230883120313C1000A128A1507200A126A
:1013EE008A15831203133F0883160313C800831252
:1013FE0003133E0883160313C7000330831603132B
:10140E00A2008A30A1005530A000A00B0C2AA10B1F
:10141E000C2AA20B0C2A293083120313B60080303B
:10142E00B70083160313480883120313B9008316FB
:10143E000313470883120313B8000A168A113B24BC
:10144E000A128A15080083120313B500762B253075
:10145E0034060319332A342A5A2A350A8400831390
:10146E00000803193B2A3C2A4B2A3408AC002C08EE
:10147E00F300350A840000080A128A1134200A1279
:10148E008A15831203132D2A3408AC003508840004
:10149E00000884002C0880000130AC003508840060
:1014AE002C0880072D2AB001822A350A8400831366
:1014BE0000080319632A642A732A3408AC002C0826
:1014CE00F300350A840000080A128A1134200A1229
:1014DE008A15831203132D2A3408AC0035088400B4
:1014EE00000884002C0880000130AC003508840010
:1014FE002C0880072D2A2A08AD002908AC00A90A5D
:10150E000319AA0A2D08FF002C0884000A168A1156
:10151E0000200A128A15B400AE00AF012F08003A5F
:10152E0003199A2A5C2A2E08003A0319902B643A62
:10153E000319A52A0D3A0319A52A5C2A2B08840043
:10154E0083130008AC00023080072C0884000008CA
:10155E00B200840A0008B300B31FB62AB72AC02A05
:10156E000330AC002C08B004B209B309B20A031957
:10157E00B30AB401B40A3408AC002C07013E84004F
:10158E000A168A110A200A128A15AD000A168A1145
:10159E000A200A128A15AE002E083302031DD92A1C
:1015AE002D0832020318DC2ADD2ADE2AE82A013051
:1015BE00AC002C08B40705303406031DE72AE82AD0
:1015CE00C22A300803390319ED2AEE2A112B350AE7
:1015DE008400831300080319F52AF62A032B2D30F5
:1015EE00AC002C08F300350A840000080A128A1198
:1015FE0034200A128A15112B2D30AC0035088400C8
:10160E00000884002C0880000130AC0035088400EE
:10161E002C088007831203133408AC002C08B10089
:10162E006B2B0A30A3000030A4003108AC002C074D
:10163E00013E84000A168A110A200A128A15F30046
:10164E000A168A110A200A128A15F4003308F600C7
:10165E003208F5000A168A11A8250A128A1574088E
:10166E0083120313A6007308A5000A168A116C25AF
:10167E000A128A15831203132308303EAD002D087B
:10168E00B400350A84008313000803194F2B502B26
:10169E005D2B3408AC002C08F300350A84000008DA
:1016AE000A128A1134200A128A156B2B3408AC00E8
:1016BE0035088400000884002C0880000130AC003E
:1016CE00350884002C088007FF3083120313AC000A
:1016DE002C08B107310A031D752B762B182B83129C
:1016EE0003132A08AD002908AC00A90A0319AA0A97
:1016FE002D08FF002C0884000A168A1100200A12F9
:10170E008A15AE002E08B4003408031D8F2B902BC3
:10171E002E2AA901AA010800831203134208803958
:10172E00C3004308CC004208C3004307C40044086A
:10173E00D300C11FA32BA42BA52B5314530803199D
:10174E00A92BAA2BBA2B530A031DAE2BAF2BB72BEB
:10175E000030C2000030C1000030C0000030BF00B9
:10176E00C117C201C22B0030C2000030C1000030D0
:10177E00C0000030BF003E088039C3004308CC06CD
:10178E003E08C3004307C4004408D400BD1FD02B3D
:10179E00D12BD22B541454080319D62BD72BE72B4D
:1017AE00540A031DDB2BDC2BE42B0030BE00003073
:1017BE00BD000030BC000030BB00BD17BE01EF2BDA
:1017CE000030BE000030BD000030BC000030BB0059
:1017DE003E083D043C043B04031DF62BF72B102C56
:1017EE000030C2000030C1000030C0000030BF0029
:1017FE008030C1047F30C2044C08C3004308C204C9
:10180E004208BE004108BD004008BC003F08BB00B6
:10181E006F2D5308031D142C152C1E2C0030BE00EA
:10182E000030BD000030BC000030BB006F2D5308EF
:10183E00C300C4014408C60054084302C500031C7B
:10184E00C60345087F3ECD0046080318013E003E04
:10185E00CE004208CB004108CA004008C9003F082C
:10186E00C8000030C2000030C1000030C00000309F
:10187E00BF000030D2000030D1000030D000003068
:10188E00CF00D401942C540803194E2C4F2C6F2CDE
:10189E000130C3000310C80DC90DCA0DCB0DC30B0B
:1018AE00512C0130C3000310BF0DC00DC10DC20D70
:1018BE00C30B5A2CD21F642C652C662C3F1401309E
:1018CE00C3000310CF0DD00DD10DD20DC30B682C5C
:1018DE003E084B02031D7D2C3D084A02031D7D2C44
:1018EE003C084902031D7D2C3B084802031C802C3A
:1018FE00812C902C52173B08C8023C08031C3C0F4D
:10190E00C9023D08031C3D0FCA023E08031C3E0FD0
:10191E00CB020130C3004308D4071A305402031C13
:10192E00992C9A2C4A2C4B084A0449044804031952
:10193E00A12CA22CC12C4F14C12C0130C3000310BA
:10194E00BF0DC00DC10DC20DC30BA62CD21FB02CE6
:10195E00B12CB22C3F140130C3000310CF0DD00DAB
:10196E00D10DD20DC30BB42CFF30CD070318CE0A08
:10197E00FF30CE07C11FC42CC52CA42CD401D21FFE
:10198E00C92CCA2CE62CFF304F05C300FF30500582
:10199E00C400FF305105C5007F305205C600460811
:1019AE004504440443040319DD2CDE2CE12CD40140
:1019BE00D40AE62C3F1CE42CE52CE62CDE2C540835
:1019CE000319EA2CEB2C1C2D0130BF070030031835
:1019DE000130C007003003180130C1070030031872
:1019EE000130C207421CFC2CFD2C1C2D3F08C300ED
:1019FE004008C4004108C5004208C6000130C700B7
:101A0E00460DC60CC50CC40CC30CC70B072D4608DF
:101A1E00C2004508C1004408C0004308BF000130A1
:101A2E00CD070318CE0A0030CE074E08803AFF00CD
:101A3E0080307F02031D252DFF304D02031C282D03
:101A4E00292D372DFF3083120313CD000030CE0029
:101A5E000030C2000030C1000030C0000030BF00B6
:101A6E00831203134E08803AFF0080307F02031D5D
:101A7E00422D01304D020318452D462D532D831254
:101A8E000313CD01CE010030C2000030C100003082
:101A9E00C0000030BF00CC01831203134D08C300F9
:101AAE004308D300531C5C2D5D2D5F2DC117632D94
:101ABE007F30C3004308C1055308C3000310430C15
:101ACE00C4004408C2004C08C3004308C204072CDB
:101ADE0008008312031323088039A8002808F30096
:101AEE002308A8002807A9002908F500A21F802DA9
:101AFE00812D822D751475080319862D872D972D2E
:101B0E00750A031D8B2D8C2D942D0030A3000030F3
:101B1E00A2000030A1000030A000A217A3019F2D4B
:101B2E000030A3000030A2000030A1000030A00061
:101B3E0027088039A8002808F400740873060319D2
:101B4E00A92DAA2DAB2D73172708A8002807A900C9
:101B5E002908F400A61FB42DB52DB62D74147408E3
:101B6E000319BA2DBB2DCB2D740A031DBF2DC02D0D
:101B7E00C82D0030A7000030A6000030A5000030B0
:101B8E00A400A617A701D32D0030A7000030A60091
:101B9E000030A5000030A400750874020318D82D7B
:101BAE00D92D1D2E731FDC2DDD2DE12D8030A800CB
:101BBE002808F3067508A8002808F6007408A8007F
:101BCE002808F5007608A8002808F4002008A800C8
:101BDE002808F6002408A8002808A0007608A80007
:101BEE002808A4002108A8002808F6002508A80047
:101BFE002808A1007608A8002808A5002208A80039
:101C0E002808F6002608A8002808A2007608A800D2
:101C1E002808A6002308A8002808F6002708A80010
:101C2E002808A3007608A8002808A700F601740863
:101C3E00A800A9012908AB0075082802AA00031CF8
:101C4E00AB032B08803AFF0080307F02031D312E3C
:101C5E001A302A02031C342E352E762E83120313CD
:101C6E002308220421042004031D3E2E402E0130A1
:101C7E00412E0030A8002808F6000030A3000030E6
:101C8E00A2000030A1000030A0007408A8002808AF
:101C9E00F5007C2E761C542E552E602E760883125F
:101CAE000313A8000310280C0138A9002908F60018
:101CBE00622E0310F60C83120313201C672E682E5F
:101CCE00692EF6170130A800230DA30CA20CA10C4F
:101CDE00A00CA80B6B2E0130A8002808F50774087D
:101CEE007502031C7B2E7C2E512E731B7F2E802E95
:101CFE00CF2E7508031D842E852E902E0030831254
:101D0E000313A3000030A2000030A1000030A00099
:101D1E00FF2F831203132408A007250803110318AD
:101D2E00013E03199B2EA107260803110318013E3D
:101D3E000319A22EA207270803110318013E031947
:101D4E00A92EA307231CAC2EAD2E852F761CB02EEC
:101D5E00B12EBA2E7608A8000310280C0138A9005F
:101D6E002908F600BC2E0310F60C201CBF2EC02E28
:101D7E00C12EF6170130A800230DA30CA20CA10C46
:101D8E00A00CA80BC32E0130A8002808F507852F3C
:101D9E00831203132308803AFF002708803A7F023C
:101DAE00031DE32E26082202031DE32E2508210221
:101DBE00031DE32E240820020318E62EE72E3F2FE4
:101DCE00FF30A800FF30A900FF30AA00FF30AB00A3
:101DDE002408AC002508AD002608AE002708AF0089
:101DEE002008AC022108031C210FFE2EFF2EAD028F
:101DFE002208031C220F042F052FAE022308031CFA
:101E0E00230F0A2F0B2FAF022C08A8072D0803183B
:101E1E002D0F122F132FA9072E0803182E0F182F70
:101E2E00192FAA072F0803182F0AAB072B08A30098
:101E3E002A08A2002908A1002808A0008030A800C6
:101E4E002808F306F609F60A7608031D2F2F302F01
:101E5E004D2F0130A007003003180130A1070030CC
:101E6E0003180130A207003003180130A3074D2FCD
:101E7E002408A0022508031C250FA1022608031C16
:101E8E00260FA2022708031C270FA30223082204F1
:101E9E0021042004031D542F552F812F7608031D76
:101EAE00592F5A2F812F0030A3000030A20000308E
:101EBE00A1000030A000FF2F0130A8000310A00DDC
:101ECE00A10DA20DA30DA80B652FF61F6F2F702F5E
:101EDE00712F2014761C742F752F782F0314F60D86
:101EEE007A2F0310F60D750803197E2F7F2F812F81
:101EFE000130F502A21F842F852F632FF401F61FE8
:101F0E00892F8A2F982F76087F3903198F2F902FBC
:101F1E00932FF401F40A982F201C962F972F982FA9
:101F2E00902F740803199C2F9D2FD12F0130A007DD
:101F3E00003003180130A107003003180130A2074A
:101F4E00003003180130A307231CAE2FAF2FD12F63
:101F5E002008A8002108A9002208AA002308AB0027
:101F6E000130AC002B0DAB0CAA0CA90CA80CAC0BC1
:101F7E00B92F2B08A3002A08A2002908A1002808BF
:101F8E00A000750A0319CC2FCD2FD12F0130A80038
:101F9E002808F507750A0319D52FD62FDB2F7508DC
:101FAE00031DDA2FDB2FE92F0030A3000030A20033
:101FBE000030A1000030A0007508031DE72FE82FA8
:101FCE00E92FF301751CEC2FED2FEF2FA217F32F36
:101FDE007F30A8002808A2057508A8000310280C59
:101FEE00A9002908A300F31FFD2FFE2FFF2FA31713
:101FFE000800FF1B0A2883137F1883170008840A22
:10200E000319FF0A080010308A000408840A8207A8
:10201E000034013400340A34003464340034E834BB
:10202E0003341034273449346E34673472346534D3
:10203E007334613472342034433465346E34743402
:10204E0065346E3461343A342034523461346E3433
:10205E0067346F34283430342D34323429340D340F
:10206E00003445346C3420346E3475346D3465343C
:10207E0072346F34203465346C34653467346934AB
:10208E0064346F342034653473343A342034253458
:10209E00643400340D342034763461346C346F344F
:1020AE0072342034643465346C34203463346F34C9
:1020BE006E347434613464346F3472343A34203490
:1020CE000D34003449346E346734723465347334ED
:1020DE0061347234203455346E346934643461346E
:1020EE006434653473343A3420340D340034493456
:1020FE006E34673472346534733461347234203420
:10210E0044346534633465346E34613473343A3434
:10211E0020340D3400340D342D342D342D342D3423
:10212E002D342D342D342D342D342D342D342D3499
:0A213E002D342D342D340D340034FF
:1027FA00831203130C1E022C032CFD2B7308990061
:10280A0008003F3406345B344F3466346D347D340B
:10281A0007347F34673477347C3439345E3479341E
:10282A007134F400F3013A30740203181D2C1E2C83
:10283A00262C30307402031C232C242C262CF30162
:10284A00F30A730C08007E088A007F0882000A16C1
:10285A008A1128240A168A118000840A04087D062F
:10286A0003190034FF0A0319FE0A2C2C83120313DE
:10287A00BC010130BA003A08BD003830BA003A0843
:10288A00BB003608A9003708AA003B30BA003A084C
:10289A00AB003C300A128A152A220A168A1108004D
:1028AA0083120313BA003A08B9003908BC00BD0103
:1028BA003730B9003908BB003608A9000030031DBB
:1028CA008030AA003B30B9003908AB003C300A120C
:1028DA008A152A220A168A11831203133C088400D5
:1028EA00831380010800803083120313BE06420856
:1028FA00A3004108A2004008A1003F08A0003E082A
:10290A00A7003D08A6003C08A5003B08A4000A123F
:10291A008A1570250A168A11831203132308BE002A
:10292A002208BD002108BC002008BB000800831251
:10293A000313AB01AC01271CA32CA42CAA2C290835
:10294A00AB070318AC0A2A08AC0701300310A90D1B
:10295A00AA0DFF3E031DAB2C01300310A80CA70CD7
:10296A00FF3E031DB22C27082804031DBD2CBE2CD4
:10297A00A02C2C08A8002B08A70008008312031318
:10298A00A400A001A1017308F500F6017508A200D0
:10299A007608A300241CD22CD32CD92C2208A007F9
:1029AA000318A10A2308A10701300310A20DA30DE1
:1029BA00FF3E031DDA2C0310A40C2408031DE62C89
:1029CA00E72CCF2C2108F4002008F3000800F500BA
:1029DA007508F4007408F600F62C0130F400740847
:1029EA00F6077608840083130008031DFD2CFE2CCD
:1029FA00F22C072D0130F4007408F6070130F400B8
:102A0A007408F307730884000008F4007608840049
:102A1A00740880000008031D132D142DFF2C0800D4
:102A2A000B1C182D192D392D83120313061C1E2D6C
:102A3A001F2D2A2D0130F000700883160313CA07D0
:102A4A004A080F39F0007008CA008312861C2E2D1E
:102A5A002F2D382D013083160313CA024A080F3965
:102A6A00F0007008CA000B1072088A00710E830009
:102A7A00FE0E7E0E0900831603178801890183164C
:102A8A00031385010330860083120313850186012F
:102A9A00831603130F178F160F160F141812181513
:102AAA00831603178715CF308316031399009A01EB
:102ABA0083120313981718131816831603139816FC
:102ACA008B170B178B150B1016149614080083120C
:102ADA000313230824040319732D742DA32DA801AD
:102AEA00A80A822D01300310A30DA40DFF3E031D79
:102AFA00782D0130A7002708A807A41F852D862D49
:102B0A00772D24082602031D8C2D23082502031C79
:102B1A008F2D902D962D2308A5022408031CA603A9
:102B2A00A60201300310A40CA30CFF3E031D972D2F
:102B3A000130A802031DA22DA32D862D2608A4006C
:102B4A002508A300080083120313A101A201730838
:102B5A0074040319B12DB22DE92DA001A00AC02DCC
:102B6A0001300310F30DF40DFF3E031DB62D0130A5
:102B7A00F7007708A007F41FC32DC42DB52D013027
:102B8A000310A10DA20DFF3E031DC52D7408760288
:102B9A00031DD12D73087502031CD42DD52DDC2DF0
:102BAA007308F5027408031CF603F60221140130B7
:102BBA000310F40CF30CFF3E031DDD2D0130A002BF
:102BCA00031DE82DE92DC42D2208F4002108F30085
:102BDA0008000A168A1140250A168A110A128A154D
:102BEA0000210A168A118316031347088312031356
:102BFA008500831603134A08AF00B001B101B20180
:102C0A00320883120313B0008316031331088312A8
:102C1A000313AF0083160313300883120313AE00A5
:102C2A00831603132F0883120313AD0000300A1210
:102C3A008A1544200A168A11831203133008831650
:102C4A000313B600831203132F0883160313B50068
:102C5A00831203132E0883160313B400831203137B
:102C6A002D0883160313B300360883120313E000FA
:102C7A0083160313350883120313DF008316031325
:102C8A00340883120313DE008316031333088312F6
:102C9A000313DD000230E1000030E200CB300A12FB
:102CAA008A113D200A168A11F32D0A128A110C285C
:102CBA000310750D760D83120313A0002008A600D9
:102CCA002608031D692E6A2E732E0030F600003086
:102CDA00F5000030F4000030F300D82E7308A0008D
:102CEA007408A1007508A2007608A3001F3003101B
:102CFA00A30CA20CA10CA00CFF3E031D7C2E2008E5
:102D0A00A4002408A500F517FF30F305FF30F405E9
:102D1A00FF30F5050030F6059630A602A61F962E5E
:102D2A00972EB12E2608803A973E03189D2E9E2E86
:102D3A009F2E6A2E01300310F60CF50CF40CF30CDE
:102D4A00FF3E031DA02E0130A0002008A607031D88
:102D5A00AF2EB02E9F2EC82E20302602031CB62E70
:102D6A00B72EC32E6A2E0130A0000310F30DF40D06
:102D7A00F50DF60DA00BBA2E0130A6022608031D8A
:102D8A00C72EC82EB82E25080319CC2ECD2ED82E24
:102D9A00F309F409F509F609F30A0319F40A031900
:102DAA00F50A0319F60A080083120313B400E12E88
:102DBA000130AF002F08B407340884002030831391
:102DCA0000060319E92EEA2EDD2E340884000930A4
:102DDA0000060319F12EF22EDD2EB201B301B10164
:102DEA00340884002D300006031DFC2EFD2E062F0C
:102DFA000130AF002F08B1070130AF002F08B40728
:102E0A00382F340884002B300006031D0D2F0E2F97
:102E1A00382F0130AF002F08B407382F831203135D
:102E2A00340884003308A8003208A7000A30A90031
:102E3A000030AA000A168A119C240A168A118313E2
:102E4A000008831203132707AF000030031801306C
:102E5A002807B0002F08D03EB20030080318013E00
:102E6A00FF3EB3000E2F3408840000080A168A11A8
:102E7A0016240A168A110318432F442F132F83127C
:102E8A000313310803194A2F4B2F572F3209AF006A
:102E9A003309B000AF0A0319B00A2F08AD00300891
:102EAA00AE005B2F3308AE003208AD0008000030D8
:102EBA00831203132005F30000302105F40080304B
:102ECA002205F5007F302305F600760875047404A0
:102EDA007304031D712F722F7A2F0030A300003064
:102EEA00A2000030A1000030A00000302405F30049
:102EFA0000302505F40080302605F5007F302705CF
:102F0A00F6007608750474047304031D8D2F8E2F42
:102F1A00962F0030A7000030A6000030A500003030
:102F2A00A400A31F992F9A2FBE2F0030F300003060
:102F3A00F4000030F5008030F6002008F302210882
:102F4A00031C210FA92FAA2FF4022208031C220F07
:102F5A00AF2FB02FF5022308031C230FB52FB62F6E
:102F6A00F6027608A3007508A2007408A100730887
:102F7A00A000A71FC12FC22FE62F0030F300003098
:102F8A00F4000030F5008030F6002408F30225082A
:102F9A00031C250FD12FD22FF4022608031C260F5B
:102FAA00D72FD82FF5022708031C270FDD2FDE2F76
:102FBA00F6027608A7007508A6007408A50073082B
:102FCA00A4008030A3068030A70627082302031D29
:102FDA00F82F26082202031DF82F25082102031DB7
:102FEA00F82F240820020318FB2FFC2FFE2F0310B2
:062FFA00FF2F0314080084
:04400E00C420FF3F8C
:00000001FF
