:020000040000FA
:060000000A128A110C280F
:10000800FE00030EF1000A08F2000A128A111628EF
:100018000A128A110F28F401F501F60183010A1268
:100028008A11D428831203138C1D1B281C287428BA
:100038001412141B202821282528941F2428252839
:100048002C281308F0007008F600141394131416E3
:1000580083160313941A3128322850281419352886
:1000680036285028831203131308F0007008F6008E
:100078008C11141683160313141C432844283E2895
:10008800831203131308F0007008F500A630F0007F
:10009800F00B4C2800007128941A53285428712812
:1000A800141D572858287128831203131308F000C9
:1000B8007008F600831603131410740883120313D0
:1000C80093001416A630F000F00B68280000831681
:1000D80003131418702871286B28831203138C11CA
:1000E8000B1C772878289128061C7B287C288528D3
:1000F8000130F0007008F40774080F39F000700838
:10010800F400861C8828892890280130F402740895
:100118000F39F0007008F4000B1072088A00710E95
:100128008300FE0E7E0E09008316031788018901DD
:100138008316031385010330860083120313850198
:100148008601831603130F178F160F160F1420300E
:100158000A128A11BA200A128A118B170B178B15EB
:100168000B1083160313161496140800F300730873
:1001780083160313930036308312031394008030E0
:1001880083160313940001309100871507168B1707
:100198000B17831203138C11831603138C15080095
:1001A8000A128A1198200A128A11740883120313FA
:0A01B8008500D9280A128A110C28CC
:04400E00C420FF3F8C
:00000001FF
