:020000040000FA
:060000000A128A110E280D
:10000800FE00030EF3000408F4000A08F5000A12C3
:100018008A11D6280A128A11112883133030FD005C
:100028000130FE00FA30FF00203084000A128A11E5
:10003800EB210A128A11F601F701F801F90183018F
:100048000A128A11802983120313B2005D28F8303E
:100058008316031381057C28831603130108F839D6
:10006800013881007C28F8308316031381057C2829
:10007800831603130108F839013881007C28831698
:1000880003130108F839043881007C288316031308
:100098000108F839053881007C28073083160313D6
:1000A80081047C28831603130108F8390638810077
:1000B8007C283208B000B1013108003A03196528DC
:1000C80056283008003A03192B28013A031930281A
:1000D800033A03193728013A03193C28073A031948
:1000E8004328013A03194A28023A03195128562885
:1000F80081128111080083120313B200B5288F30D2
:10010800831603138F05D428831603130F088F391A
:1001180010388F00D4288F30831603138F05D42806
:10012800831603130F088F3910388F00D4288316CD
:1001380003130F088F3940388F00D4288316031310
:100148000F088F3950388F00D42870308316031366
:100158008F04D428831603130F088F3960388F0053
:10016800D4283208B000B1013108003A0319BD287B
:10017800AE283008003A03198328013A0319882861
:10018800033A03198F28013A03199428073A0319E7
:100198009B28013A0319A228023A0319A928AE2874
:1001A8000F140800831203130C1FDB28DC28EE2829
:1001B8001F0CF200720C0F39003A031DE428E528E1
:1001C800EB281E080A128A1114220A128A118312B5
:1001D80003130C130B1CF128F2280129061CF5281F
:1001E800F628FA280130F20072088807861CFD28D4
:1001F800FE280029013088020B100B1D042905294F
:100208002329851006110B11FF3081007903031D86
:100218000E290F2919290611861578080A128A113C
:100228000A220A128A11F90123298611061577086C
:100238000A128A110A220A128A11F901F90A7508A2
:100248008A0074088400730E8300FE0E7E0E090077
:1002580001308316031788008901033083160313BE
:100268008500033086008701880183120313850106
:100278008601870188018B170B178B168B15831640
:1002880003130C170B110B10831203130C130730F5
:100298000A128A117F200A128A1107300A128A115B
:1002A80027200A128A11FF30831203138100831654
:1002B8000313161496149F1302300A128A11AB21E5
:1002C8000A128A11C330831203139F050C3083125C
:1002D8000313B300B30B6E290000831203131F141A
:1002E8000C3083120313B300B30B78290000F90113
:1002F80083120313880108000A128A112C210A129A
:100308008A11831203139F149F188B298C2996290D
:100318000C3083120313B400B40B9029000083122D
:1003280003139F1476080A128A11D1210A128A111E
:1003380076088312031308020318A329A429A629FF
:1003480007148829071088290A128A110E2883128F
:100358000313B200BC293F309F05CC291F083F3941
:1003680040389F00CC291F083F3980389F00CC298E
:100378003208B000B1013108003A0319C429B7297D
:100388003008003A0319AF29013A0319B229B729ED
:10039800831603131F129F12080083120313B2005F
:1003A80032080F39B0003008F8003208B0000430C5
:1003B8000310B00CFF3E031DDC2930080F39B100D3
:1003C8003108F70008007E088A007F0882000A12B8
:1003D8008A11E7210A128A118000840A04087D061E
:1003E80003190034FF0A0319FE0AEB293F340634C7
:1003F8005B344F3466346D347D3407347F3467346E
:1004080077347C3439345E3479347134F0007008D0
:10041800203E84008313000883120313870008001A
:0C042800F1007108F0007008F6000800F8
:04400E00C430FF3F7C
:00000001FF
